:020000040000FA
:10000000B8A1052039410000CDB200002541000013
:100010002541000025410000254100002541000048
:10002000000000000000000000000000B5420000D9
:1000300025410000000000005D4200002541000055
:1000400069440000694400006944000069440000FC
:1000500069440000694400006944000069440000EC
:1000600069440000694400006944000069440000DC
:1000700069440000694400006944000069440000CC
:1000800069440000694400006944000069440000BC
:1000900069440000694400006944000069440000AC
:1000A000694400006944000069440000694400009C
:1000B000694400006944000069440000694400008C
:1000C000694400006944000069440000694400007C
:1000D000694400006944000069440000694400006C
:1000E000694400006944000069440000694400005C
:1000F000694400006944000069440000694400004C
:10010000694400006944000069440000694400003B
:10011000694400006944000069440000694400002B
:10012000694400006944000069440000694400001B
:10013000694400006944000069440000694400000B
:1001400069440000694400006944000069440000FB
:100150006944000053B94AB9002908BF00281CBFF0
:100160004FF0FF314FF0FF3000F00CB8ADF1080C4C
:100170006DE904CE00F008F8DDF804E0DDE90223C3
:1001800004B07047704700BF2DE9F04786468C46A3
:100190000846089E154674461946002B40F0C1805B
:1001A0008542B2FA82F245D94AB1C2F1200300FA7F
:1001B00002FC954094402EFA03F343EA0C0C4FEAFC
:1001C000154EA8B2230CBCFBFEF80EFB18CC08FBA6
:1001D00000F943EA0C43994528D9EB1808F1FF3799
:1001E00004D2994502D9A8F102072B44A3EB0903D5
:1001F000A4B2B3FBFEFC0EFB1C330CFB00F044EA84
:100200000344A04214D92C190CF1FF3304D2A042AC
:1002100002D9ACF102032C44241A43EA07401EB170
:10022000D440002334607360BDE8F0874746DDE7C3
:100230006346F1E792BB431B01214FEA154EAFB273
:10024000200CB3FBFEFC0EFB1C330CFB07F840EA52
:100250000343984561D9EB180CF1FF3004D298455F
:1002600002D9ACF102002B44A3EB0803A4B2B3FB08
:10027000FEFC0EFB1C330CFB07F744EA0344A742C9
:100280004DD92C190CF1FF3304D2A74202D9ACF19D
:1002900002032C44E41B43EA0040C0E7C2F1200300
:1002A0009540944020FA03F12EFA03F34FEA154EDD
:1002B0009040AFB20343B1FBFEFC0EFB1C10190CC7
:1002C0000CFB07F841EA0041884522D969180CF176
:1002D000FF3004D2884502D9ACF102002944A1EBD9
:1002E00008019BB2B1FBFEFC0EFB1C110CFB07F7D7
:1002F00043EA01439F420ED9EB180CF1FF3104D2BF
:100300009F4202D9ACF102012B44DB1B41EA0041C0
:1003100093E76046E3E76146F7E76046A4E7634694
:10032000B8E7834206D916B9002108467CE7C6E93A
:1003300000E0F9E7B3FA83F78FB9834201D372453E
:1003400008D8BEEB020460EB030301209C461EB9F3
:10035000002169E73846FAE7C6E9004CF8E7C7F13B
:10036000200CBB400EFA07F522FA0CF42EFA0CF121
:10037000BA401C4320FA0CF3B8404FEA1449014339
:100380001FFA84FEB3FBF9F809FB18300B0C08FBCD
:100390000EFA43EA00439A4540D9E31808F1FF30CA
:1003A00004D29A4502D9A8F102002344A3EB0A0320
:1003B00089B2B3FBF9F809FB183308FB0EFE41EADA
:1003C00003418E452CD9611808F1FF3304D28E45C4
:1003D00002D9A8F10203214443EA0040A1EB0E0137
:1003E000A0FB02984145CE46434602D306D14D4577
:1003F00004D20138B9EB020E68EB0403002EA7D03B
:10040000B5EB0E0261EB030101FA0CFC22FA07F3D3
:10041000F9404CEA0303C6E9003199E74046C5E7D5
:100420004346D9E7F0B5474B474A85B0C2F8003696
:10043000C2F80436C2F80836C2F80C36C2F81036D4
:10044000C2F81436C2F81836C2F81C3602F58052CB
:10045000C2F80036C2F80436C2F80836C2F80C36C4
:10046000C2F81036C2F81436C2F81836C2F81C3674
:1004700000F090F8354C20460DF06DFB00B3256977
:10048000A6682B680D2143F400532B602046336887
:100490002F4A98472046736801A9984720B92A68CF
:1004A000019B53409A040BD54FF05023D3F80034EE
:1004B0000BB1DB0704D503F065F8264803F078FCA0
:1004C00000F0FAFA054601A800F0D2FF04462846DB
:1004D00000F002FB204B1B68A34201D009F019FF7A
:1004E0004FF48031002006F057FC044600B1FEE7CF
:1004F00006F030FD69469DF8080009F03DFE009BBE
:10050000039D1D44019B1E8906F02EFCAF1902F0CD
:1005100059F800F0F5FF01F03BF800F0C3FF00F0E0
:10052000DDFF84F30B8884F30A88AB5983F30888D2
:1005300084F31488BFF36F8FBFF36F8F7B68984786
:10054000FEE700BF3546526E008001509CE300007C
:1005500011000100B8E60000BC20002021B10129F3
:1005600006D06FF015007047044B53F83000704709
:10057000024B03EBC0035868704700BFC0E60000A1
:1005800004289ABF024B18566FF01500704700BF41
:1005900036EC00004FF4C051014806F067BF00BFC1
:1005A0000E4601202DE9F34706460F4690461C46AD
:1005B000144DDFF854A0554514D30A2120460DF000
:1005C000B9FA124B694600930223204601930DF0BD
:1005D000AAFA082120460DF099FA0A2120460DF0CA
:1005E000B1FA0BE055F8049BB9F1000FE3D02346B4
:1005F000424639463046C8470828DCD0002002B0C1
:10060000BDE8F08760F4000064F400003BEC0000FB
:1006100030B51D46838885B03F2B31D1037803F078
:100620000703022B2CD1C47954BB0D2001A901F082
:10063000A5FC002822DB0198214682680AF0FBFB1A
:10064000044601980AF0CCFB003C18BF01240A21A3
:1006500028460DF06FFA0B4B02A90293022328469D
:1006600003930DF060FA214628460DF04FFA0A2157
:1006700028460DF067FA204605B030BD0124E6E7B4
:100680000824F8E73BEC00002DE9F04FDFF8E0B17B
:10069000F9B038A8DDE9848916461C46869FDBF848
:1006A00000500CF037FD002138A806F0F3FFB8F138
:1006B000000F07D0B9F1000F04DD4A46414638A8C3
:1006C0000CF02CFD4FF0000833897289D6F80CA08D
:1006D00013449A44C2454CD80DA938A80CF062FDC9
:1006E00027B1202238460DA90AF02DFE002322460C
:1006F000009331464FF6FF7307A809F05EFD804670
:10070000002833D120460C9E09F001FE86422DD8E8
:100710004FF0FF37DFF85C910DF1160305AA06A92B
:1007200007A809F098FD002820DB40F09880BDF86C
:100730001660102E35D1BDF81460202E16D1334628
:100740002046069938AA0AF04CFB78B900F0B4F9B3
:100750003246804638A90DA800F096F90646404674
:1007600000F0BAF9444B1B68B34217D0DBF80050D5
:1007700078E0839BAAEB0809994528BF9946414632
:100780004B462046829A0AF02CFB0028EED14A46BE
:10079000829938A80CF0C2FCC8449BE74FF00108CE
:1007A000BAE7012E35D1BDF81430202BDED8204613
:1007B000069938AA0AF015FB07460028D6D19DF8FD
:1007C00014A0BAF1200F02D94FF0FF37A4E7D9F8EF
:1007D00000302A4E0393039B9F42F5DA1DA80CF0CC
:1007E00099FC00211DA806F055FF72681DA812682B
:1007F00056F8081B0CF092FC15A91DA80CF0D2FCB1
:10080000524638A915A80AF077FD002884D0013790
:10081000E1E7202E80D17B1C3FF47EAFD9F8003079
:10082000BB42D1DDBDF81430B3F5807F9ED12046A8
:10083000069938AA0AF0D5FA002897D100F03CF9B9
:10084000FFB282463146BDF8143038AA00970DA891
:1008500000F016F80546504600F03EF9B4E7B8F14E
:10086000000F83D000F030F9284679B0BDE8F08F52
:10087000B8200020D0E60000BC200020D4E6000014
:100880002DE9F04FDFF8F4B1ADF54D7D804629A894
:100890001E469DF858738A469146DBF800500CF0CE
:1008A000F4FB0422012129A806F070FE744B8CAAE7
:1008B00053F8374003EBC7035B6804941B6804A834
:1008C0001C44214630230BF007FA002840F0CC806E
:1008D000049B8C9A13449C4240F0C68021462BAA6C
:1008E00004A80BF00DFA002840F0BE802EAF3A4667
:1008F000214604A80BF004FA0390002840F0B480CD
:100900002BA80BF0F4FA049A2A90944240F0AC80A1
:10091000039B01971A4600932BA929A80CF072FBA0
:10092000002840F0A18029A806F046FE002840F0EB
:100930009B802BA80BF0DBFA2A9029A80CF0AFFBC8
:10094000864240F0918000F0B7F8B6F5807F074608
:10095000DBF8005040F08380BAF1200F7FD1494688
:100960008CAA29A806F04EFE0446002877D19DF8EF
:100970002F33BC2B73D1DF2605900DF5A87A0EA876
:100980000CF0C8FB00210EA806F084FE20220DF218
:100990000F310EA80CF0C2FB042205A90EA80CF022
:1009A000BDFB06A90EA80CF0FDFB202EB146A8BF8A
:1009B0004FF020099DF81730504601334A4606A9EA
:1009C000A6EB09068DF817300AF0BDFC002ECA44CC
:1009D000D5DC54AA104600218CAB067813F801CB65
:1009E000013186EA0C06DF2900F8016BF5D19DF88C
:1009F000503103F07F038DF8503112F8016B76BB54
:100A00000134BE2CF9D19DF80E32012B27D10EA84E
:100A10000CF080FB31460EA806F03CFE0822194976
:100A20000EA80CF07BFB414620220EA80CF076FBB2
:100A300020220DF20F210EA80CF070FB06A90EA8C3
:100A40000CF0B0FB00F038F8202204460DF20F3114
:100A500006A800F019F80546204600F03DF800F021
:100A600033F8384600F038F829A80CF01AFB00F0EB
:100A70002BF828460DF54D7DBDE8F08FB8200020FD
:100A8000D4E600003EEC000070B5094B04461D683A
:100A90000023934205D1074B1D6800F015F8284646
:100AA00070BDE65CC85C8642F7D10133F1E700BF58
:100AB000B8200020BC200020024B1868421C1A609D
:100AC000704700BF80270020024A1368013B136073
:100AD000704700BF80270020034B1B68834201D072
:100AE00009F017BC704700BF80270020034637B5C8
:100AF0004FF40062084693F8B8401349019262002F
:100B000051F82250A8420ED1582101FB043201FBBA
:100B10000434526A283401A901F058FA08B9019B3B
:100B2000236003B030BD013251F82220904208D139
:100B3000582101FB043201FB0433126D03F154040C
:100B4000E9E70120EDE700BFDCE6000070B590F8B2
:100B5000B850104E6D0056F825100446FFF7C6FF3A
:100B600098B9013556F825102046FFF7BFFF054616
:100B700068B9582294F8B83002FB0343186A0AF0A7
:100B80006EF9C4F8B400284670BD0125FBE70925BD
:100B9000F9E700BFDCE600002DE9F04F624B8DB0B5
:100BA000044690F8B8000E461D68FFF7D7FC0AA966
:100BB0008246C0B201F0E2F928B1FFF785FF28466E
:100BC0000DB0BDE8F08F94F8B87031463846FFF7A5
:100BD000C5FC4FF02C090BA9C0B209FB06F901F0C6
:100BE000CDF900285CD04FF0580B2C220BFB07F3FB
:100BF00002FB063323441B6913F0100865D1FFF78D
:100C00005BFF3146079094F8B80006F0ABF9054653
:100C10000798FFF761FF454B1B689D4223D1FFF703
:100C20004BFF94F8B81007900A9D0991FFF744FF15
:100C30004FF4807307FB0B9201933D4B0999089089
:100C4000009322442B464046CDE90388CDF8088026
:100C5000FFF71AFD05460898FFF73EFFFFF734FF40
:100C60000798FFF739FF2C234FF0580C73430CFB08
:100C700007373049E219E7590A988F420AD1D168FB
:100C80001289521806D281688A4203D22A4A12680F
:100C9000AA4220D0CEB1002182680AF0CCF814E03C
:100CA0000B980AF0E3F805460B980AF099F85823D8
:100CB00094F8B82002FB039323445A1E033312F81E
:100CC000011FA9428FD19A42F9D11C4B1D680A9885
:100CD0000AF086F871E794F8B820194901EBC201CF
:100CE00049688A45F3D10CFB02F2A1180E6A002173
:100CF000134423440B91198904230BAA19440AF0C5
:100D000070F80028E1D194F8B8300B99012B0BBF93
:100D10000C4AD6E901234FF082739B18914201D30C
:100D20009942D4D90A98B6E7B8200020B020002014
:100D30000E5E01203DB8F396BC200020B4200020B8
:100D4000DCE60000008800012DE9F84F8846914656
:100D50009A460026DFF88CB0234D244C0B9B9E4214
:100D600001D300200FE00B9B40469F1BB7F5806F1F
:100D700028BF4FF480671B4A3B4606EB0A010AF086
:100D800030F810B10120BDE8F88F0A993B465A4669
:100D9000484671180AF03AF80028F3D1144BC5F808
:100DA00000463E44C5F80446C5F80846C5F80C465A
:100DB000C5F81046C5F81446C5F81846C5F81C46CF
:100DC000C3F80046C3F80446C3F80846C3F80C4607
:100DD000C3F81046C3F81446C3F81846C3F81C46B7
:100DE000BCE700BF84270120008001503546526EC9
:100DF000009001502DE9F04F002604460D46B04604
:100E0000582795B0012E84F8B86007D9B8F1000FC3
:100E100000F0618100202C265827E2E0A31993F806
:100E2000B910002953D107FB0643704A304602EB44
:100E300086325A626E4A02EB86321A65FFF78EFBE3
:100E400094F8B810C0B207FB0141203101F096F8C8
:100E500008B109F05EFA01213046FFF77FFB94F8F4
:100E6000B810C0B207FB01414C3101F087F808B15E
:100E700009F04FFA2046FFF769FE00BB002220462A
:100E8000114609F059FA834690B9204609F0B5FA9F
:100E900070B10AA809F07FFA09F086FA064660BB2D
:100EA00094F8B830C3B9002120460AAA09F044FAE0
:100EB000012294F8B830234483F8B02007E00122DF
:100EC00094F8B8309042234483F8B020D6D194F8F7
:100ED000B8600136F6B295E794F8B020042A04BF52
:100EE000012284F8B020012BDDD094F8B130042B1E
:100EF000D9D1012384F8B130D5E79DF82F30012BEB
:100F000051D1582294F8B830CDF838B002FB0343E1
:100F1000384AD96AD86C91421DD094F8B80006F0CE
:100F2000D1F8831E022B81461FD8FFF7C5FD012192
:100F300083462046FFF730FE82465846FFF7CCFD39
:100F40002D4909688A4510D02C4A126892450AD169
:100F50004FF0010909E0998E04230EAA194409F003
:100F600040FF0028D9D04FF0050994F8B830234449
:100F700083F8B09094F8B8306BB1E21892F8B020D2
:100F8000012AA4D0042A0CD094F8B020042A02D15B
:100F9000012284F8B020234493F8B030023B022BA6
:100FA00095D8B04693E7FFF787FD01218346204699
:100FB000FFF7F2FD81465846FFF78EFD0E4A94F882
:100FC000B83012682344914514BF05229DF82F20A4
:100FD00083F8B020CEE7231893F8B92082B101300E
:100FE000C0B2012884F8B800F5D974E084A70020C5
:100FF000842700203DB8F396BC200020B4200020B8
:1010000093F8B08008F0FB08B8F1010818BF4FF062
:1010100001084146FFF7A2FA05A9C0B200F0AEFFF1
:10102000002840F08F80012306FB08F894F8B810E0
:10103000059A17FB01810093214440230EA809F073
:10104000BCF8804600287FD100230DF1120206A9CA
:101050000EA809F000F900283DDB059840F08180DA
:10106000BDF812300C2B7AD1069907AA09F0B9FE07
:1010700000287FD19DF81C30012B7ED8E21892F811
:10108000B0207B43023A022A8CBF0022012206FBD9
:1010900002332344197D9DF820209142D4D80AD3ED
:1010A000597D9DF821209142CED804D3DA8ABDF82B
:1010B00022309A42C8D294F8B8300598234493F865
:1010C000B020012A3CD0023A012A02D8012283F83A
:1010D000B02009F085FE00264FF0FF085827012EAA
:1010E00084F8B8604CD90023DFF8D082B44EB54FF5
:1010F0000E93012B84F8B83040F24E810E9B022BE8
:1011000001D009F006F994F8B930002B40F0928133
:10111000582606FB034284F8B830106A09F032F80A
:10112000287194F8B83006FB03431B6A5B68AB6018
:1011300094F8B83003FB06462E60A14B1D6850E1C1
:101140000422C4E70598C4E7059809F049FEB8F100
:10115000030FC0D140F20113A4F8B030BBE74FF049
:101160000308059809F03CFEB8F1000FEFD194F8A0
:10117000B80034E74FF00108F3E74FF00708F0E755
:10118000A21992F8B930002B40F0C3800AA809F0E8
:1011900002F992F8B030042B8DF82F3006D8012BCD
:1011A00006D800F0AD8082F8B080A9E0052BF8E702
:1011B00007FB0643194630462C31DA6C0AF0B6FCC0
:1011C0000128014640F09C8094F8B800FFF7C6F96A
:1011D00007A9C0B200F0D2FE002800F09F804FF0B7
:1011E00000094FF0580B079809F0FAFD94F8B86021
:1011F00007A90BFB06431B6A187800F0BFFE724B71
:101200000EA903EBC6030026B246187900F0B6FE1D
:1012100094F8B8300BFB03439B6A534519D094F8FC
:10122000B82031460BFB0242526A079802EBCA0211
:1012300052680393029209F0FEFD029A039B164442
:101240004E45C0F0A680D4F8B460B9FBF6F906FBB1
:101250000966D4F8B40009F04AF8582394F8B82085
:1012600003FB0242536A926A1968013A03EBC20314
:101270000022D3F804E09C4672449042A3F1080394
:10128000F7D8DCF800300798591A09F0D4FD00238C
:101290002046079A0E9901960093FFF755FD78BBFB
:1012A000079805F099FE58BB4FF0580994F8B8001C
:1012B000324609FB0043196A0AF046FC0146F8B9B8
:1012C00094F8B8300E9809FB03431B6D5A6809F077
:1012D000B2FD94F8B83009FB0343D3E91423013B72
:1012E00052F8331002EBC30013684268C91A0E9813
:1012F00009F0A1FD079809F073FD0E9809F070FD43
:1013000094F8B830234493F8B030FF2B01D109F0A2
:1013100000F894F8B8600136F6B2E0E694F8B83018
:10132000079807FB03439E8E9B6B0EAA1E44314613
:10133000042309F056FD00287FF451AF94F8B8302B
:10134000BDF8382007FB0343B3F836A046F6081370
:101350009A42079819D1BDF83A309A457FF43FAFC9
:1013600004230EAA0AEB060109F03BFD00287FF4D6
:1013700036AF46F60713BDF838209A427FF42FAFF8
:10138000BDF83A90D144B1442BE7BAF1000FF0D048
:1013900025E70AF1010A40E7234493F8B9208DF8C4
:1013A0001C209DF81C2002F0FF017AB10E9B013336
:1013B0000E9394F8B8300133DBB29AE6B8200020DF
:1013C000BC200020B4200020DCE6000093F8B03000
:1013D000012B17D020460AAA08F0AEFF90B1D8F82A
:1013E0000050102200210AA809F0B8FF5826002357
:1013F000012B84F8B83025D9FFF766FB284615B0D5
:10140000BDE8F08FFFF758FB002182462046FFF72A
:10141000C3FB81465046FFF75FFB33684B45DED187
:10142000D8F800209A42DAD03A689A42BED1D6E77C
:1014300001236DE694F8BA30002BF9D0022384F82A
:10144000B8307AE6E21892F8B9205AB906FB03439D
:10145000D86C09F0C5FC94F8B83006FB0343186A51
:1014600009F0BEFC94F8B8300133DBB2C0E700BF2E
:1014700070B50B4E0446BC220021304609F06EFFC9
:10148000FFF71AFB214605463046FFF7B3FC04463A
:101490002846FFF721FBFFF717FB204670BD00BF72
:1014A000842B0120BFF36F8F72B600234FF0FF3003
:1014B000094A03F120010133102B42F82100F8D131
:1014C00000234FF0FF30044A03F160010133102B79
:1014D00042F82100F8D1704700E100E000231846EF
:1014E0000649D1F89020C2F30722934200DB7047EF
:1014F000C1F89830C1F8A0000133F6E700ED00E034
:1015000038B501224FF0FF3400251A4B29465A60A6
:10151000C3F84843C3F8084303F580535A60C3F83F
:101520004843C3F80843A3F55043C3F8005580224D
:10153000C3F80843104809F011FF802229460F48DC
:1015400009F00CFF0E4B8022C3F800552946C3F862
:1015500008430C4809F002FF802229460A4809F096
:10156000FDFE0A4BC3F808454FF05023C3F808436B
:1015700038BD00BF00400150808000508081005085
:1015800000900050809000508091005000700150F9
:101590004FF4EC220021014809F0E0BE00A0002039
:1015A0002DE9F043079D15B91560002012E00324D2
:1015B000B5FBF4F404EB4407BD4218BF0134B4F1A9
:1015C000804F09D2A40001348C4200D838B96FF0A2
:1015D0000B001460BDE8F0834FF0FF34F7E70446DA
:1015E0000021DFF8B4E0B94203F1030C04F1040672
:1015F0002BD3A942274623D201F1010CAC451F7819
:1016000028BF002324494FEAA70E38BF5B7811F8A2
:101610000EE0AC4584F800E001EB131E2EBF3D2325
:101620009B0003F03C034FEA071738BFCB5C07F081
:1016300030071EF80770A3703D2367703746E370CC
:101640000023381A10603B70AFE71CF8034C1CF8FD
:10165000023C4FEAA4091EF8099024011CF8018CF1
:1016600004F0300406F8049C0EEB131919F804403A
:101670009B0006F8034C03F03C030EEB9814E35C6C
:1016800008F03F0806F8023C1EF80830344606F819
:10169000013C03316346A6E7D4ED00002DE9F04399
:1016A00000273C463D46DDF81CE0DFF82881754503
:1016B0001FD3E4BB00201460BDE8F08301367645FB
:1016C00033D013F806C0BCF1200FF7D0AEEB0609FB
:1016D000B9F1010FA6EB05050DD0BCF10D0F0AD134
:1016E00003EB060999F80190B9F10A0F6ED1751C48
:1016F000DDE72E46E3E7BCF10A0FF8D02DB9BCF1C7
:101700003D0F05D10137022F0DD96FF01500D3E73A
:101710001CF0800FF9D118F80C507F2DF5D03F2D1B
:1017200001D8002FF1D10134E1E73546C1E74FF090
:10173000060C04F00706E4080CFB06F60CFB04F4A8
:101740000736E41B04EBD60470B18C420CD800279A
:10175000014603263C46DFF87CE0DFF87C801D4430
:101760009D4205D10C1AA5E76FF00B001460A3E7AA
:1017700013F8019BA9F10A0C5FFA8CFCBCF1160F5F
:1017800004D848FA0CFC1CF0010FE9D01EF809C07F
:101790000134BCF1400F08BF013E0CF03F0C042C9B
:1017A0004CEA8717DCD17EB13C0C012E0C7002D1C3
:1017B00001310024D4E7022E4FEA17244C7016BFE3
:1017C0008F7002310331F4E73446C9E7002DA2D00F
:1017D0009BE700BF54ED0000F6FFBFFF2DE9F04787
:1017E000058B04462807904611D4022905F0070509
:1017F00040F0CD80204609F024F978B10138218BE2
:10180000042811D8DFE800F0C3106D859500012988
:101810000CBF45F0100545F02005258388F311889D
:10182000BFF36F8FBDE8F08701F0070AAA4500F00B
:10183000A6800027B9463E46A368002B00F0BD8075
:1018400041F00801218388F31188BFF36F8FA168ED
:10185000002900F0BB800D68002900F0B7803346F6
:1018600052462046D1F80480C047002D76D02B6820
:1018700029461D46F0E701F007035A1F012A1BD82D
:10188000002221F00701062B276889B2C4E9002253
:1018900009D13B4603E0628B013262831B68002B57
:1018A000F9D141F002012046218309F0CAF800284D
:1018B0007BD041F0200177E0042B0AD121F0070111
:1018C00089B22046218309F0BCF810B141F0200113
:1018D0002183218B01F0070AAA4550D00027B94681
:1018E000AAE7236921F0070141F00601062DD3F88C
:1018F000009021832DD1B9F1000F40D041F00801B3
:10190000218388F31188BFF36F8F20463949C84778
:1019100029E021F00701236941F0040189B2042D77
:10192000D3F804902183E6D000274FF0040A3E4606
:1019300082E721F00701236941F0050189B2052DF5
:10194000D3F808902183D6D000274FF0050A3E46F1
:1019500072E700274FF0060A3E466DE72B4687E701
:10196000B9F1000FD1D14FF02003EFF3118883F3C9
:101970001288BFF36F8F238B23F008032383258BFB
:10198000EA062ED525F01003238305F007056669C6
:10199000218B002EBFF66FAF00232768C4E9003308
:1019A00021F0070141F001012183218B4FF0000953
:1019B00001F0070AAA457FF43FAF002F9BD041F00A
:1019C0000801218388F31188BFF36F8F002FC7D0E0
:1019D0003D68394633465246204609F05EF82F46A8
:1019E000F4E7AB067FF51AAF25F02003238305F05B
:1019F0000705FFE6C7AA00002DE9F04F82464FF029
:101A000000098DB01D46531E01910393039B587826
:101A10005C1C252819D100204FF0FF381E46444693
:101A200003460236029031780396392955D81F298A
:101A300014D8002900F0EF8101992520D0470199A1
:101A40003078D04709F10209E0E7002800F0E3818F
:101A50000199D04709F101090394D7E7A1F12002C8
:101A6000192AE9D801A757F822F000BFD51A0000BB
:101A7000391A0000391A0000D51A0000391A00007E
:101A8000551B0000391A0000391A0000391A0000ED
:101A9000391A0000A11B0000D51A0000391A0000F5
:101AA000B51B0000611B0000391A00006F1B00000D
:101AB0008F1B00008F1B00008F1B00008F1B00007E
:101AC0008F1B00008F1B00008F1B00008F1B00006E
:101AD0008F1B000008460136A5E7582900F0EB806F
:101AE000A1F16302D7B2172FA6D8172AA4D801A74D
:101AF00057F822F05D1D0000DB1B0000391A0000C2
:101B0000391A0000391A0000BB1B0000DB1B000063
:101B1000391A0000391A0000BB1B0000391A0000F6
:101B2000391A0000391A0000911C0000391A00000F
:101B3000391A0000311D0000391A0000DB1B0000BB
:101B4000391A0000391A0000911C0000391A0000EF
:101B5000BB1B000025200199D04709F1010955E779
:101B6000029A4FF0000802F0FE020292B3E7002C46
:101B70000DDAB8F1000F0DDA029A002A00F0438165
:101B80000A2224EAE47402FB0414303CA3E7B8F10F
:101B9000000FF5DB0A2202FB0812A2F130089AE7D7
:101BA000B8F1000F55F8042B80F22F81002A80F243
:101BB0002E815442022202928DE7682903D1682BBC
:101BC00006D1482387E76C2902D16C2B00F02181D4
:101BD000002B7FF431AF0B467DE77A2B06D17529B8
:101BE00055F8046B14D14FF0000B0CE06C2BF6D0C1
:101BF0004C2BF4D1073525F00703752903F10805AF
:101C0000D3E9006B06D120283BD1854F013C09E088
:101C10004FEAE67BBBF1000FF5DA7642814F6BEBC2
:101C20004B0B013C0DF12D0305930023049330462B
:101C300059460A220023FEF78DFA059BB44630323E
:101C400003F8012D5A460593049BBCF10A0F8B46FD
:101C500072F1000203F1FF3106460491E7D2C3F1AD
:101C6000010B30330DEB0306B8F1000FA6F10406AB
:101C70006DDA029BD9077DD4A8EB0B03A4EB0B0410
:101C800013E02B280ABF684F684F04F1FF34C9E7FF
:101C900070290FD155F8042B0023FAB96FF0040313
:101CA0004FF0050B614F624E053C029A920770D4CB
:101CB000A04666E078216C2B03D1002355F8042B55
:101CC00008E04C2BF9D1073525F007031D465B686A
:101CD00055F8082B232825D1880621D5554F023CDD
:101CE000002601F06001A1F1390B0DF12D0E02F07B
:101CF0000F01092988BF594430310EF8011D102AFF
:101D00004FEA121141EA03714FEA131C73F1000309
:101D100006F1FF3008D2C6F1010B06F13003A1E74E
:101D2000454FDCE7414FDBE706460A466346DEE700
:101D300055F8046B304609F0D8FAB8F1000F834625
:101D400002DB4045A8BFC3464FF00008374FA8EB61
:101D50000B03002B92DDA4EB0804A6E755F8043B27
:101D60004FF0010B8DF81830304F4FF0FF33013C2E
:101D700006AE9AE7A046EAE7029320200199D047F1
:101D8000029BB8F10108F7D524EAE472013C9144C2
:101D9000A41AB84606E0049302920199D047029A29
:101DA000049B9046424612F8010B0028F3D11A46D4
:101DB000013A15D5002BACBFC7EB03077F425B464A
:101DC000013B15D5BBF1000FA8BF5F4426464F4429
:101DD000013E14D5002CA8BF3F1907EB080915E6F2
:101DE0000493029230200199D047049B029ADFE7C6
:101DF0000293019916F8010BD047029BE0E7019985
:101E00002020D047E4E70122D5E6904663E6144659
:101E100061E64C235FE648460DB0BDE8F08F00BF99
:101E200016EE000014EE000018EE0000A1EE000017
:101E300020EE00001AEE00001DEE000007B50DF1C7
:101E400007000BF040FA114B98421CD14FF480620E
:101E50000F4B1049C3F8B8254FF40062C3F83C2576
:101E60009DF807000BF02AFA0B499DF807000BF0CC
:101E700020FA01209DF80730984005F045FE00202B
:101E800003B05DF804FB6FF00B00F9E70000AD0B49
:101E900000A002502CA0025028A10250054B03EBD9
:101EA0008000D0F8003223F0E04343F04053C0F804
:101EB0000032704700258450012208B50A4B0B49B7
:101EC000C3F8002502230020C1F8D036FFF7E6FF53
:101ED0001046FFF7E3FFC1F80427C1F80429C1F851
:101EE000002B002008BD00BF001000500040005033
:101EF000052370B5144D154E2C780134B4FBF3F363
:101F000003EB8303E41A09F0DEFD114A137823B1D1
:101F100056F82430C01A072814D94FF05023D3F8AC
:101F2000141141B10021C3F81411D3F814312C70ED
:101F30000CB9012313702C7809F0C5FD46F8240074
:101F4000012070BD0020FCE70F5F0120402C012024
:101F50000E5F012048B1054B054A1B68B3FBF2F345
:101F60005843044B43F00103184770477C2100207D
:101F700040420F00B0E6000005F0A8BC70B5114B60
:101F80000D461C68DCB1104B196800238B4202DB44
:101F90006FF0010070BD224612F8106B864202D02D
:101FA00014460133F2E7E06810B96FF01200F1E770
:101FB0000BF0D1FD0028F8D000202C60EAE76FF08C
:101FC0000C00E7E71821002044E7000070B588B056
:101FD00005460C46C0B269461646FFF7CFFF0028FB
:101FE0001BDB0098C8B1436822680293836801959F
:101FF000CDE903360023CDE906230593C56808F033
:10200000EFFE6DB12846084901AA09F0C9FB0798FF
:1020100008B9059B236008B070BD6FF01500FAE7A2
:102020006FF01200F7E700BF7BAE0000F0B40C4B7E
:102030000C4E5F6A0C4BB34203D36FF08500F0BCCB
:1020400070475D68BD4209D31C693CB195F802C078
:102050000579AC4502D12346F0BC18472433EAE7A2
:10206000542C0120A02400207C2400202DE9F047DE
:1020700005460E461746124CDFF84880DFF84890B8
:10208000444503D36FF08500BDE8F0876268D9F856
:1020900024309A4212D3A36983B190782979884277
:1020A00005D13A4631462846BDE8F04718475279EF
:1020B000012A03D13A463146284698472434DFE7BF
:1020C0007C240020A0240020542C01202DE9F04184
:1020D00005460E4617460A4CDFF82880444502D3D1
:1020E0006FF0850009E063690BB92434F6E73A46DE
:1020F0003146284698470028F7D1BDE8F08100BF57
:102100007C240020A024002010B5044609F06DF9BD
:1021100010F1780F00D050B9204608F0D0FE044AE4
:10212000D2F8C43023EA00030020C2F8C43010BD46
:10213000542C012008220021014809F00FB900BFEA
:102140000F2D012070B50B4B0B4CA34201D3002087
:1021500070BD0022196A1E7F0439D5B2AE4201D883
:102160002433F2E7013211F832508542F5D10120D3
:10217000EEE700BF7C240020A024002008B5094819
:102180000378C3F341130A3350F823303BB100F115
:10219000080200F110019847C043C00F08BD18465F
:1021A000FCE700BF542C012004282DE9F14F044620
:1021B0000F46DFF8949016D001282DD1DFF88C80DF
:1021C00098F8B93043B300F00BFE214D4D4520D2B5
:1021D0004FF0000AD5F820B02B7F5FFA8AF6B342A1
:1021E00004D82435F2E7FFF7A5FFE7E70BEBC606B7
:1021F000307909F0FAF80246307908F060FED8F834
:10220000C430002A23EA0003C8F8C4300AF1010AE6
:10221000E2DA002388F8B9300D4D4D4508D30B4B59
:102220001B6A6BB13946204601B0BDE8F04F184734
:10223000EB681BB13A462146284698472435ECE71F
:1022400001B0BDE8F08F00BFA0240020542C012075
:102250007C24002073B5C4B263060D468DF8074098
:1022600007D02046FFF76EFF78B10D4B93F8BA0008
:1022700058B120460A4E55B102F034FDF3691BB146
:1022800008200DF107019847012002B070BD02F04F
:1022900051FDF369002BF7D009200DF10701F2E79A
:1022A000542C012073B586781E4C8DF8006003799C
:1022B000427943EA0223ADF80230C378304603F096
:1022C00003038DF8043008F0FAFDD4F8C430054655
:1022D00018420BD0304600F065FD3046FFF714FF82
:1022E0000BF09EFC10B9962007F028FB684602F020
:1022F000D5FC10F1780F03D010B1002002B070BDF2
:102300009DF8000002F052FD10F1780F01D0002876
:10231000F3D10120D4F8C43084F8B9002B43C4F8B9
:10232000C430EBE7542C01202DE9F047924D0446D0
:10233000AB690E461746C3B9207800F01F0001288C
:1023400076D0022800F0DC8000BB94F900103A68D7
:10235000002963782EDA062B0CD0082B25D0ABB9D8
:10236000537001231370022303E198470028E3D13F
:1023700000200DE06388190A0A1F012A8C4605D93E
:10238000072903D8DAB26B6A1C781CB96FF0150004
:10239000BDE8F0875D78654503D1824200F0E480B6
:1023A00001302344F0E71B78E3E095F8BA3013706E
:1023B0000123DEE0052B11D0092BE7D163886E6A7B
:1023C000002B32D1FFF7B6FE638885F8BA30EB698F
:1023D000002BCDD0032069499847C9E7A07802F0C7
:1023E0004BFC0028C4D0D1E77378042B10D0052B08
:1023F00011D0022B04D177796388BB4208BF01203A
:1024000033781E443378002BEED10028BED0D9E7B4
:1024100096F80380F4E76388BB42F1D1B8F1000F6E
:10242000EED13046FFF73EFFEAE7FF27B846E9E77F
:1024300095F8BA30D7F800C0002BA7D06F6AA288F1
:102440003B4694F804E0187800289FD05978022978
:1024500004D193F80480F04500F292800344F2E73F
:102460008CF800308CF80130316081E71F4493E034
:102470000B2B8BD100264FF0FF08B246C14606E079
:102480007B78042B0FD0052B21D03B781F443B7861
:10249000002BF5D1EB6913B1514607209847002E68
:1024A0007FF466AF72E797F80280A38897F80390ED
:1024B0009845EAD163889945E7D1B8F1070F1CD850
:1024C00005EB0803BA46012683F8BB90DDE7A38835
:1024D0004345DAD1A3784B450AD0BE78304600F0A8
:1024E00061FC3046FFF710FEB0FA80F67609CCE7C3
:1024F0003846FFF7D7FE0646C7E7BA460026C4E7C8
:1025000094F900206378002A18DA002B7FF43EAF9C
:1025100024793F6863060AD02046FFF713FE00289F
:102520003FF434AF95F8BA30002B3FF42FAF394663
:10253000204602F01FFC00237B7014E7012B08D01B
:10254000032B7FF423AF6388002B7FF41FAF01219F
:1025500003E0618800297FF419AFA088FFF77AFEB5
:1025600000287FF405AF11E702293B607FF41BAF21
:102570005B883360FCE600BF542C01200E2D012047
:1025800094F9000063780028BFF672AF002B3FF487
:1025900067AF0A2B7FF4FAAE3B78002B3FF4F6AE20
:1025A000797804297FF462AFB9788A427FF45EAF0C
:1025B000072A8EBF0023521992F8BB308CF80030E6
:1025C000F6E600BF70B5164D95F8B830FBB102F0D5
:1025D00033FB002822DB00F003FC0024D5F8C430D4
:1025E000E6B2E340DA0714D4D5F8C43004F110029F
:1025F000D340DB0705D546F08000FFF785FD0028B6
:102600000CDB0134102CE9D1002385F8B830002010
:1026100004E03046FFF778FD0028E5DA70BD00BF22
:10262000542C012013B5164C237DF3B9E26801AB9D
:102630008020A168019208F051FC019AA36813441C
:10264000A360E3689B1AE3606BB962B12369E28817
:102650009A4208DD94F8C82093FBF2F102FB113393
:102660000BB90123237502B010BD002380201A4648
:102670001946237502B0BDE8104002F0C1BB00BF8F
:10268000542C0120002330B585B002460D4601933D
:10269000002858D1002935D108220B460DEB020144
:1026A00008F0BCFE002804DA802002F01BFB05B015
:1026B00030BD2A4C029AC4E903552260039ABDF842
:1026C0000E30626004F13802A2609DF90820257581
:1026D000002A0ADB802B04D9802002F003FB0020B3
:1026E000E3E713B1C4E90333E1E7FFF747FD00284F
:1026F000DAD0E28823699A42D4BFE260E360FFF750
:1027000091FFD4E7154C01ABD4E90215002D04DC90
:1027100008F084FE0028CADAC6E72A4608F07EFEE2
:102720000028D9DB019AA3681344A360E3689B1ACD
:10273000E360002BBBD104F13803A360FFF71EFD5B
:102740000028DCD1B0E78028B1D1044BDA68002A38
:10275000D5D11B7D002BD2D1A9E700BF542C01207D
:10276000054B064A58629A62054A0020DA62054A19
:102770001A63054A9A617047542C012029230000EE
:102780002D200000CD2000006D20000010B5084B6A
:1027900093F8B84034B900F0E3F830B1FFF7E0FF48
:1027A000204610BD6FF07700FBE74FF0FF30F8E7F1
:1027B000542C01202DE9F341414D04466F6A4FF03E
:1027C000FF324FF0FF333F4806F042FC95F8B86007
:1027D000002E6ED13C482C62E86102F02BFC02F026
:1027E000F9F9041E49DB00F01FFB041E45DB7B7872
:1027F000012B61D1FB79002B5ED0684685F8C8308B
:10280000ADF802308DF804608DF8006002F046FAF1
:10281000041E32DB802768468DF8007002F03EFA15
:10282000041E2ADB3046294902F0F0FB041E24DB9B
:102830003846264902F0EAFB041E1EDB244CDFF872
:102840009480444520D3002002F0B0FA041E14DB2B
:10285000D5F8C430802043F00103C5F8C43002F03D
:10286000A5FA041E09DBD5F8C430002443F48033F4
:10287000C5F8C430012385F8B830124806F0ACFB27
:10288000204602B0BDE8F0810026276A227FF3B21D
:102890009A4201D82434D4E707EBC30257F8331027
:1028A000107902F0B3FB01360028EFD04FF0FF346F
:1028B000E3E76FF07704E0E76FF01504DDE700BFB2
:1028C000542C012064230020A9210000852600004B
:1028D0007C240020A024002030B51F4B8BB005AA1B
:1028E00003F11005144618685968083303C4AB4255
:1028F0002246F7D11B7810222370002101A808F08E
:102900002DFD12220021154808F028FD102101A8F4
:1029100008F096FF00281BDD0828B8BF082001AB8F
:1029200009381A1800200D4912F8013F0AAC04EBCF
:10293000131403F00F0328336B4414F8144C13F8EA
:10294000143C013008280C704B7001F10201EBD1EE
:1029500002480BB030BD00BF26EE0000105F012022
:102960002DE9F04F4FF0000B6E4C87B000264FF072
:10297000011AB0463546B14623782BB96A4B02346A
:102980009C42F3D1674832E06378052B1BD8DFE81F
:1029900003F08E03C68E1D3B402304A88DF810B0B3
:1029A000ADF812308DF814B008F00AFD40B10823DC
:1029B00004A8ADF8123008F003FD08B1ADF812B06C
:1029C000BDF81230E37123781C44D5E7E378002B7F
:1029D000F9D1A37873B108F101085FFA88F8F2E73A
:1029E0006A68944209D024359D42F9D3002007B08B
:1029F000BDE8F08F4D4D4E4BF6E7AB68002BEAD0AB
:102A0000414620469847E6E7002DEFD000222B7F75
:102A10009A42EBD2296AA07801EBC2010B79984265
:102A200001D00132F3E70127E078FBB200F00300A8
:102A30008DF81400207994F805C040EA0C20ADF818
:102A4000120094F90200002826DA4FF0010C07F179
:102A500010000CFA00F010EA0A0F24D143F08000B5
:102A60008DF8100004A8CDE90213019208F0A8FC2B
:102A7000DDE90121039BB0B99DF8102012F0800F11
:102A8000A2700A714FF001021DBF1033DBB29A40F1
:102A9000BA404AEA020A96E70120B84010EA0A0F53
:102AA00001D11846DCE70137102FBDD1B9E7032E5D
:102AB0001DD1FFF711FF074668B108F016FC019021
:102AC00048B11C4808F011FC019A824203D13946F2
:102AD000A01C08F038FC6FF002012378091BE218F3
:102AE00004EB5303D14213D50136F6B26BE7002E47
:102AF000F1D1B9F1000F3FF479AFA4EB090389F8E4
:102B00000230C3F3072389F8033089F80480EBE728
:102B100002F801BC13F8010902F8020DE2E7A14630
:102B200051E700BF98230020792400207C24002056
:102B3000A024002026EE0000094B00211A4610B503
:102B40001C78844204D15C6814B102EB811010BD82
:102B50000131042903F14003F2D10020F7E700BF5F
:102B6000202D01202DE9F34150F8283C0446103374
:102B700010F82C6C0AD1036950F8202C980736D530
:102B8000D2B9590715D5002344F8283C54F8283CFD
:102B900010330BD054E9077554F8148C0BF040F83F
:102BA00000284FD021462E480BF033F902B0BDE883
:102BB000F08143F004032361304654F8241C01AB38
:102BC00008F08CF910B16FF01503DDE7019A54F8A5
:102BD000243C134444F8243C54F8203C9B1A44F809
:102BE000203C54F81C3C134444F81C3CCEE73046CF
:102BF00054F8241C01AB02F07FF90028E3D1019DB9
:102C000054F8243C2B4444F8243C54F8203C5B1BEF
:102C100044F8203C54F81C3C2B4444F81C3C002D48
:102C2000B1D0304602F00CFAB5FBF0F303FB1055BF
:102C3000002DA8D154F8203C002BA4D0304602F03F
:102C4000A3F9A3E744F8180CA4F1100006F0AEFABB
:102C5000002DABD0424639463046A847A6E700BF14
:102C6000A02400204B1E012B73B506460D460FD83D
:102C7000FFF762FF044668B9012D09D101AB0122BB
:102C800030460DF1030102F037F9019B002BF5D11D
:102C900002B070BD0AF0C4FF04F12C0108B1012D8F
:102CA00005D1084602B0BDE87040FFF75BBF03489E
:102CB00002B0BDE870400BF0ACB800BFA02400200B
:102CC0002DE9F74F064615469846019108F04CF954
:102CD000044600285CD14FF02003EFF3118A83F300
:102CE0001288BFF36F8FDFF8B0B000220023584680
:102CF00006F080FA70B9DFF8A490A70109EB8414FC
:102D0000636813F1100F14D10193584606F04EFA80
:102D1000019B06E00134042C0BF1400BE5D16FF070
:102D20000B038AF31188BFF36F8F184603B0BDE819
:102D3000F08F019B2061C4E902350C9B3046636132
:102D40000D9B09F80760A3616FF00F03C4F83C8086
:102D5000636002F075F958B1304602F071F9B5FBC5
:102D6000F0F303FB10551DB1E36B43F00403E36381
:102D700018F0020F07D007F12C01094849440BF065
:102D800048F80023CDE7304602F0FEF80346C8E7D6
:102D90006FF00F03C9E700BF3C2D0120202D01205B
:102DA000A024002010B54FF02003EFF3118483F32B
:102DB0001288BFF36F8FFFF7BFFE50B14368103327
:102DC00007D16FF08B0300F12C01436003480BF037
:102DD00020F884F31188BFF36F8F10BDA02400206A
:102DE00070B504250E4C4FF02003EFF3118683F3EA
:102DF0001288BFF36F8F6368103307D16FF08B03B6
:102E00000848636004F12C010BF003F886F3118885
:102E1000BFF36F8F013D04F14004E4D170BD00BFEA
:102E2000202D0120A024002070B50025094C0A4E59
:102E3000314620460AF0D0FF0122A4F110001146CD
:102E400001350AF08CFF042D04F14004F0D100207C
:102E500070BD00BF4C2D0120652B000070B50446ED
:102E60000E4601791248154608F05BF8E8B194F96E
:102E700000206378002A11DB202B04D0222B09D0FC
:102E80006FF0850005E007222968103808F05BFA2A
:102E9000002070BD638800F8093CF9E7212BEFD1D1
:102EA0000723103828603360F2E76FF01200F0E774
:102EB000202E0120014608B5034808F03FF810B164
:102EC000012300F8073C08BD202E012001230169E1
:102ED00081F84B300B6833B191F849301BB102488F
:102EE00008310AF096BF7047A02400200123016931
:102EF00081F84A300B6833B191F848301BB1024871
:102F000008310AF086BF7047A0240020012370B565
:102F100082F8483013680D4614463BB192F84A30A7
:102F200023B10E4802F108010AF073FFD4F8903083
:102F30009A681B699A4205D17DB904F1180140F6DF
:102F4000CD4204E004F11801002DF8D00022BDE8C4
:102F500070400023014806F09DBA70BDA0240020F7
:102F600038B5056995F89E0088B195F89F307BB912
:102F700085F84830D5F8900007F0AFFE04460022EF
:102F80000023044805F1180106F084FA204638BDF4
:102F90000020FCE7A0240020002103460C4AA0F8F2
:102FA0004810106883F89C10C3F8940090889279B8
:102FB000A3F8980083F89A2083F89B104022A3F886
:102FC0009E1083F8A01003F14C0008F0C7B900BFB1
:102FD000A0E60000F0B5D0F88C3004465B6885B000
:102FE0001B6A1F7D384607F0BFFF0646F8B994F804
:102FF0008630E3B14FF48062A06F03A907F08CFE26
:103000000546A0B18306A4F1180384F8306001934B
:10301000084B08BF00F1FF35039900932A460223AD
:103020003846FFF74DFE2946A06F07F091FE05B028
:10303000F0BD00BF0D2F0000002310B50469C4F8D7
:10304000A8300C4BC4F8A400596804F1A80269B96F
:10305000C3E9002204F1080007490AF0BDFE04F1AB
:10306000180006490AF0E6FE002010BD0A605A600A
:10307000F0E700BF202E012093AF0000D52F000005
:1030800030B54FF400334268056942F2A10085B0C3
:10309000CDE90103002385F89D30106AADF80C10CE
:1030A0000A22007901A907F019FF054C95F89D3017
:1030B00023B901200AF04AFD013CF7D105B030BD2B
:1030C000A1860100002313B504698DF8071084F868
:1030D00048300122D4F890000DF1070107F0FDFD02
:1030E00010B90AF09DFD40B12122002304F118011E
:1030F000064806F0CFF902B010BD94F8A130002BBD
:10310000F2D00021212006F0FFFBE2E7A0240020FE
:1031100037B514460A1E054620DDD4F88C0004F1AC
:103120004C0107F0DAFD012384F8493023683BB1F4
:1031300094F84B3023B1114804F108010AF069FEFC
:10314000D4F88C104B684A699A1ACB699B1A3F2BAA
:1031500004D8012384F8A03003B030BD94F89E3029
:10316000002BF9D0064B40220093284601230194FE
:1031700004F14C01FFF7A4FDEEE700BFA0240020FE
:1031800011310000F7B50D4601461D4807F0BEFE9F
:10319000044610B3064656F8A439691E5F6805292F
:1031A0001BD8DFE801F01C1A031C222610F8061CAD
:1031B00099B9012300F8063C3B6A3246187BFFF7B9
:1031C000A7FF14F85C2C42B93B6A1146187D0D4BE1
:1031D000019600930223FFF773FD03B0F0BD304664
:1031E00003B0BDE8F040FFF7D7BE012304F8053C6B
:1031F000F3E710F8053C002BEFD00023F6E700BF03
:10320000202E01200D2F000037B50024084D4FF06F
:10321000FF334FF4806228460649009406F002F915
:10322000054928460AF002FD204603B030BD00BF24
:10323000A02400207868052044EE0000014806F034
:103240004FBE00BF38E8000038B5044618B90F4B30
:103250000F485B6898476168B1F5683F10D0B1F5D9
:10326000680F0DD00B4DA9420AD011F46861206897
:1032700007D0014608480AF0ADFC002323606560D2
:1032800038BD142208F06AF8F9E700BF10220020C8
:103290004DEE00002C5F5CA92833012008B560B317
:1032A0004368B3F5683F0ED0B3F5680F18D0144AE1
:1032B000934220D000684FF0FF324FF0FF3305F00B
:1032C000C7FE58B115E001220368D3E8EF1F0029BB
:1032D00003D1C3E8E02F0028F7D10AD1002008BDB0
:1032E0000368084A1B7803F5807352F82330002BDB
:1032F000F4D00548F3E70548F1E76FF4E040EEE766
:103300002C5F5CA900000350E98FFFFFEA8FFFFFED
:1033100008B520B34368B3F5683F09D0B3F5680F2B
:1033200013D0114A93421DD0006805F055FE14E0F9
:1033300000220368D3E8EF1F012903D1C3E8E02F7F
:103340000028F7D109D0094808BD00210368084AC0
:103350001B7803F5807342F823100020F4E76FF424
:10336000E040F1E70348EFE72C5F5CA9E98FFFFF3E
:1033700000000350EA8FFFFF10B5044618B91D4B3B
:103380001D485B6898476368B3F5683F2FD0B3F575
:10339000680F2CD0194A934219D1236803BB4FF010
:1033A000FF324FF0FF332146154805F03FFD08B9C5
:1033B00023681BB90F4B13485B6898471422002100
:1033C000206807F0CBFF4FF46863636008E0B3F553
:1033D000683F0DD83A2B03D040F6BA629342DED153
:1033E00020680AF03CFC636843F03A03636010BD58
:1033F000054AF3E7102200204DEE00002C5F5CA987
:103400002833012073EE00003A00003A08B506495F
:103410004023142205480AF0CFFBBDE808400449C8
:10342000044806F0CFBD00BF282E0120283301201C
:1034300040E8000054E80000F7B5224E3068836889
:103440005B6C03B19847306883685B6B002B31D1AC
:103450001D4C1E4D306883689B69002B2DD00122C6
:103460000DF107019847012827D1236843B92B683C
:103470001BB369681A688B422A6008BF6A602360C0
:10348000134A9DF8070011887F2904D823684F1C30
:103490000B44178018720A28DCD100202368118899
:1034A000186059600B494D684DB9C1E9003310806F
:1034B0002060CEE798470028CAD103B0F0BD2B604A
:1034C0004B60F4E79C370120443301205433012042
:1034D0000C4601204C33012010B5044B04461868FB
:1034E0008368E1B25B689847204610BD9C37012095
:1034F000F8B50546164608464FF02003EFF311874E
:1035000083F31288BFF36F8F1B490B684BB11B4CC1
:1035100062689A4205D000221A60626862B9C4E902
:103520000033174A136853B987F31188BFF36F8FBD
:1035300018460B603360F8BD13606360F1E7D2F8A2
:1035400004C01C686345146008BF546087F3118889
:10355000BFF36F8F5C680B60A042D8BF00F1FF34EF
:1035600003F108012246284607F0EDFE0023601C07
:103570002B550123DEE700BF4833012054330120DF
:103580004C330120002337B51C462349234AC1E9A7
:103590000033C2E90033224A4868146088B9C1E99F
:1035A00000220133082B02F18802F5D11D4D1E487F
:1035B00028600AF0D0FA38B94FF0FF34204603B043
:1035C00030BD02604A60ECE70020FFF7F3F80446E4
:1035D0000028F1D12868836823B19B6C13B122467F
:1035E00012499847286883685B6B0BB1984748B1CC
:1035F000286883689B69002BFAD001220DF107012E
:103600009847F4E700220A4B28681A8083689B6A6F
:10361000002BD3D09847D1E7543301204C330120FD
:103620005C3301209C370120C4E3000039340000E2
:103630000C46012041F204432DE9F043ADF54F7DE6
:10364000ADF8083040F606130025ADF80C30DFF871
:103650001091444BD9F800101B68434E4D70A3EBFA
:1036600006080B7828465A1C62F302030B7098FA7E
:1036700098F34B808B8808225BBA8B8006F001FFA1
:1036800031464246ADF8100006F0FBFE02271FFA55
:1036900088F440BA04F10A035BBA0222ADF81000C4
:1036A0000DF1120106A8ADF8123007F04CFE082209
:1036B000D9F800100DF11A00ADF8127007F043FEB2
:1036C000BDF8120006AB083080B231464246ADF874
:1036D0001200184407F037FEBDF812303A461C4479
:1036E000A0B22C4606ABADF8120004A9184407F0AE
:1036F0002AFEBDF8123040F2C9113B449BB2ADF82E
:103700001230009305AA06AB5BA8FDF749FF059BA5
:10371000164E174FADF81230BDF81230A34203DC3D
:103720000DF54F7DBDE8F083336802215B68A4B9D5
:1037300003A89847BDF8125033682D1B7C2DA8BFF5
:103740007C255BAA101929465B68984733680121DC
:1037500038465B682C449847DEE702A8E9E700BFDB
:10376000E8370120B8370120225F0120EC37012023
:10377000A0EE0000F0B50C68164F85B002380D467B
:10378000C4F580610090144B381903AA0131FDF78C
:1037900085FF0446D0B92B68039A1344022B2B6093
:1037A00011D93E88023B76BAB6B29E420BD1324660
:1037B000B91C06F066FE30B9022E04D92B689A1E99
:1037C0002A60FC540124204605B0F0BD4FF0FF34C0
:1037D000F9E700BF6B6001206E64012007B5CDE9F9
:1037E0000001694602480AF09EF903B05DF804FB47
:1037F000B83701202DE9F04F4FF0FF37C7B00B4627
:1038000001210397049705970027024600912EA8EF
:103810000421CDE9067709F0E5FE402239461EA8CD
:1038200007F09CFD8E4B03211A93052304221B9362
:103830008C4B04ACCDE91C348B4B8C481F938C4BC8
:1038400003AE219308AB22938A4B05AD24938A4B98
:10385000CDE92901CDE92635CDE92B36259107ABF8
:103860001AA92EA8209207F0D9FC10B303240A212C
:1038700082480AF05FF902218148FFF7AFFF214635
:103880007E480AF039F944B903217848FFF7A6FFCA
:103890007C4B7A4819680AF039F90A2177480AF00E
:1038A00051F9FFF7C7FE069807F09AFA47B0BDE84E
:1038B000F08F3368DDE908875A1CD7D0B8F1000FC4
:1038C000D4D0DFF8C49133B92268B2F1FF3F18BFFA
:1038D0001346C9F80030D9F80000FCF751FE06A9DC
:1038E000C0B2FEF74BFB04460028BFD13368654EDB
:1038F000002B4BD1DDF818A030605046DAF808B044
:1039000006F0FAFC614A0146504606F03DFC08B15B
:103910000124ACE72B685B45A8D85D4A14605D4A7A
:10392000136032685A4D3A4429680698013A07F004
:1039300056FC0028286099DB069807F090FAB7FB40
:10394000F0F303FB1070DFF84CA13368C5B27D1BA8
:103950001F44DAF800309F4238BF00205FFA80FB36
:10396000069807F07CFA012806D9069807F077FA3E
:10397000013818EA000F52D12B46424631680698AA
:1039800007F044FA00287FF471AF2CE032689342CC
:103990007FF46DAF3F4A3B4412689342C1D965E75B
:1039A000AF42069888BFEFB207F060FA40220146A6
:1039B0000AA807F0D3FC3A4641460AA807F0C3FC20
:1039C0003B46316806980AAA07F020FA08B1044677
:1039D0004DE73368B8443B443360ED1B069807F06D
:1039E0003EFAA842DCD9BBF1000F1AD13368DAF8ED
:1039F00000205B442B44934233607FF438AF234B69
:103A000006981A68114607F0EAFB002880DBDAF80E
:103A100000200699D9F8000008F09CF8D7E7402765
:103A2000DCE7069807F022FA082201460AA807F008
:103A300095FC5A4608EB05010AA807F084FC069F8E
:103A40003168384605EB010807F009FA414603469C
:103A50000AAA384607F0DAF900287FF407AFC5E76D
:103A6000A2EE00004BD80000A8EE0000B1EE00006E
:103A700055D80000ADEE000051D80000B837012045
:103A80003BEC0000B0370120B4370120A8370120FB
:103A9000A4370120A037012038B505460A4C0A2179
:103AA00020460AF047F802210848FFF797FE29460A
:103AB00020460AF021F820460A210AF043F8BDE822
:103AC0003840FFF7B7BD00BFB83701203BEC00001E
:103AD000002307B502210093044A4FF4A47304485D
:103AE0000AF032F803B05DF804FB00BF225F01204A
:103AF000B83701202DE9F04707290446B0B040F25D
:103B00000A81037813F0050F40F005814388A1F185
:103B100008055BBA9BB2AB42C0F0FD80974B00F149
:103B20000807186083885BBA8380FFF7D1FFA688F7
:103B3000012E40F0FA80E37943B1012B00F0EE80D2
:103B4000082030B0BDE8F047FFF7A6BF247814F096
:103B50000704F5D131468A4809F0ECFF062189486F
:103B6000FFF73CFE0521864809F0E0FFDFF81882E8
:103B7000DFF818920026864F00E0012631462046E5
:103B8000D8F80050FCF7EAFC08A9C0B2FEF7F6F935
:103B9000824600283AD13146204610AA07F097FF06
:103BA000012805D120235146089810AA07F019F9D9
:103BB000109B4B4522D1FCF77FFF314682462046C1
:103BC00003F0D0F905465046FCF786FF714B1B68A1
:103BD0009D4213D1FCF770FF40230021019320ABDD
:103BE0008246CDE9031108460291009310AA089B72
:103BF000FCF74AFD05465046FCF76EFF3B68DDF8D2
:103C000020A0AB4208D0504607F0EAF8002EB4D00E
:103C1000002C76D13446ADE700235246009310A91C
:103C20004FF6FF730AA806F0C8FA00284ED04FF0EE
:103C3000FF35089807F0D4F81421514809F07AFFAD
:103C400005215548FFF7CAFD21464D4809F05EFFA2
:103C500004215248FFF7C2FD3146494809F056FF9A
:103C60005DB904214E48FFF7B9FD18AB0A93202334
:103C700043480AA90B9309F053FF07214948FFF76E
:103C8000ADFDBDF85630402101939DF85530464AB0
:103C9000009320A89DF8543000F0FAFB169B4BB11E
:103CA000421E3E2A06D820ADC0F140013F4A2844BA
:103CB00000F0EEFB20A807F018FB014620A8FFF754
:103CC0008DFD14212E4809F03DFF9FE70DF11E03E5
:103CD00007AA09A90AA806F0BEFA0028A7D1BDF8CC
:103CE0001E30102BF2D1BDF81C30202B9FD1504636
:103CF000099918AA07F075F8051E18BF01256D422D
:103D000097E705211E4809F019FF01211C4809F019
:103D100019FFFFF78FFC30B0BDE8F0872946384621
:103D200030B0BDE8F047FFF765BDCEB9E379012BB0
:103D300009D0052B7FF404AF304607F012FF0128AD
:103D400003D10A20FDE63046FBE63046FFF7A4FE2D
:103D50004FF40050002105F0D7FD012007F02DF8A9
:103D60002A4639462046064BFCF71CFC0028D2D1D7
:103D700030B0BDE8F047FFF75DBC00BFE837012079
:103D8000B8370120B5EE0000B82000203DB8F3960A
:103D9000BC200020B0200020A2EE0000BCEE0000FD
:103DA000C1EE0000C6EE0000CEEE0000DAEE00002C
:103DB00001232DE9F34100250646DFF8C080304C91
:103DC00088F800302F4B304F0095186098F800307D
:103DD00013B902B0BDE8F0812C4BC5F58061C3F882
:103DE0000046C3F80446C3F80846C3F80C46C3F8B7
:103DF0001046C3F81446C3F81846C3F81C4603F52A
:103E00008053C3F80046C3F80446C3F80846C3F815
:103E10000C46C3F81046C3F81446C3F81846C3F856
:103E20001C46336801AA0131781998470028019B84
:103E300001DC002BCAD005442BB940F201439D425E
:103E4000C4D10025C2E73B78062B09D17B78092B2A
:103E50000BD1002300936946A81EFFF78BFC04E0FA
:103E6000042B02D17B78142BF5D00128E9D10099DD
:103E700007480239FFF73EFEE3E700BF6A60012012
:103E80003546526EEC3701206C64012000800150F1
:103E90006D60012030BFFFF7FDBF00BF044B996884
:103EA0005869884203D003494FF080520A60704736
:103EB0000844012004ED00E0154B9A6A12F0007FDF
:103EC0009A6A14BF1E201D2012F0807F9A6A18BFC4
:103ED0001F2012F4801F9A6A18BF022012F4002FCC
:103EE0009A6A18BF212012F4802F9A6A18BF2220E4
:103EF00012F4003F9A6A18BF232012F4803F9A6A96
:103F000018BF24206FEA02426FEA12429A62704799
:103F100000ED00E010B5184B0246986A9C6A10F458
:103F2000805F14BF1720162014F4006F9C6A18BF1E
:103F30001820A40508D5986A000404D51AB19A6A15
:103F400022F400429A6219200B4B9A6A12F4806F95
:103F50009A6A18BF1A20D2050CD49B6A13F4005F2A
:103F600018BF1C20044A936A43F47F4393620023E2
:103F70000B7010BD1B20F5E700ED00E010B51C4BE9
:103F80000246986A9C6A10F0100F14BF112010208E
:103F900014F0080F9C6A18BF1220A40709D5586BAB
:103FA000986A000604D51AB19A6A22F080029A62D1
:103FB00013200F4B9A6A12F0010F9A6A18BF14204F
:103FC00012F0200F9A6A18BF1520D40658BF9B6ABA
:103FD000074B9A6A920642BF5A6A22F400525A620A
:103FE0009A6A42F0FF029A6200230B7010BD00BF74
:103FF00000ED00E070B5444B06465B6800258AB0D2
:10400000C3F3080385F31188BFF36F8F02F07F407D
:10401000B0F17F4F11D102F00C0008280DD010072D
:104020004CBF0E4601250022033B8DF80720032BD1
:1040300005D8DFE803F01E5C60592E46F3E7002444
:104040009DF807309BB92022314602A807F07BF982
:10405000099B002D53D0C3F3080222B96FEA532302
:104060006FEA43230993204602A907F029F90AB011
:1040700070BD254BDA6A9107E1D4DA6A002ADEDBEB
:10408000DA6A5200DBD55A69B16942F480725A612A
:10409000BFF34F8FBFF36F8F5A6931F8021C22F4C0
:1040A00080725A61BFF34F8FBFF36F8F4DF602726C
:1040B000914209D09A6AD2B242B101200DF10701B2
:1040C000FFF75CFF0446BBE73468B9E79A6A12F46D
:1040D0007F4F05D001200DF10701FFF71BFFF1E72E
:1040E0009B6AB3F5803FAAD3FFF7E6FEEAE700201C
:1040F0000DF10701E4E700200DF10701EDE723F4DE
:10410000FF7323F00103ADE700ED00E0044B5A69B3
:1041100042F010025A615A6942F480625A61704753
:1041200000ED00E0EFF30880EFF3098101B572467E
:10413000FFF760FF01BD00BF002080F31488BFF3CC
:104140006F8F002080F30A8880F30B88FDF714FF3F
:1041500000200E490860BFF34F8F0D4880F3088898
:1041600000F02CF8202080F311880A484FF40061F9
:10417000401880F30988EFF314800221084380F38C
:104180001488BFF36F8F00F0EBF8000094ED00E0AF
:10419000B8A1052078700520BFF34F8F0549064B65
:1041A000CA6802F4E0621343CB60BFF34F8F00BFD5
:1041B000FDE700BF00ED00E00400FA0572B6002341
:1041C00083F313884FF0FF300C4A03F120010133D1
:1041D000102B42F82100F8D100234FF0FF30074A9E
:1041E00003F160010133102B42F82100F8D162B6CF
:1041F000BFF34F8FBFF36F8F704700BF00E100E048
:10420000084B9B6883420BD1EFF3058343B1064B08
:104210005A6842F080525A605A6A22F400425A6246
:1042200009F022BF0844012000ED00E06FF00A0110
:10423000084A93685967084918674B6843F08053E8
:104240004B60002383F31188BFF36F8F9368586F1F
:10425000704700BF0844012000ED00E013498A6860
:104260004FF030001044EFF3098C80E8F01F20205D
:1042700080F31288BFF36F8F0D4F4FF000664A69CD
:104280008A603E60106F0023136780F3118802F18B
:10429000300090E8F01F8CF3098802F1000004B5AB
:1042A00007F01FF8BDE804407047000008440120F3
:1042B00004ED00E01EF0040F0CBFEFF30880EFF3F5
:1042C0000980816911F8021C0229FFD001B506F0AE
:1042D000F9FF01BD40B2002807DB01234109034A71
:1042E00000F01F00834042F82130704700E100E0F9
:1042F00040B200280CDB01220649430900F01F00F0
:104300008240203341F82320BFF34F8FBFF36F8FDC
:10431000704700BF00E100E0054B420953F822203E
:10432000012300F01F0003FA00F01040704700BFA7
:1043300000E100E040B2002801F10101ACBF00F152
:104340006040064B4FEA4111C9B2ABBF00F5614076
:1043500000F00F0080F800131954704714ED00E0CE
:104360000B4A08B50B4B22F07F029A60BFF34F8FC8
:10437000BFF36F8FD3F8882022F47002C3F888202F
:1043800004F08EFC05F00CFB00F062F804F0D2FCA7
:104390000000000000ED00E042F8203C009B0B49CB
:1043A00042F81C3C019B21F0010142F8183C029BA1
:1043B00042F8081C42F8143C4FF0807342F8043C69
:1043C0000023203A02650367704700BFABA40000DA
:1043D000084B9860036E83F30B88104681F30988BD
:1043E000002163B681F31188BFF36F8F0022002391
:1043F00006F05BF808440120014910220A6070476A
:1044000010ED00E072B6404080F31188BFF36F8F6B
:1044100001B5FDF76DFD002802D0BFF34F8F30BF0F
:10442000BDE8014062B6BFF36F8F704772B6494076
:1044300081F3118801B5FDF75BFD002802D0BFF3C1
:104440004F8F20BFBDE8014080F3118862B67047EE
:10445000002320210348C2180133452B82F80013A2
:10446000F9D1704700E100E001B5EFF30580A0F15C
:1044700010004FEAC0000449014409C99847BDE84B
:1044800001400249084700003CE400009D3E000056
:104490000CB410B586B009B90DF10B000024CDE9BC
:1044A000040109AB089A009404A905480393FDF799
:1044B000A3FA049B1C7006B0BDE8104002B0704720
:1044C0006FB300000146014809F03EBC882300207C
:1044D0000149024809F09DBC183801203825002008
:1044E000020600F07F0312D5082B05D1010700F06A
:1044F0000F0306D50E48704710F0780F12D100F068
:104500000F034C2000EB43100A4B18447047082B54
:1045100005D1020700F00F0306D50748704710F0D9
:10452000780FF6D000207047044800EB4310704726
:104530003C390120F03701205C3A01205C39012030
:1045400000220023014804F0FDBD00BF88230020A5
:1045500013B5002201213720FFF7ECFE3720FFF7CB
:10456000B9FE124800F01AFE114B98421AD10024ED
:10457000104803F08FFE104804F0A8FA4FF0FF3304
:104580004FF480620D490E48009404F04BFF0D4932
:104590000B4809F04BFB0C480C4909F01DFC204668
:1045A00002B010BD6FF00400FAE700BFDD47000065
:1045B0000000AD0BE9EE000064E80000786C052017
:1045C00038250020DEEE000018380120F9480000F0
:1045D000002310B50B49D1E8EF2F012A03D1C1E820
:1045E000E03F0028F7D10CD151F8044C1439204693
:1045F00006F007FB783004D12046BDE8104006F0F5
:10460000DBBA10BD1038012038B5002464F07F00FB
:10461000C0B2FFF765FF013406F0B8FE082CF5D1F3
:1046200000240E4DE0B2FFF75BFF036903B905619B
:10463000013406F0ABFE082C05F14005F2D1084824
:1046400006F0A4FE074BD3F87C2212B9064AC3F841
:104650007C22064806F09AFE002038BD803E0120EC
:104660003C390120F0370120803A01205C3A0120DA
:1046700010B5054CFFF764FF20B14168204609F0F2
:10468000A9FAF7E710BD00BFF822002007B5002304
:1046900000220E4801A904F0C9FB90B1FFF7E8FF22
:1046A00000220023094801A904F0C0FB38B9042303
:1046B000019840600374FFF705FFFFF709FF002032
:1046C00001E00198406003B05DF804FBF82200208F
:1046D00010B50446FFF7DAFF60B1002204720274DD
:1046E000FFF7F0FE044B93F824301BB1BDE81040F7
:1046F000FFF7EEBE10BD00BFF0370120012807B55F
:104700000FD002280ED048B9002200230848CDE976
:10471000002345F69A12002305F00CFB03B05DF868
:1047200004FB002003B05DF804EBFFF7D1BF00BF2E
:1047300088220020F8B5877806463846FFF7D0FE75
:104740003B060446F57812D5002D43D1FFF79EFFB6
:10475000034600283ED00122A5770274032202738B
:104760009C60FFF7AFFEBDE8F840FFF7B1BE4DB16A
:10477000012D2FD1FFF78AFF034658B365770574E3
:104780000573EDE7FFF782FF20B3B278124B12F00A
:10479000800F02F0080111D041B1D3F8A836E360D0
:1047A00001230374022384600373DAE7142102F007
:1047B0000F0201FB0233D3F80836F0E711B1D3F84A
:1047C000A837ECE7142102F00F0201FB0233D3F803
:1047D0000837E4E7F8BD00BF00600350F0B50646B7
:1047E00089B01422002103A806F0B8FD3378013BFC
:1047F000052B21D8DFE803F07A0314146A1603238B
:1048000000248DF81430FFF741FF0346A0B100F1FA
:1048100008020474DDE9050182E8030018461DE082
:104820000423EDE7B7783846FFF75AFE837A04464B
:1048300023B1013B022B43D909B0F0BD3B06F5780B
:1048400013D5002DF8D1FFF721FF03460028F3D040
:104850000122A5770274032202739C60FFF732FEE7
:1048600009B0BDE8F040FFF733BE55B1012DE3D1EB
:10487000FFF70CFF03460028DED06577057405734B
:10488000EBE7FFF703FF07460028D5D001230374A9
:1048900002238460037304F10C01B07806F0DAFDA2
:1048A000134AE168B2F88C328B4206D95B1AA2F83F
:1048B0008C3200F0BDFF3846D0E7A2F88C52FAE700
:1048C000304609B0BDE8F040FFF734BF01A800F062
:1048D00089FF9DF80530052B04D19DF8043013F0B5
:1048E000600FA9D0034B012405938CE702248AE7CB
:1048F000F03701205C3901202DE9F0438046A54CBA
:10490000DFF8949285B0FFF71BFE064610B905B09C
:10491000BDE8F08394F82530327C3BB9002A00F0E2
:10492000888071689C4809F055F9ECE7042A44D85E
:10493000DFE812F07F000500FE0014013E01337B2A
:10494000B568032B39D8DFE803F0023F5C616F697B
:1049500008220021384606F001FD904B9048D3F81C
:1049600080243A70D3F884247A70D3F88824D3F85A
:104970008C1442EA01227A80D3F89024D3F894145C
:1049800042EA0122BA80D3F89824D3F89C343946FD
:1049900042EA03230822FB80EA6006F0D4FC2B687D
:1049A0000021687A984797F90030002B08DBFB88D4
:1049B00033B1A4F88C3200F03BFF48467168B2E78F
:1049C0000023A4F88C32F8E76B7F002BF5D02B7F07
:1049D000002BF2D000274FF0FF326F774FF0FF33FC
:1049E00070482F7706F0E5FC6B6901A901936B68AD
:1049F000CDE90237687A00F027FC6A4806F0DBFC54
:104A0000DBE701212B68687A9847D6E7AB7A6BB968
:104A1000EB7F5BB963484FF0FF324FF0FF3306F096
:104A2000C8FC00F00BFF5F4806F0C5FC02212B68B4
:104A3000E9E7327A042AC0D8DFE802F055031F63A1
:104A40006F0000F077FB05460028B6D100F024FB8C
:104A500001235549D1E8EF2F002A03D1C1E8E03FF7
:104A60000028F7D1A9D141F8085C41F8105CE06951
:104A70001439636106F048F89FE7002565F07F0070
:104A8000C0B2FFF72DFD037A13B1407A01F03CF874
:104A90000135082DF2D194F854311BB194F8550129
:104AA00001F032F80025E8B2FFF71AFD037A13B1DE
:104AB000407A01F029F80135082DF4D194F87432C8
:104AC0001BB194F8750201F01FF8002000F016FBEE
:104AD000012384F825302368002B3FF46EAF0021BA
:104AE0000220984769E7002584F8255000F074FFFC
:104AF000FFF76EFD2368002B3FF45FAF29460420CB
:104B0000EFE7002B3FF459AF00F01EFB2368002BAA
:104B10003FF453AF00210520E3E72268002A3FF469
:104B20004CAF002B3FF449AF00210620904744E7EB
:104B300008F110054FF0FF334FF0FF32284606F022
:104B400038FCFFF761FD284606F035FC58F8283C94
:104B5000002B3FF432AF00210120C2E794F87432F9
:104B60007BB1012584F8895284F88852FFF78EFDC5
:104B700038B10E4A057405738260FFF7A3FCFFF796
:104B8000A7FC58F8283C002B3FF417AF00210A205F
:104B9000A7E700BFF0370120F82200200060035093
:104BA000F437012028380120103801205C3A012018
:104BB00003F074FF00F010FF00F064FAFFF758FDF7
:104BC000FFF722FD03F062FF014800F0E7FAF4E688
:104BD000DD47000038B5154D95F8244024BB05F19C
:104BE000380009F03CF8022001F0DCF822460121EF
:104BF000E8613620FFF79EFB03F048FFFFF704FD56
:104C0000044610B9012385F82430094B1B680BB109
:104C1000FFF75EFC074BD3F80034DB0702D500201A
:104C2000FFF76CFD204638BD0024FBE7F03701207C
:104C3000882300200070035010B54FF0FF324FF072
:104C4000FF330B4806F0B5FBFFF712FD00F072FAD8
:104C500008B100F0C1FE0024FFF7BAFC03F01EFF0C
:104C6000044880F82440383006F0A5FB204610BDEB
:104C700028380120F0370120074B93F824203AB15F
:104C800093F82530002B14BF00206FF012007047FE
:104C90006FF01200704700BFF037012038B5104B9D
:104CA000044693F82430C3B105782846FFF718FC72
:104CB00010B96FF0150038BD45722379837263888F
:104CC00043602078618810F0080F02D14B1E0B4220
:104CD000EFD106F0BAFB0020EDE76FF01200EAE733
:104CE000F037012038B5124B054693F82420CAB19D
:104CF00093F82530B3B1FFF7F3FB0446A8B1837AEC
:104D0000012B12D007D9023B012B07D90020636980
:104D1000E060A36138BD00F097FDF7E7284600F09A
:104D200035FDF3E76FF01200F4E76FF01500F1E7DF
:104D3000F037012038B50E4B054693F8242082B198
:104D400093F825306BB1FFF7CBFB68B115F0080481
:104D50000AD1284600F03CFD284600F00FFF20460F
:104D600038BD6FF01200FBE76FF01500F8E700BFE9
:104D7000F037012038B50C4B054693F824200C463B
:104D800062B193F825304BB1FFF7AAFB48B144B1AB
:104D9000284600F003FD2070002038BD6FF012009F
:104DA000FBE76FF01500F8E7F037012070B5134E00
:104DB000044696F82430C3B1FFF792FB0546B8B11C
:104DC000230705D4204600F003FD204600F0D6FE60
:104DD0002B7A83B901232B7296F825300BB900206A
:104DE00070BD204600F090FEF9E76FF01200F7E783
:104DF0006FF01500F4E76FF07700F1E7F03701206E
:104E00002DE9F043DFF8E4801E4698F82430074689
:104E10008946154685B0002B61D098F82530002BC7
:104E20005DD003065ED5FFF75BFB0446002859D032
:104E3000037A002B56D04FF0FF334FF0FF3208F1CA
:104E4000380006F0B6FAA37F4BB108F1380006F03F
:104E5000B2FA6FF00A04204605B0BDE8F083A37AE9
:104E6000C5B13BB301234FF00008A377384601A931
:104E7000CDE90195CDF80C8000F0E6F91C4B984285
:104E800029D084F81E801EBB6FF00404194806F078
:104E900092FAE0E7E27F02B1E577002BE2D100F081
:104EA000D9FCB842DED000F0C9FC124806F083FA03
:104EB0000024D0E7B8F80A30AB42F0D96268B5FBFD
:104EC000F2F302FB1353002BE9D10123E377E6E76A
:104ED000C6F80080D8E706B135600024D6E76FF049
:104EE0001204B8E76FF01504B5E700BFF0370120F2
:104EF0000000AD0B283801202DE9F0411D46204B64
:104F0000174693F824200E46002A33D093F8253014
:104F100083B3030631D401B97FBBFFF7E1FA04463E
:104F200058B3037A4BB34FF0FF334FF0FF321548BD
:104F300006F03FFAE368B8469F4228BF984646B954
:104F40003FB905B12B600F4806F035FA0020BDE8E7
:104F5000F08142463046A16906F0F5F9A369434461
:104F6000A361E368A3EB0803E360002DEBD0C5F871
:104F70000080E8E76FF01200E9E76FF01500E6E760
:104F8000F03701202838012070B51E4D034695F8F2
:104F9000242082B395F825206AB31B062ED4FFF790
:104FA0009FFA044650B3037A43B34FF0FF334FF0F8
:104FB000FF3205F1380006F0FCF9E368B3B90126C9
:104FC00063692677A361637F83B1FFF75FFB30B925
:104FD00005F1380006F0EFF96FF00B0070BD0674B4
:104FE00084600673FFF76EFAFFF772FA064806F060
:104FF000E2F90020F2E76FF01200EFE76FF0150022
:10500000ECE700BFF03701202838012010B5084B2D
:105010000C4693F824302BB1FFF762FA28B10460F4
:10502000002010BD6FF01200FBE76FF01500F8E7ED
:10503000F0370120014B1860704700BFF0370120A6
:1050400008B5074B93F8243023B1FFF749FA20B194
:10505000406808BD6FF01200FBE76FF01500F8E73D
:10506000F0370120064B10F0800FA3F1D80208BFE3
:105070001346182200F00F0002FB0030704700BFFB
:10508000984101200023024A1360024A13707047BE
:1050900078420120716801204FF40062114BC3F87F
:1050A00000240122C3F80025D3F800241205FBD503
:1050B0004FF40062C3F800248022C3F81C250122AB
:1050C000C3F8302540F2FF12074B1A600023074A4D
:1050D0001360074A1370074A13700222064B1A70B6
:1050E000704700BF006003507442012070420120ED
:1050F0006D6801206F680120716801200022094B52
:1051000010B51A70084A094B094C002808BF13460D
:105110003620C4F80033FFF7DDF80123C4F8043566
:1051200010BD00BF70680120FDFFDF01FDFFFF0122
:1051300000600350034B1878012894BF0020012021
:10514000704700BF7168012010B54FF02003EFF3E6
:10515000118183F31288BFF36F8F0E4B1B7803F01E
:10516000FF0083B10C4BD3F8002412F400720AD173
:105170000124C3F82C45D3F82C45D3F80044A405EA
:1051800002D5C3F82C25002081F31188BFF36F8F5F
:1051900010BD00BF7068012000600350F8B51C4BC3
:1051A0001C7894BB1B4A40F2FF1710600122264670
:1051B0001A7064F07F0514F0080FEDB214BF394681
:1051C0004021284606F041F92846FFF74BFF0134FD
:1051D000092C867506730661EBD1002440F2FF1797
:1051E000254614F0080FE6B214BF39464021304678
:1051F00006F02BF93046FFF735FF0134092C857591
:1052000005730561EDD10448F8BD0448FCE700BF13
:1052100071680120784201200000AD0B0500AD0B44
:10522000084B10F0800F14BFD3F81025D3F81425C5
:10523000012300F00F018B40134214BF0120002016
:10524000704700BF0060035002462DE9F8434FF05D
:105250002003EFF3118783F31288BFF36F8F0307E7
:1052600003D1194B1B7883422AD1184B10461C6876
:105270004FF00109E44306F0E0F8154EA4B235689A
:1052800009FA00F82C4314EA08041BD11046FFF772
:10529000E9FE034680F80C9007C983E807004FF445
:1052A00080021C619C750B4B45EA08050A48356075
:1052B000C3F8042187F31188BFF36F8FBDE8F8832B
:1052C0000648F7E70648F5E76F68012074420120B9
:1052D0007042012000E100E00000AD0B0A00AD0BC0
:1052E0000B00AD0B10F0080F074B06D0D3F8C0042D
:1052F00010F4803F18BF0020704700F00F0000F549
:10530000947053F820007047006003502DE9F74F68
:10531000A74BD3F8604134B10022C3F86021D3F821
:105320006C44C3F86C44D3F828214AB10022C3F876
:105330002821A04B187806F080F8012383401C43F5
:105340009D4F9E4E3D7897F9008015F0080141D1A0
:10535000B8F1000F05F00F032CDA994A52F8230038
:1053600010B342F823101422534303F1A04303F572
:105370005833D3F80836934A03F0010311784B40B1
:105380001370914803F012FF2846FFF76BFE837DF0
:10539000032B37D1284606F050F8012303FA00F01A
:1053A000336823EA000333600125DFF82092DFF839
:1053B00020825FE0874A52F823000028F4D042F8A8
:1053C00023101422534303F1A04303F55833D3F8B9
:1053D0000837D0E7B8F1000F754B09DBD3F850213F
:1053E000002AE1D00022C3F85021D3F8A837C2E741
:1053F000D3F82C21002AD7D00022C3F82C21D3F8CF
:10540000A836B8E7037BDBB9284606F016F8012377
:1054100003FA00F03368B8F1000F23EA00033360A9
:1054200001DA882DC0D106238DF8043000238DF8D1
:105430000730674B8DF806501B6801A89847B3E703
:10544000002DB1D101225A4BDA64ADE794FAA4F0F1
:10545000B0FA80F0D9F8002005FA00F31A430F28BB
:10546000C9F8002024EA0304326840F3B7801342ED
:1054700000F0C580002CE9D14D4BD3F800215AB182
:10548000C3F80041544B01A81C704A4B1C70012307
:1054900001934F4B1B689847454BD3F85421EAB111
:1054A0000022C3F85421D3F80413890216D58DF8CD
:1054B0000420D3F8202501A8ADF80620D3F8C03485
:1054C000002B14BF4FF001224FF48072D9F8003046
:1054D0001343C9F800303E4B1B689847344BD3F850
:1054E0005821002A2ED00022C3F85821D3F80044B6
:1054F000C3F80044E30508D50122374B01A81A7010
:1055000002230193324B1B689847A50508D500225A
:10551000314B01A81A70032301932D4B1B68984748
:1055200060050FD52C4B1A7862B100221A70012247
:105530001F4B01A8C3F808259A6504230193244B47
:105540001B6898471A4BD3F85C310BB31E4B9B6812
:1055500013B93B7859061BD00022154B01A8C3F89C
:105560005C21D3F88034134A23F07F03137033682F
:1055700023F001133360D9F8003023F4803343F073
:105580000103C9F8003005230193114B1B689847AC
:105590003268D9F800301A4207D0002200230A48A6
:1055A00003F028FE002800F09F8003B0BDE8F08FD4
:1055B000006003506F6801206E6801207042012076
:1055C000086103506D680120782300207442012097
:1055D00078420120306103507068012013407FF44D
:1055E00049AF062260F07F018DF804208DF8061087
:1055F0008DF80730D8F8003001A898473AE706231D
:10560000A0F110018DF804308DF806108DF80750C8
:10561000F0E718F0012314BF93FAA3F898FAA8F85A
:10562000B8FA88F8B8F10F0F18D9A8F11005EDB243
:105630002846FFF717FD04462846FFF753FE636828
:10564000B4F814C09842226830D81B1A00EB020E3E
:10565000114682466360C4F800E02AE048F0800505
:105660002846FFF7FFFC4368B0F814A001689A458C
:1056700028BF9A4601F06043B3F1005F044604D0AE
:1056800052463E4805F05FFE3C492268636852443A
:105690002260A268A3EB0A03D20768B2636033D525
:1056A000BAF1000F32D1002323732FE011464FF0DF
:1056B000000A604525D1003B18BF01231AB35045AD
:1056C00021D9012303FA08F32BEA030333600623ED
:1056D00002228DF804302A4BA2751B688DF8065003
:1056E0008DF8072001A89847D6F800B0D9F8003007
:1056F0001BEA03088DD1234803B0BDE8F04F03F047
:1057000055BD0023DAE768B2002BCCD00122D9F8CE
:10571000003002FA08F823EA0803C9F800302369C8
:1057200015F0080F534423613D70174B17D1002823
:105730004FF0140005F00F0500FB0530B5BF03EB7B
:1057400085030A35C0F80016C0F80017B5BFC0F8C9
:1057500004A6C0F804A75A6043F8252025E70028CE
:10576000B5BFC3F8A016C3F8A017C3F8A4A6C3F822
:10577000A4A7B4BF5A629A6417E700BF8040012013
:10578000784201207823002000600350024B40F44F
:105790008070C3F81805704700600350030713D4E6
:1057A00000F00F0310F0800F084A0BBF03F5887359
:1057B00003F5847302EB830252F8230008BF50689C
:1057C000003818BF01207047002070470060035068
:1057D000034BC3F80C0540F48070C3F80C05704708
:1057E0000060035010B504460822002105F0B6FD04
:1057F0000E4BD3F880242270D3F884246270D3F83F
:105800008824D3F88C1442EA01226280D3F89024D1
:10581000D3F8941442EA0122A280D3F89824D3F852
:105820009C3442EA0323E38010BD00BF00600350B4
:105830000122014BDA647047006003500122014BE2
:105840001A657047006003500122014B5A6570478A
:1058500000600350014B1878704700BF6F6801204B
:10586000024610B54FF02003EFF3118483F3128842
:10587000BFF36F8F05F0E1FD01230B4903FA00F040
:105880000B6823EA00030B6012F0080101BF02F06D
:105890000F02064B02F5947243F8221084F311882C
:1058A000BFF36F8F10BD00BF744201200060035032
:1058B000F7B501464FF02003EFF3118583F312880B
:1058C000BFF36F8FFFF7CEFB0646084605F0B5FD28
:1058D000012211F0800F02FA00F22E4818D103685D
:1058E00032EA03040AD00846FFF7BAFF0323B37570
:1058F00085F31188BFF36F8F03B0F0BD264923EA0B
:10590000020303600B68347323EA02030B60EDE7C4
:105910000B0715D48029214B2FD001F00F0404F27E
:10592000DA346400C3F80048D3F80448D3F80478A4
:10593000E4B244F002043C43C3F80448D3F804380A
:10594000154F04683B6864EA030C1CEA020FCFD0D1
:1059500013433B6000233373032324EA020406222B
:10596000B3758DF807300E4B04601B688DF804206A
:105970008DF8061001A89847BAE740F2B474C3F84E
:105980000048D3F80448D3F80478E4B244F004049F
:10599000D1E700BF70420120744201200060035033
:1059A0007842012038B50446094D4FF0FF324FF0E0
:1059B000FF33284603F01EFC2046FFF779FF2846F8
:1059C00003F0F4FB4FF48002024BC3F8042138BD0E
:1059D0007823002000E100E0F8B54FF0FF324FF0EF
:1059E000FF332A4803F006FC4FF48002284B362090
:1059F000C3F88421FEF790FC98B10127254E264B71
:105A000034681B68240C24041C4354BB40F2FF136D
:105A1000224D33603620C5F80445FEF769FCC5F811
:105A200000431F4A13788BB100211C4BC3F80811A7
:105A30000121C3F80026C3F804165960D3F80811F1
:105A40000029FBD00021C3F8081111700022134B6C
:105A5000C3F800250D4803F0A9FB0122114B1A7071
:105A6000F8BD94FAA4F5B5FA85F528460F2DC6BF02
:105A7000A5F11000C0B240F08000030701D4FFF789
:105A800017FF07FA05F524EA0504BEE7782300208E
:105A900000E100E0744201207042012000600350E8
:105AA0006D6801207168012010B504464FF0FF3287
:105AB0004FF0FF33114803F09DFB2046FFF7F8FE3F
:105AC000012304F00F029340DB430D4A14F0800FD2
:105AD00015BFD2F81015D2F814150B400B4014BFA7
