:02000004100EDC
:100000003DB8F3960000000000020000340C03002D
:1000100000000000020500000000000000000000D9
:10002000FFFFFFFFFFFFFFFFFFFFFFFFFFFFFFFFE0
:10003000FFFFFFFFFFFFFFFFFFFFFFFFFFFFFFFFD0
:10004000FFFFFFFFFFFFFFFFFFFFFFFFFFFFFFFFC0
:10005000FFFFFFFFFFFFFFFFFFFFFFFFFFFFFFFFB0
:10006000FFFFFFFFFFFFFFFFFFFFFFFFFFFFFFFFA0
:10007000FFFFFFFFFFFFFFFFFFFFFFFFFFFFFFFF90
:10008000FFFFFFFFFFFFFFFFFFFFFFFFFFFFFFFF80
:10009000FFFFFFFFFFFFFFFFFFFFFFFFFFFFFFFF70
:1000A000FFFFFFFFFFFFFFFFFFFFFFFFFFFFFFFF60
:1000B000FFFFFFFFFFFFFFFFFFFFFFFFFFFFFFFF50
:1000C000FFFFFFFFFFFFFFFFFFFFFFFFFFFFFFFF40
:1000D000FFFFFFFFFFFFFFFFFFFFFFFFFFFFFFFF30
:1000E000FFFFFFFFFFFFFFFFFFFFFFFFFFFFFFFF20
:1000F000FFFFFFFFFFFFFFFFFFFFFFFFFFFFFFFF10
:10010000FFFFFFFFFFFFFFFFFFFFFFFFFFFFFFFFFF
:10011000FFFFFFFFFFFFFFFFFFFFFFFFFFFFFFFFEF
:10012000FFFFFFFFFFFFFFFFFFFFFFFFFFFFFFFFDF
:10013000FFFFFFFFFFFFFFFFFFFFFFFFFFFFFFFFCF
:10014000FFFFFFFFFFFFFFFFFFFFFFFFFFFFFFFFBF
:10015000FFFFFFFFFFFFFFFFFFFFFFFFFFFFFFFFAF
:10016000FFFFFFFFFFFFFFFFFFFFFFFFFFFFFFFF9F
:10017000FFFFFFFFFFFFFFFFFFFFFFFFFFFFFFFF8F
:10018000FFFFFFFFFFFFFFFFFFFFFFFFFFFFFFFF7F
:10019000FFFFFFFFFFFFFFFFFFFFFFFFFFFFFFFF6F
:1001A000FFFFFFFFFFFFFFFFFFFFFFFFFFFFFFFF5F
:1001B000FFFFFFFFFFFFFFFFFFFFFFFFFFFFFFFF4F
:1001C000FFFFFFFFFFFFFFFFFFFFFFFFFFFFFFFF3F
:1001D000FFFFFFFFFFFFFFFFFFFFFFFFFFFFFFFF2F
:1001E000FFFFFFFFFFFFFFFFFFFFFFFFFFFFFFFF1F
:1001F000FFFFFFFFFFFFFFFFFFFFFFFFFFFFFFFF0F
:1002000050A50021EDAC0201A74A0301D9AC0201BF
:10021000D9AC0201D9AC0201D9AC02010000000046
:1002200000000000000000000000000081AE02019C
:10023000D9AC02010000000019AE0201D9AC0201E4
:100240009DB002019DB002019DB002019DB002016E
:100250009DB002019DB002019DB002019DB002015E
:10026000BF4E03019DB002019DB002019DB002018D
:100270008B4E03019DB002019DB002019DB00201B1
:100280009DB00201A54E03019DB002019DB0020187
:100290009DB002019DB002019DB002019DB002011E
:1002A0009DB002019DB002019DB002019DB002010E
:1002B0009DB002019DB0020100000000000000009E
:1002C000000000000000000000000000000000002E
:1002D000000000000000000000000000000000001E
:1002E000000000000000000000000000000000000E
:1002F00000000000000000000000000000000000FE
:1003000000000000000000000000000000000000ED
:1003100000000000000000000000000000000000DD
:1003200000000000000000000000000000000000CD
:1003300000000000000000000000000000000000BD
:1003400000000000000000000000000000000000AD
:10035000000000000000000000000000000000009D
:10036000000000000000000000000000000000008D
:10037000000000000000000000000000000000007D
:10038000000000000000000000000000000000006D
:10039000000000000000000000000000000000005D
:1003A000000000000000000000000000000000004D
:1003B000000000000000000000000000000000003D
:1003C000000000000000000000000000000000002D
:1003D000000000000000000000000000000000001D
:1003E000000000000000000000000000000000000D
:1003F00000000000000000000000000000000000FD
:10040000DEE61E284CBBCE8F023500003C0000000B
:10041000840B030001000000008800010088000137
:10042000FFFF02910000000000000000000000003B
:1004300000000000000000000000000053B94AB9AD
:10044000002908BF00281CBF4FF0FF314FF0FF30DC
:1004500000F00CB8ADF1080C6DE904CE1DF02EFDD6
:10046000DDF804E0DDE9022304B07047704700BF07
:100470002DE9F00791E8F807B2E802105B1854EB99
:100480000C04B2E802104D4156EB0C06B2E8021023
:100490004F4158EB0C08B2E8021059EB01095AEB36
:1004A0000C0A80E8F80780410130BDE8F00770478A
:1004B0002DE9F00791E8F807B2E802105B1A74EB37
:1004C0000C04B2E802108D4176EB0C06B2E8021083
:1004D0008F4178EB0C08B2E8021079EB01097AEB56
:1004E0000C0A80E8F80780414042BDE8F0077047F9
:1004F0002DE9F007524290E87800B1E880071740F4
:10050000DB1918EA020854EB080419EA020955EB52
:1005100009051AEA020A56EB0A0678C090E8780044
:10052000B1E8800717407B4118EA020854EB080441
:1005300019EA020955EB09051AEA020A56EB0A06FE
:1005400078C080410130BDE8F00770472DE9F00721
:10055000524290E87800B1E880071740DB1B18EAA8
:10056000020874EB080419EA020975EB09051AEA96
:10057000020A76EB0A0678C090E87800B1E88007B6
:100580001740BB4118EA020874EB080419EA020993
:1005900075EB09051AEA020A76EB0A0678C0804173
:1005A0004042BDE8F00770472DE9F00152424FF09C
:1005B000040890E8300091E8C000A31B1340E41A3F
:1005C000F618EB1B1340ED1AFF1830C0C0C1B8F18C
:1005D0000108EED1BDE8F001704700BF00B592E818
:1005E000DC072DE9DC07B1E8805702B4A7FB025114
:1005F0000A95A8FB020B09180020E7FB03105BEB30
:10060000000B00204041E9FB02B00B91A8FB035115
:10061000401800214941EAFB02011BEB050B0025B4
:10062000E7FB04B568410025E7FB060569410025A5
:100630006D41E8FB0615CDF830B0A9FB03B689196A
:100640000026EAFB0316754100267641ECFB0356B3
:1006500010EB0B005FF0000BE8FB040B51EB0B0100
:100660005FF0000BE9FB041B55EB0B055FF0000B83
:10067000EAFB045B56EB0B065FF0000B5BEB0B0B2E
:10068000ECFB046B0D90ACFB0230059C2D18002098
:10069000EEFB025046410020E9FB04605BEB000BDF
:1006A00000204041EAFB04B05B180021E7FB043165
:1006B0004D410021E8FB0451069C4E410021E8FB1E
:1006C00004615BEB010B0021E9FB04B1484100210F
:1006D0004941EAFB04010E93A7FB0432079CB618BC
:1006E0000022E7FB04625BEB020B0022E8FB04B292
:1006F00050410022E9FB0402514100225241EAFB31
:100700000412049CED180023E9FB04535E4100230E
:10071000EAFB0463089C5BEB030B0023E7FB04B3D9
:1007200058410023E8FB040359410023E9FB04136B
:100730005A4100235B41EAFB04230F955DF8049BBB
:1007400099E80006DDF80080A9FB08541BEB040BB8
:100750000024EAFB08B4DDF8108060410024ECFBC3
:10076000080461410024EEFB081462410024E9FB07
:100770000824634100246441EAFB0834DDF8048066
:1007800076190025EEFB08655BEB050B0025E9FB00
:1007900008B568410025EAFB0805DDF814806941C9
:1007A0000025ECFB08156A410025EEFB08256B418E
:1007B0000025E9FB08356C4100256D41EAFB084541
:1007C0000F96DDF80880AEFB087680190026E9FB5D
:1007D000080671410026EAFB0816DDF81880724110
:1007E0000026ECFB082673410026EEFB0836744118
:1007F0000026E9FB0846754100267641EAFB0856CB
:10080000DDF80C801BEB070B0027ECFB08B77841E9
:100810000027EEFB080779410027E9FB08177A411A
:100820000027EAFB0827DDF81C807B410027ECFB52
:1008300008377C410027EEFB08477D410027E9FB94
:1008400008577E4100277F41EAFB086708B000BDDA
:100850002DE9F14F87B0FFF7C1FEDDF81C8008F1EC
:10086000200888E8FF00FFBC87E87F08BDE8F08F1C
:1008700000B591E84C57A2FB02410194A2FB03454D
:1008800024190020E2FB06506D417F416418029458
:100890000021E2FB0801A3FB034B65410395002403
:1008A000E3FB060440417F41091900246441E2FB57
:1008B0000914FF0750EB0B0004900025E2FB0A45EA
:1008C0005FF0000BE3FB081B49415FEA370714EBBD
:1008D0000B045FF0000BE3FB094B55EB0B055FF0DE
:1008E000000B5BEB0B0BE2FB0C5BFF0F0020E2FB52
:1008F0000EB000225141E6FB061205910021E6FBF5
:10090000084164417F416D180021E3FB0A515BEB14
:10091000010B0021E3FB0CB1484100214941E3FBFD
:100920000E010023E6FB09531BEB030B0023E6FB40
:100930000AB358410023E6FB0C03594100235B41F5
:10094000E6FB0E13FF07544106946D417F41A8FB5F
:100950000826554107950022E8FB09B25BEB0B0B1B
:100960007F4180180022E8FB0A0251410022E8FB87
:100970000C125A4100235B41E8FB0E230024E9FBE3
:100980000E340025E9FB0A1552190025E9FB0C2558
:100990006B410025EAFB0C356C4100256D41EAFBFB
:1009A0000E45FF075BEB060B0026ECFB0E564041A5
:1009B000494152415B4164416D417641AEFB0EE8D5
:1009C00048F100087F00A9FB0979784151EB090142
:1009D000AAFB0A7A7A4153EB0A03ACFB0C7C7C41FC
:1009E00055EB0C0556EB0E0648F1000700BD00BFA5
:1009F0002DE9F14F87B0FFF73BFFDDF81C8008F1D0
:100A0000200888E8FF00FFBC87E87F08BDE8F08F7A
:100A100030B44FF0000310F8014B11F8015B013ABC
:100A200084EA050443EA0403F5D1A3F101034FEA84
:100A3000D37030BC704700BF4FF0000310F8012B9B
:100A4000013943EA0203F9D1A3F101034FEAD3705C
:100A5000704700BF30B411F8014B12F8015B6C40D5
:100A600000F8014B013BF6D130BC70472DE9F0078F
:100A700091E8F807B2E802105B1854EB0C04B2E8F6
:100A800002104D4156EB0C06B2E802104F4158EBF4
:100A90000C08B2E8021059EB01095AEB0C0A894123
:100AA000B3F1FF3374F1FF3475F1FF3576F10006D1
:100AB00077F1000778F1000879F101097AF1FF3A3E
:100AC00051F100015B184C414D4156F1000657F1C0
:100AD000000758F1000859EBD1795AEB010A80E878
:100AE000F807BDE8F00770472DE9F00791E8F8072F
:100AF000B2E802105B1A74EB0C04B2E802108D41EC
:100B000076EB0C06B2E802108F4178EB0C08B2E8E5
:100B1000021079EB01097AEB0C0A89415B184C4110
:100B20004D4156F1000657F1000758F1000859EB06
:100B3000D1795AEB010A80E8F807BDE8F007704761
:100B400018EB040859EB05095AEB060A5BEB070B97
:100B50005FF0000C4CF1000C18EB050859EB06098E
:100B60005AEB070A5BEB070B50EB0C005FF0000C35
:100B700051EB0C0152EB0C0263414CF1000CB8EB51
:100B8000070879F100097AF1000A7BEB040BA84110
:100B9000B141A241B3416CF1000CBBEB050BB0417C
:100BA000B941AA41BB416CF1000C4CF001068CF03C
:100BB000020718EB060859EB6C095AEB6C0A7BEB41
:100BC0006C0B70EB6C0471EB6C0572EB670653EB0E
:100BD0006C076CEB6C0C18EB0C0059EB0C015AEB2E
:100BE0000C025BF1000354F1000455F1000556EBD3
:100BF000DC7657EB0C0770472DE9F14F87B0FFF714
:100C0000EDFCDDF81080DDF81490DDF818A0FFF79A
:100C100097FFBDE8000FFFF793FF03B05DF8048B6B
:100C200088E8FF00BDE8F08F2DE9F14F87B0FFF7AE
:100C30001FFEDDF81080DDF81490DDF818A0FFF736
:100C40007FFFBDE8000FFFF77BFF03B05DF8048B6B
:100C500088E8FF00BDE8F08F2DE9F047A54D86B08C
:100C60000023C41DEA7B07460E4624F00704CDE9A5
:100C700002338DF80E206A7D2B788DF81020AA7D26
:100C80008DF809308DF811206B78EA7D8DF80A30E7
:100C90008DF81220AB782A7E8DF80B308DF813205A
:100CA000EB786A7E8DF80C308DF814202B7995F84E
:100CB00020208DF80D300AB18DF80F30002E02A9DA
:100CC0004FF000080CBF2046002000F00FFE95F802
:100CD00000906B780444C24699445FFA89F95FFA40
:100CE00088F34B45C0F0F3800334002E494652464A
:100CF00024F0030414BF0020204600F0E1FFA9788F
:100D0000044471B1E01CEB78EA7B002E20F0030470
:100D10001A4414BF002020466B89D2B201F0C0F8FB
:100D2000044495F821308BB1697A79B195F8223075
:100D3000E01C002B20F0030414BFFF222522002E0C
:100D40000CBF2046002001F099F90444297B81B1B1
:100D5000AB7823B995F821305BB16B7A4BB1E01DCC
:100D6000002E20F0070414BF0020204607F058FB97
:100D70000444614B1B685BB1297949B1E01C002E2A
:100D80006A7B20F0030414BF0020204698470444E7
:100D90005A4B1B6853B1A97B41B1E01C002E20F0D7
:100DA000030414BF0020204698470444544BD3F852
:100DB0000080B8F1000F0FD0E97B69B1E01C002E74
:100DC000AB7C20F0030418BF0020009308BF20462E
:100DD0006B7C2A7CC047044495F8203063B12979A4
:100DE00051B1E01C002E2A7D20F0030414BF002026
:100DF000204601F079F90444A87E68B103346B7E83
:100E0000A97D24F007041944334644F00404C9B210
:100E1000224601F0ADF90444E97E002961D0E01DCD
:100E2000002E4FF0FB0220F0070814BF00204046C0
:100E30001EF072F808EB00041EB9FB21404618F0C2
:100E4000A7FC297F00294ED06B7F002B4BD0E01DE3
:100E5000002E4FF48C7220F0070814BF002040468B
:100E60001EF05AF808EB00042B7E0334A97D687F3E
:100E700024F007041944334644F00404C9B222465E
:100E800001F068F904442EB94FF48A72297F404674
:100E900018F0A0FC6B6A13B106B96C622834A97F04
:100EA00089B1E01D002E42F2107220F0070514BF38
:100EB000002028461EF030F82C1826B942F2107196
:100EC000284618F08DFCE01B06B0BDE8F0872B7AB1
:100ED00008F10108EA79A97968791DF0E7FF8244F1
:100EE000FDE68846A8E7002ED4D13246314630468A
:100EF000CEE700BFF8070021440000214C0000218C
:100F0000480000218FB572B61A4B9D6AE5B9BFF350
:100F10004F8F1949194BCA6802F4E0621343CB6042
:100F2000BFF34F8F00BFFDE7B4FBF6F4D3B201323D
:100F3000002CF9D103F110026A4402F80C4C0A2487
:100F400033B901A8A847E2E7044600220A26EDE7E4
:100F5000013BDBB203F110020DEB0206C2B2B2FBA1
:100F6000F4F704FB17223032B0FBF4F006F80C2C37
:100F7000E6E700BFF807002100ED00E00400FA05F5
:100F80001FB5164C02A8237A8DF80930E3798DF845
:100F90000830A379ADF80C306379ADF80A3016F05B
:100FA00053FA18B1B8210320FFF7ACFF012301A8C1
:100FB0008DF804301FF0BAFA08B1BC21F3E7A07C29
:100FC00016F07AFA08B1BF21EDE7607C16F06EFAF0
:100FD00008B1C021E7E704B010BD00BFF807002149
:100FE00038B5054600283FD01CF07AFC10B94FF008
:100FF000FF3038BD19F002FAB0F5FA7FF7D81D4C72
:101000001D48A562002500F0CDFA20222946204681
:1010100084F82C5084F82D5084F8215084F8225004
:10102000656284F820501CF0EFFD1B2240F2011392
:10103000627140F21B3223800123E28040F20232CF
:10104000A37022811F22237562814FF40272A28154
:1010500044F601122282EFF3108472B601F0E4F834
:101060002CB962B62046C4E76FF01500C1E72846E8
:10107000BFE700BFF80700218195000110B50028E7
:1010800040F0A780564C94F82C30002B40F09E8006
:10109000A9B1002A6ED00139162900F29A80DFE842
:1010A00001F00C1A1D2D555D7633606371393F4C8C
:1010B000517B7E8C8F928386890013782370012167
:1010C0000020FFF7C9FDB0F5803F80F28580012345
:1010D00084F82D3010BD13786370F0E79378002BFF
:1010E00048D0D378002B45D013781A2B42D95378A7
:1010F0001A2B3FD91368C4F80530E0E71378E2787B
:10110000934237D3A370DAE71378A278934231D8A9
:10111000E370D4E71378A27893422BD8E373CEE739
:1011200013783BB35378013BDBB2F82B22D81388FA
:10113000927823822B4B9A70C1E71078E07416F0F6
:101140005FFCBCE71378ABB12375B8E7137894F86C
:1011500021200AB1012B0DD96372B0E71388638196
:10116000ADE713782371AAE794F82010137821B91A
:10117000012B04D86FF01500ACE7002BFAD01378E0
:1011800063739CE71378082BF4D8A37397E713884D
:10119000FF2BEFD8237392E7137863758FE71378EB
:1011A0000E2BE7D8A3758AE71378A37687E7137821
:1011B000E37684E71388A38381E71378E3757EE7FA
:1011C000137863767BE71378237678E74FF0FF3068
:1011D00080E76FF02C007DE76FF00B007AE700BF2F
:1011E000F80700210808002170B50D460646F0B149
:1011F000E9B111F007041AD100F006F9D0B1304678
:101200000E4E1CF0B1FB214686F82E002846FFF753
:1012100023FD16F021FC96F82E00716A16F01EFAD6
:10122000FFF7AEFE0123204686F82C3070BD6FF02C
:101230001500FBE74FF0FF30F8E700BFF80700218B
:1012400010B5084C94F82C302BB116F023FA94F812
:101250002E001CF0A5FB00F0F7FF002084F82C0006
:1012600010BD00BFF807002150B1074B03F1140275
:1012700053F8041B934240F8041BF9D10020704737
:101280006FF01500704700BF5C8B0301074B93F8AC
:101290002D2010B532B993F82C401CB916F070F916
:1012A000204610BD4FF0FF30FBE700BFF8070021DC
:1012B000074B93F82D2010B532B993F82C401CB988
:1012C00016F072F9204610BD4FF0FF30FBE700BF6B
:1012D000F807002110B50B4C94F82D307BB994F829
:1012E0002C3063B994F8223033B116F09BF9012306
:1012F000002084F8213010BD16F078F9F7E74FF0A0
:10130000FF30F8E7F8070021074B93F82D2010B5C0
:1013100032B993F82C401CB916F0E2F8204610BD03
:101320004FF0FF30FBE700BFF8070021074B93F8B1
:101330002D2010B532B993F82C401CB916F0C2F824
:10134000204610BD4FF0FF30FBE700BFF80700213B
:10135000074B93F82D2010B532B993F82C401CB9E7
:101360001FF02DF9204610BD4FF0FF30FBE700BF06
:10137000F8070021074B93F82D2010B532B993F8E8
:101380002C401CB91FF01EF9204610BD4FF0FF3055
:10139000FBE700BFF8070021074B93F82D2010B59D
:1013A00032B993F82C401CB91FF00FF9204610BD3C
:1013B0004FF0FF30FBE700BFF8070021074B93F821
:1013C0002D2010B532B993F82C401CB91FF0FFF84E
:1013D000204610BD4FF0FF30FBE700BFF8070021AB
:1013E00007C8024B83E80700002070472808002147
:1013F000014B5B68184700BF28080021014B9B6820
:10140000184700BF28080021034B586818B1986896
:10141000003818BF012070472808002173B5031D4C
:101420002D4D04462B60284605F0F2FA02280646A8
:1014300006D1294920461CF0BCFE304602B070BDE2
:10144000042842D12B78092B0AD0252B1ED02946FF
:1014500020461CF028FFB0F5817F2DD3722112E0C9
:1014600005213E201CF078FE0028F0D1EB7801A980
:101470002A79684643EA0223ADF800301DF081FA6C
:101480000028D0D053210820FFF73CFD1A213E2030
:101490001CF062FE0028DAD16B68694601A8C3F32C
:1014A0000F23ADF8043011238DF806301DF08BFAB0
:1014B0000028B8D06521E6E70028B4D0A1782078CC
:1014C0001CF04AFE0028B8D1ADE70828B5D1024982
:1014D00020461CF0A6FEB0E734080021074B4FF071
:1014E000FF3141F6FF72C3E9001205490022C1E94C
:1014F00000221F21C3E90212704700BF0000002133
:10150000380900213F280CD801380B4BC0F3421298
:1015100000F01F0053F8223023FA00F000F0010021
:101520007047FF2806D04038044BC0F3421200F049
:101530001F00EFE70120704700000021380900215B
:10154000074B0146006849681A4603C240F48C22E2
:101550001A6041F0107242F4FF625A60704700BF97
:10156000000000210246024B0068516803C3704727
:10157000380900210246024B0068516803C37047D6
:10158000080000210138064BC0F3421200F01F0092
:1015900003EB82039B6823FA00F000F00100704720
:1015A00000000021014B1860704700BF4009002176
:1015B00010B5FFF793FF1EF0B7F9034B04461B6805
:1015C00003B19847204610BD4009002138B5274B8C
:1015D0000446D3F8A022D3F8A412013106D1D3F8DF
:1015E000A8324FF6FF719BB28B423DD0D3073BD55B
:1015F0001E4DD5F8A422D5F8A832C4F80120A4F8CD
:101600000530C3F3072363F03F03A371D5F890328D
:10161000013323D0D5F8943201331FD0D5F8983256
:1016200001331BD0D5F89C32013317D0002000F0D5
:1016300077FF98B9D5F89002D5F89412D5F898228A
:10164000D5F89C32C4F80700C4F80B10C4F80F207A
:10165000C4F8133001230020237038BD102200216C
:10166000E01D1CF0D1FAF5E70023F4E70000FF01CC
:1016700070B5274D102200210446D5F8A0621CF059
:10168000C3FA10220021A0181CF0BEFAD5F880324F
:1016900001330BD1D5F88432013307D1D5F8883224
:1016A000013303D1D5F88C3201330BD0D5F8800249
:1016B000D5F88412D5F88822D5F88C322061616182
:1016C000A261E361002000F02BFF08B9F3071CD4EE
:1016D0000F4BD3F8902201320BD1D3F89422013270
:1016E00007D1D3F89822013203D1D3F89C220132DA
:1016F0000BD0D3F89002D3F89412D3F89822D3F8F1
:101700009C3220606160A260E360002070BD00BF79
:101710000000FF0170B50C88C27CA6B2C4F30E04B1
:10172000531D058804F118021D44825AADB21A44B3
:1017300043882A44013AB2FBF5F202FB054292B219
:101740009342044B8BBF3340B34313439BB20B8094
:1017500070BD00BF0080FFFF124B10B5E0B11A78DA
:10176000022A04D04FF483711720FFF7CBFB03222A
:101770001A70026812F0070102D040F20B11F3E771
:101780005C685A602244BDE81040026003F10C001E
:101790009A6030221CF038BA0122C3E901001A70A5
:1017A00010BD00BF4409002184462E482DE9F041B8
:1017B00090F800800E4608F0FD0EBEF1010F04D037
:1017C0004FF490711720FFF79DFB8C79082C02D9FC
:1017D0004FF49171F6E7CF79002F41D0022C2546C6
:1017E00007F10502416838BF0225530001EB4202B0
:1017F000691E6D420A444FF6FE712A40B5882544A1
:101800006442013D2C408C4202D940F22D11D9E7AF
:10181000B8F1030F21D100EB8C0CD31ADCF80C10BB
:1018200011B14FF49971CDE7CCF80C300A3303F8BD
:10183000087C23F80A4C03F807EC357A03F8065CB9
:1018400035682E0C23F8025C4FF6F07523F8046C13
:10185000013123F8025B8F42FAD807FB0422426071
:10186000BDE8F08144090021F8B51F4B1A78012A20
:1018700036D0032A04D04FF4A3711720FFF742FBA0
:10188000D3E90121914202D040F24911F5E70B2240
:1018900003F10C064FF0000C56F82210013A21B16A
:1018A0000F79FF2F17D181F804C0511CF4D1042205
:1018B00000201A70F8BD56F824502DB195F804E0B8
:1018C000BE4504BFAD784019013C002CF3DAFF2877
:1018D00004D9FA21D1E714460020F6E70871E4E7BD
:1018E000022258681A70E5E7440900212DE9FF47F4
:1018F0004A7806468B780C461344FF2B04D940F2F5
:101900005B111720FFF7FEFA0B78934202D940F2E1
:101910005F11F6E7DFF8D481009038B198F8003015
:10192000022B02D00020FFF7E1FF6846FFF714FF0B
:101930006F4A00270825637801A901924FF45A7273
:1019400038468DF80B30ADF808204FF0FF098DF8C0
:101950000A508DF80C70FFF727FF664A01A9A3789B
:10196000012001924FF47C728DF80B30ADF8082005
:101970008DF80A508DF80C70FFF716FF5E4A01A92A
:10198000E378022001924FF4A8728DF80B30ADF885
:1019900008208DF80A508DF80C90FFF705FF574A84
:1019A00001A923790320019290228DF80B30ADF824
:1019B00008208DF80A508DF80C90FFF7F5FE63793A
:1019C00001A94F4A04208DF80B3001230192A8226F
:1019D0008DF80C30ADF808208DF80A50FFF7E4FEC2
:1019E000A379484ACDE9027701928DF80A508DF823
:1019F0000B308DF80C901BB115F0F6FFADF8080018
:101A000001A90520FFF7D0FE3F4A0825E3794FF0F2
:101A1000FF090192802201A906208DF80B30ADF854
:101A2000082000278DF80C908DF80A50FFF7BCFEB7
:101A3000237A01A9354A07208DF80B300223019241
:101A400078228DF80C30ADF808208DF80A50FFF799
:101A5000ABFE2F4A01A9637A284601924FF4067221
:101A60008DF80B30ADF808208DF80A508DF80C7009
:101A7000FFF79AFE274A01A9A37A092001924FF4A1
:101A80009072DFF894A0ADF808208DF80B308DF837
:101A90000C904FF488798DF80A50FFF785FEE37AB1
:101AA00001A90A20CDF804A08DF80B30ADF80890FC
:101AB0008DF80A508DF80C70FFF776FE237B01A994
:101AC0000B20CDF804A08DF80B30ADF808908DF800
:101AD0000A508DF80C70FFF767FEFFF7C5FED8F8C7
:101AE0000400801B04B0BDE8F08700BF440900215A
:101AF000ADDB0101E15F0101E1240101DF910201A0
:101B00000D000201D1920201D5920201E9E3010127
:101B100055E301013DE40101EDE401014FF6FF73DE
:101B2000F0B503800546184B03EB8103D868C0B1BC
:101B300083784FF6F07C0679B6FBF3F203FB126272
:101B4000D7B239460C1D00EB4404B4F802E0E64578
:101B500009D00131B1FBF3F403FB1411C9B28F4278
:101B6000F0D10020F0BDFF29FBD09A1A0A44B2FB45
:101B7000F3F703FB172333449BB22B806380BDE84C
:101B8000F0401DF072B900BF44090021F8B51E4BAA
:101B9000054603EB8103DC6854B3B0F5706F04D3E2
:101BA00040F287211720FFF7ADF9014620461DF0CE
:101BB0003AF9FF28014604D02046BDE8F8401DF060
:101BC00054B9A0784FF6F076B5FBF0F300FB135351
:101BD000DBB219460A1D04EB42077F88B74209D0E1
:101BE0000131B1FBF0F200FB1211C9B28B42F1D10D
:101BF0000020F8BDFF29FBD08B4204EB42021CBF42
:101C00000023E3705580D7E744090021094B03EB1B
:101C10008103014610B5DC6820461DF004F9FF2859
:101C2000014604D02046BDE810401DF01EB900203A
:101C300010BD00BF44090021104B03EB8103014696
:101C400070B5DC68064620461DF0EDF8FF28054615
:101C500011D0014620461DF008F9E288238901468B
:101C6000304604EB450443EA024398474FF6F073CD
:101C70000020638170BD0320FCE700BF4409002100
:101C800038B50E4B0446827903EB8203D86808B955
:101C9000022038BD82784FF6F075E1799142F7D293
:101CA0004B1CE37100EB41035B89AB42F5D0A38091
:101CB0001DF0DBF820600020EBE700BF44090021A5
:101CC000F8B510F0030504460E46174603D08621EA
:101CD0001820FFF717F9B9B1114628461DF047F84B
:101CE000B20002F10C05054474B104F10C00074B7D
:101CF000002126721C608318606023601BF084FF43
:101D0000394620461DF033F82846F8BD80090021E9
:101D10002DE9F04FDFF8ACA087B007468846039363
:101D20009146DAF80030BDF840B01BB9A521182063
:101D3000FFF7E8F81A7A824240D95B6853F82030FE
:101D40000493002B3AD1039A0A2140461CF06EFE00
:101D50005A46C61C092148461CF068FEC41C26F0E1
:101D60000306DAF8003024F00304B6B21868A4B20F
:101D7000A119043189B205911DF024F80546F8B186
:101D8000059909234A464180214620F8044BCDF8A5
:101D900000B01CF05CFE2888039B424604303146AC
:101DA00000930A2328441CF052FEDAF8003004980D
:101DB0005B6843F8275007B0BDE8F08F0320FAE7CF
:101DC0000120F8E78009002138B5144D2B681BB9B4
:101DD000C6211820FFF796F81A7A82421CD95A6851
:101DE00052F82010C1B1002442F820404A881868F7
:101DF0001DF012F82A682346107AD9B2884203D817
:101E000010681CF0D2FF05E0516851F8231001332F
:101E10000029F2D0002000E0032038BD8009002115
:101E200038B5074D2B684BB938BD0134FFF7CCFFEF
:101E30002B68E0B21B7A8342F7D8F5E70024F7E776
:101E40008009002108B5094B1B681BB9EC2118203B
:101E5000FFF758F81A7A824205D95B6853F82000D8
:101E600000B1043008BD0020FCE700BF800900215C
:101E700008B50A4B1B681BB9FA211820FFF742F876
:101E80001A7A824207D95B6853F8200010B10388A0
:101E90000433184408BD0020FCE700BF800900217E
:101EA0001144F8B5C9B21C4C10F00305217003D0E1
:101EB0004E210920FFF726F81F2B17D89B009BB255
:101EC000033323F003039BB208B16060238128220F
:101ED00064684FF0010C4A438618EFB2B94212D839
:101EE000D01D03FB010323F00700F8BDFF2B4FEAD1
:101EF000430204D9FF339342E1DB93B2E0E77C2A4B
:101F0000FBDC7C23DCE710B184F800C0666001359F
:101F100028341E44E1E700BF84090021144A00214F
:101F200038B553681478C8B2844203D8A92109206F
:101F3000FEF7E8FF1846013128330578002DF2D06E
:101F4000002101241289051D81704470920881616D
:101F5000C16100F12001446821F8022B994245F843
:101F6000044B1444F8D100234361037038BD00BF13
:101F7000840900210A4B1B89B3F5FF7F4FEA9300C8
:101F800006D25A089B1A9BB2984238BF184670472F
:101F9000B3F5EE6F01D8FF22F4E740F27263F3E786
:101FA000840900212DE9F8434B7880460C4602F065
:101FB000040602F0FB07D3B1DFB12F4BD4F8049035
:101FC0001D89BFBB0123AD084A46211D637004F182
:101FD000280004F12003A761E76123F8025B98421F
:101FE00041F8042B2A44F8D10023636101E0002F5B
:101FF000E3D0002E4FF0FF0318BF0226A370A319F1
:102000001B7D032B03D1022F1CBF0136F6B2A3198F
:1020100001221A7506F10C02002304EB860624F84F
:10202000123072684046A370C8F80020A8F8043047
:10203000BDE8F883002114226170A0181BF0E4FDB4
:10204000B5F5FF7F0FD26B08ED1AADB209EB0502B3
:10205000C4F804902584A2606384C4F80C90A5841D
:102060002261E384C5E7B5F5EE6F4FF0FF03EBD9CE
:1020700040F27265EAE700BF840900212DE9F743C9
:102080001FFA82F804461FFA81F90F4616462E21E0
:102090004A4640461CF0CAFC05465CB12E23014668
:1020A00042462046CDF800901CF0D1FC034B1C604A
:1020B0001F715E71284603B0BDE8F08390090021CE
:1020C000024B5A7919791868FFF7D8BF9009002197
:1020D000014B1868704700BF90090021014B5879E7
:1020E000704700BF900900212DE9F74305460E46D1
:1020F000F720052190461CF099FCC41C24F0030431
:10210000A4B285B115F0030703D095211920FEF77D
:10211000F9FEDFF83C90C9F81050B5B2A9F81440A8
:10212000BBB29D4204D804FB06F003B0BDE8F083C7
:10213000B9F814C00523D9F81000F7222146CDF8CC
:10214000008007FB0C0001371CF081FCE8E700BFB2
:10215000A009002107B5CDE900230B46034902463B
:10216000081D1CF0FAFF03B05DF804FBB80900215C
:1021700013B5064CCDE900230B46024604F10801D5
:1021800004F10C001CF0E9FF02B010BDB8090021F9
:10219000024B0146D3E900201CF03EBEB8090021E5
:1021A000024B0146D3E902201CF036BEB8090021DB
:1021B0000122104B4FF0FF3000215A60C3F8080392
:1021C00003F580539A60C3F80012C3F80803C3F8FC
:1021D0000015C3F804259A60C3F80803C3F8001576
:1021E000C3F8042503F5805341F6F872C3F80825B7
:1021F000704700BF00D000410A4B4FF40052C3F8B3
:102200008020BFF34F8FBFF36F8FC3F880214FF44F
:102210008042C3F88020BFF34F8FBFF36F8FC3F8A6
:102220008021704700E100E008B5FFF7C1FFFFF72C
:10223000E3FF00F017F8034B41F6F872C3F80825E6
:1022400008BD00BF00F0004108B5FFF7B1FFFFF780
:10225000D3FF034B41F6F872C3F8082508BD00BF51
:1022600000F0004110B5054C20461EF0CAFE18B122
:1022700030211D20FEF746FE607010BDC809002108
:102280002DE9F0478046294E294C28481EF0BDFE16
:10229000054608B1FF23737001270023DFF89490EF
:1022A0006760C4F80031C4F80431C4F804852760BD
:1022B000D4F8003113B9D4F80431D3B1D4F80431CF
:1022C000002BEAD19DB97778FFB2032375704FF4E4
:1022D00000523046C4F80833174BC4F80451C4F810
:1022E0000051C3F880211EF09FFE002FCDD1BDE824
:1022F000F087D9F81030DB06DAD50F4B4FF40052D7
:10230000C3F88021EFF3108A72B60323C4F80433B4
:10231000D4F8003123B9D4F804310BB91EF08FFE84
:10232000BAF1000FC4D162B6C2E700BFC8090021EC
:1023300000D0004100ED00E000E100E0044B4FF66A
:10234000FF7200219A86DA8683F832101A87704766
:10235000CC090021044B4FF6FF7200219A86DA86E1
:1023600083F832101A877047CC090021054B9A8EEA
:10237000824205D100214FF6FF7283F832109A860F
:10238000704700BFCC090021014BD886704700BFC1
:10239000CC0900210A4A4FF6FF710346B2F834C057
:1023A0008C4503D0002210461A60704792F8321014
:1023B000012902D001201A6070470020704700BF39
:1023C000CC090021064B93F83220012A06D00122C5
:1023D000D98E104683F832209986704700207047C6
:1023E000CC090021014B1887704700BFCC090021A0
:1023F000074B0246B3F834C0198F8C4501D000203A
:10240000704793F832000028FAD00120136070471B
:10241000CC090021094B998E1A8F914201D00020DE
:1024200070474FF6FF7193F832209986002AF6D054
:102430000022012083F83220704700BFCC09002120
:10244000064B998E1A8F914201D00120704793F864
:102450003200B0FA80F04009704700BFCC0900217B
:10246000704700BF034648B9094B4FF0010C08689C
:102470008A88586003F804CB9A807047012800D0FE
:102480007047034A086889889372D0601182704748
:10249000080A002140B90C4A13781BB15068128910
:1024A00008608A8018467047012809D1064A937A45
:1024B000002BF7D0D068128A086018468A807047CF
:1024C00000231846704700BF080A002100B580EAC3
:1024D000020C1A78087891F805E050404A78604478
:1024E00093F801C082EA0C0291F802C00244987885
:1024F0008CEA000CC8789444DA7850400A7900EBF2
:102500000C0193F804C0587982EA0C038EEA0002A9
:102510000B44DA420CBF012000205DF804FB00BF31
:1025200010B9054B18787047012802D1024B987AF0
:1025300070470020704700BF080A00218C463222F5
:10254000064B00B50CF8032B8E4607CBCEF80300E4
:10255000CCF80410CCF808205DF804FB2C0A00210C
:1025600070B5224DE96AAC6A0B78A03403F003031E
:10257000032B1AD16B8E01202A8E0343207442F460
:1025800000626B866B6B2A869847E96A237E013B63
:1025900018BF012323764B7833B1D4E922320133BB
:1025A00042F10002C4E9223270BD002BEED04B781C
:1025B000002BEBD02A8E42F400622A86AA6B002AF6
:1025C000F2D0FB2B08D895F83C3063B16B6B00213F
:1025D0002020BDE87040184795F83D3043F01003C7
:1025E00085F83D3070BD01230370CFE7200A00213C
:1025F00010B5114C16F07AF815F0CAFB0021636B88
:10260000208E9847237E4BB9236C94F83D1094F8A4
:102610003E009847002384F8443010BD94E807003A
:1026200004F10C0383E807000222044904F11900B5
:1026300004F09AFBE8E700BF200A00213DAB00014F
:10264000034B93F8443003B97047FFF7D1BF00BF85
:10265000200A0021174A92F824307BB180B992F801
:102660004810C9060ED5FBB10021538E9B0713D528
:10267000536DDB78981E18BF012070470128EED0FB
:1026800000207047D16C906B0978C1F30011C1F143
:10269000010120B1002BE8D131B101207047B2F81F
:1026A00050000028F9D1F5E7508E003818BF0120FE
:1026B000704700BF200A002108B5094B93F8442059
:1026C000022A07D1DA7A42F00102DA72BDE8084044
:1026D000FFF78EBF40F23D212720FEF713FC00BF1D
:1026E000200A0021F8B5234C0646A56AE36C95F84C
:1026F000C32005F1A00794F85800E3620AB1031D56
:10270000D8B2FF2895F8691004D11EB995F8683041
:10271000994203D015F056FD97F823201AB3E06DC7
:1027200016F0D4FB94F82430E16D003BE06A18BF4A
:10273000012384F87830D7E92223C4E91C2315F05B
:10274000CDFA3EB995F8690010F00C0018BF2820AA
:1027500016F01AFC95F86810002016F079FC022398
:1027600084F84430F8BDE06A16F0B0FB15F010FBB9
:10277000E7E700BF200A002170B57F4C002382B03C
:10278000A56A8DF8053095F8C32005F1A00694F8E8
:1027900058300AB10433DBB2FF2B11D180B995F860
:1027A000693095F868108B4202D0FF2015F00AFDC1
:1027B000B37D032B00F2DA80DFE803F00520847498
:1027C00095F86810F1E794F8BA306C48ADF8063027
:1027D000A5F85830FFF70CFE002840F09A800DF164
:1027E00005020DF10601D4F8BC001CF079F9606512
:1027F00020B196F86130002B00F0A280604B1846A3
:102800006365F37DDB0003F00802037803F0F30354
:102810001343327E920002F00402134303F0EF02EE
:1028200003F00303032B027002D1C378022B12D0F2
:10283000D4F8BC001CF0D5F948B9606D027802F0FC
:102840000303032B07D0FFF7FBFD002871D1606D58
:10285000027842F01002027096F8223013B14378E9
:10286000002B43D116F032FB15F092FA666D04F09E
:1028700027FD20B1337803F00303032B5CD095F8D8
:102880006910012016F0E4FB626D01233D491088B8
:10289000927884F8C030A4F8480084F844308A70F4
:1028A00002B070BD3548FFF7A3FD002859D0606D18
:1028B000C3781B2BA5D1012105F1100015F0B8FC40
:1028C000606D9EE7B5F858300DF105020DF1060177
:1028D000D4F8BC00ADF806301CF002F960650028A1
:1028E0008FD140F2D6212720FEF70CFBE06D16F0C9
:1028F000EDFA94F82410E06DD6E92023B1FA81F6C0
:10290000616D7609C4E91C2384F8786015F0E6F956
:10291000ACE7638E8020616D43F08003626B638659
:1029200090470121606D7174C3781B2B7FF469AFF0
:10293000C2E7606D02788EE7012017F001FD9EE787
:102940009DF805302BB1BDF8061003F089FE606DCF
:1029500057E7038001218370606D03F0F3FC606D25
:10296000F1E740F2DF212720FEF7CCFA4FF43B716C
:102970002720FEF7C7FA00BF200A0021740A0021B1
:10298000A80A0021680A00212DE9F041444C82B0D8
:1029900006460F4694F84420A56A012A5FFA82F899
:1029A00005F1A00577D12B7C6BB1638E002104204B
:1029B00043F0040329746386636B984794F82430CA
:1029C0000BB185F81280616D0A7802F00302032AC8
:1029D00044D04B78EBB10223AB7595F8233023B389
:1029E000A36A93F8691094F824300139003B18BFAA
:1029F000012384F87830D5E92223C4E91C2394F814
:102A00005820072942D8DFE801F03E09410741413B
:102A1000413B0123AB75E0E74FF00308002143463B
:102A2000012000911F4915F0F5F8012F11D186B949
:102A3000D4F8C4303046984758B194F83D3043B983
:102A40003046FFF707FE20B902B0BDE8F041FFF7BE
:102A500049BE02B0BDE8F041FFF7CABDAB7D63B926
:102A6000638E022043F002036386636B9847616DB7
:102A70000B7803F00303032BABD10323AB75ACE757
:102A80004FF00208CAE74FF00008C7E740F2C5312F
:102A90000620FEF737FA40F25C412720FEF732FAB3
:102AA000200A0021800A00210C4B0D4A70B50D4C04
:102AB0001A6094F8443063B906460D4603F0FF02ED
:102AC000012104F18800227603F03CFCE664E56510
:102AD00070BDDF212720FEF715FA00BF500000214E
:102AE000E0B90001200A0021044A92F8443003F0C2
:102AF000FF000BB9107670470C207047200A0021A8
:102B0000024B012283F83C20704700BF200A0021BD
:102B10002DE9F04385B0C14C02AD85E8030094F87F
:102B200044100C98002940F0E581002B18BF002AC2
:102B300000F0E081002800F0DD8101F0FF06C4F81C
:102B4000C430206404F12403626384F83C6084F898
:102B50003D6084F8C86084F83E6084F8C060668692
:102B6000268695E8030083E80300A56A15F094FB28
:102B700015F00EF995F96C0005F1A00715F0A8FC09
:102B8000286A16F087F9A86915F0A8FC97F83300B1
:102B900015F0AEFC94F82430002B00F0B380042034
:102BA0001BF012F96A6941F64B539A4294BF4D20CB
:102BB000962015F0BDFA95F86910012015F0ACFECD
:102BC000002800F0B380964B186816F069F9288841
:102BD000FFF74EF9C4F8BC002888FFF733F9C4F8B2
:102BE000CC0095F877301BB9296F002940F0D380CD
:102BF000D7F89C30DFF82CC2D7F89000D7F89410A3
:102C0000D7F89820ACE80F00D7F8A030C4F8793096
:102C1000D7F8A430CCF80D3094F82430002B40F0D5
:102C20008880A36A93F8BD20263A012A40F2DD800D
:102C300093F8BE20262A00F0D88093F86880B8F177
:102C4000040F08BF4FF0080805F130094146484617
:102C500004F010FA414602F031FBAB8F024695F8C2
:102C600069104846934228BF134684F8BA3004F0EE
:102C7000FDF895F8691097F823900829B5F8448075
:102C800008BF042102F01AFBB9F1000F01D1043092
:102C900080B2404528BF40465FFA80F884F8D08073
:102CA00004F00EFB20B1B8F12B0F38BF4FF02B080A
:102CB00094F8241084F85880002940F0D58097F8C3
:102CC0002230002B00F0B880012395F8686084F86A
:102CD0007830013E6869D7E92023C4E91C2341F616
:102CE0004B53984294BF04200020072E00F2E98045
:102CF000DFE816F09B00EC00E7009A00E700E70031
:102D0000E700EE0003201BF05FF86A6941F64B53C1
:102D10009A4294BF4D20962015F00AFA95F8681053
:102D2000002015F0F9FD00287FF44DAF05B0BDE897
:102D3000F083A26A92F8BD30A3F1260101293BD9A4
:102D400092F8BE00262837D0A3F1210113460129AD
:102D500000F2CC80242840F08E8092F86E3192F8F8
:102D6000611092F868800B405A0700F18B8013F0D5
:102D7000010240F0B3809B077FF566AFB8F1040F06
:102D800000F08080B8F1080F7CD0B8F1010F18BFB7
:102D90004FF0020858E7B7F84E20BB8A93427FF401
:102DA00027AFB5F8742013440122A7F84E3095F8E8
:102DB000760017F0A1FA1BE792F8BE3392F868800C
:102DC000002B3FF441AFB8F1080F5BD0B8F1040F0E
:102DD00058D0082B56D0042B54D0B8F1010F01D095
:102DE000012B18D14FF001082EE793F81A2393F81E
:102DF0006880002A3FF428AFB8F1080F42D0B8F13C
:102E0000040F3FD0082A3DD0042A3BD0B8F1010F6F
:102E1000E8D0012AE6D04FF0020815E7200A002189
:102E200050000021800A0021032100220B46364970
:102E30000092FB2214F0EEFE0120FFF79DFC334BC5
:102E4000D3F8503523F00803032B58D00023B98A58
:102E500097F83320A360C4E900332B886180227186
:102E6000238005B0BDE8F08397F823306BB90120CB
:102E7000FFF738FCE3E792F86E3192F86880590763
:102E80007FF575AF4FF00808DEE695F8693001224E
:102E9000D7E92201013B84F87820C4E91C01072B03
:102EA0000FD8DFE803F005170E040E0E0E190326E7
:102EB00000213346424601200091134914F0AAFE36
:102EC000D5E740F2C5310620FEF71CF80121ACE73A
:102ED0000221AAE70126EBE70226E9E7B8F1080F8D
:102EE000D0D0B8F1040FCDD09046ADE624287FF4C1
:102EF000A4AE32E74FF4A8712720FEF703F84FF491
:102F0000FD712720FDF7FEFF800A002100800041AF
:102F100010B5184C94F84430EBB194F824308BB1D0
:102F200094F84430022B20D1A36AD3F8F00216F0B3
:102F300001F8A06A90F8773003F0FF020BB9036F35
:102F400063B910BD94F84430012BF2D040F20F2148
:102F50002720FDF7D7FFFFF74BFBEAE7114690F874
:102F60007600BDE8104017F0C7B940F213212720C2
:102F7000FDF7C8FF200A0021FFF73ABB014B187686
:102F8000704700BF200A0021014B93F8C000704732
:102F9000200A0021024B188EC0F38020704700BF2A
:102FA000200A0021014B93F8C8007047200A002135
:102FB0002DE9F0411E4F820782B00546BC6A0E46DD
:102FC00004F1A00411D4EB070CD5217ED4E9223200
:102FD000013342F100020129C4E922320CBF00236F
:102FE0000123237602B0BDE8F081BB6BDBB1B7F8FB
:102FF00050201846F96A033291F801801AF08EFDCC
:103000000DF1020201A9F862D7F8CC001BF0A2FE74
:1030100001981BF089FE012230604146D7F8CC00B0
:103020001BF02EFECFE740F24D412720FDF76AFF4F
:10303000200A00212DE9F047002386B0B54C064652
:103040008DF80F300F46A56ACDE9043394F844306B
:10305000A035022B5FFA83F840F0B281238E13F083
:10306000400106D1636B40209847238E43F0400314
:103070002386002E5AD095F82330002B40F02B8168
:10308000D4F82CA09AF8011089B2A4F850100029A5
:1030900040F038810023A3639AF80000238EE97D75
:1030A000C0F3800243F480739142238600F0DF80F6
:1030B000A26A94F8241002F1A00999F81620EAB146
:1030C000022A00F06381002389F8163021B199F8B3
:1030D0001220002A40F04F8199F81130002B40F067
:1030E000268199F81730D4F82CA0012B0CBF0023AF
:1030F000012389F81730238E9AF8000043F4806288
:10310000C0F3C0034FF0000922862A7E9A4200F0E5
:10311000B58004F0D5F8C0B19AF8003003F003038D
:10312000032B12D1012017F00BF90EE095F82320A4
:10313000002A40F0CC8043F400734FF0000923864E
:1031400094F8C830013384F8C83095F822305BB366
:1031500094F8243041F64B52B3FA83F35B0984F8B8
:103160007830A36A586993F86810904294BF04209D
:1031700000200139D5E92023C4E91C23072900F2E6
:10318000F280DFE811F0A1000800F0009E00F000DE
:10319000F000F0000A004FF00108002243465E49AB
:1031A0000092FB2214F036FD002F49D194F8C8306C
:1031B000012B45D8D4F8C4300120984700283FD0CF
:1031C00094F83D30002B3BD10120FFF743FA07462E
:1031D000002835D1FFF7D0FA9DF80F30002B36D1FB
:1031E000B9F1000F08D094F82430002B60D1B4F866
:1031F00009300133A4F8093076B3B4F80530002261
:10320000013384F8C820A4F80530444805F008F8D4
:10321000049840B11BF088FDA16A00230822013008
:10322000037203F081FD059B33B1A16A00201022D7
:103230001872059803F078FDA7B906B0BDE8F087CD
:1032400015F070FF9DF80F300127002BC8D005A99D
:103250000220FFF7ADFEC3E7B4F807300133A4F84E
:103260000730D2E7FFF7C4F906B0BDE8F087C0F336
:10327000C0032A7EB1469A427FF44BAF04F020F897
:1032800000284DD0D4F82CA09AF8003003F00303A6
:10329000013B012B44D89AF8012094F8D0309A428F
:1032A0003ED994F83D3043F0100384F83D3030E7C8
:1032B000B4F80530B4F80710AA8A0B4313439BD027
:1032C00095E74FF0030868E74FF0000865E714F052
:1032D000DDFD238E2FE714F09FFD14F081FDD4F85F
:1032E0002CA09AF8011000287FF4CEAE00293FD020
:1032F0009AF800302A7EC3F3C0039A425AD089B2AA
:10330000A4F85010D4F8CC001BF08CFCD4F82CA0FE
:10331000A063C1E6200A0021800A0021440A00219E
:103320000DF10F00FFF71CF9D4F82CA0F1E64FF0D7
:10333000000A89F811A0FFF76DF800284AD0638EC3
:103340005146082043F008036386636B9847D9F819
:1033500080300133C9F88030D9F8843043F100035C
:10336000C9F88430BDE640F2C5310620FDF7CAFD3C
:10337000A4F850108EE6194689F81230638E10209A
:1033800043F010036386636B9847A5E604A9D4F85D
:10339000BC001BF0C7FBC0B1D9F8803094F82410F2
:1033A0000133C9F88030D9F8843043F10003C9F8FB
:1033B000843088E6012384F83E30FFF719F93CE7B2
:1033C00040F2CF412720FDF79DFD40F2CB31272071
:1033D000FDF798FD40F2E2312720FDF793FD00BF95
:1033E000B9AC000135B6000189AF000141AC000164
:1033F0006E4B2DE9F0475A781C18013A94F802C137
:10340000D2B282425A7036D168B393F80221624533
:103410002FD0012827D093F80321624529D0022814
:1034200021D093F80421624523D003281BD093F8C0
:10343000052162451DD0042815D093F80621624568
:1034400017D005280FD093F80721624511D0062820
:1034500009D093F8082162450BD0072803D093F8D0
:103460000921624505D01A78013AD2B294451A7002
:1034700043D1BDE8F0871101060100EB4000B71C05
:1034800082364FEA400E881C82311D1853F800A086
:10349000D8190EF5857ED5F80490D5F80880ED682A
:1034A00043F807A0C0F80490C0F80880C560581819
:1034B00053F8018002EB4201D0F804901A44876867
:1034C0004900C568981943F8068001F58571C0F870
:1034D00004908760C56092F8020184F802015818D0
:1034E000595843F80E1003EB0E018088888092F83B
:1034F0003A21587884F83A2186E7C2EBC202CCEB35
:10350000CC0102F5A97201F5A9719C581A4458180A
:103510005C50918894795A78818084711978002A56
:10352000A7D093F80201884231D0012AA1D093F8A4
:10353000030188422DD0022A9BD093F804018842CF
:103540002BD0032A95D093F80501884223D0042A72
:103550008FD093F80601884221D0052A89D093F8AC
:10356000070188421FD0062A83D093F808018842B9
:1035700017D0072A3FF47DAF93F809218A427FF4E0
:1035800078AF0722134483F802C1BDE8F087002218
:10359000F8E70122F6E70322F4E70222F2E7042229
:1035A000F0E70622EEE70522ECE700BFF40A00216F
:1035B000F0B52B4D89B095F88A416E4605F5C67178
:1035C000304622461AF0AAFA54B13219002412F8F1
:1035D000013D83F0010396421C44E4B2F7D10CB9DB
:1035E00009B0F0BD02AE04EB4401013C3046C9B263
:1035F000FDF704FF95F894715FFA84FC19484FF0C9
:10360000010E0CEB4C0CB44407F120030DEB03024C
:103610003B4612F8201C71B195F88A110133B3FBB7
:10362000F1F201FB123303F120026A4412F8204C3C
:10363000002CF3D1DFB203EB4301BCF8004002F8E9
:1036400020EC445229449CF8022081F89A212B4412
:10365000B445ACF1030283F88CE1C1D09446D3E7C2
:10366000F40A00218C0C002170B505468CB00C4684
:10367000002A52D02E4890F89431C11891F88C212C
:10368000002A4FD003EB430290F88AC101334FF078
:10369000000E024492F89861E670B3FBFCF60CFB56
:1036A000163380F8943192F89931237192F89A3157
:1036B000637181F88CE190F8B83143B36379EC46DB
:1036C00003F03F0343F0400363718DF81D30002386
:1036D000286806938DF81C306968AA68CDE9043320
:1036E000E3788DF81F3023798DF81E30EB68ACE855
:1036F0000F006846FEF7C4FD9DF82F109DF82E20A0
:103700009DF82D3021706270A3700CB070BD094916
:1037100000F5D87003F0C8FAD0E703216018FDF770
:103720006DFECBE74FF480712820FDF7EBFB00BF67
:10373000F40A0021B1BB0001044B5A78824203D93C
:10374000184490F84A01704700207047F40A00219D
:10375000044B5A78824203D9184490F842017047CA
:1037600000207047F40A0021064B00224FF46171DB
:103770001A8083F8B92183F8BA21A3F8BC1183F821
:10378000B8217047F40A0021014B83F8BA01704751
:10379000F40A0021014B93F8BA017047F40A0021A2
:1037A000D34B2DE9F0431C78002C00F0368191F8C2
:1037B00000C091F8018093F8545193F8536188EA5E
:1037C000050593F855918CEA060691F804E0354416
:1037D00093F85261464035448E7886EA090909EB30
:1037E0000507CD7893F8569185EA0909B9444F79D0
:1037F00093F857118EEA0101894493F858117940E2
:1038000011EB090100F00D81012C00F0068193F805
:103810005B1193F85A9188EA01018CEA090949443D
:1038200093F8599180EA0909494493F85C9186EA32
:103830000909894493F85D116940894493F85E1140
:103840008EEA0101494493F85F9187EA090919EB6F
:10385000010F00F0E580022C00F0DF8093F8611189
:1038600093F862918CEA010188EA0909494493F8C6
:10387000609180EA0909494493F8639186EA09094D
:10388000894493F864116940894493F865118EEA7C
:103890000101494493F8669187EA090919EB010F80
:1038A00000F00381032C00F0B88093F8681193F8BE
:1038B00069918CEA010188EA0909494493F8679102
:1038C00080EA0909494493F86A9186EA090989441A
:1038D00093F86B116940894493F86C118EEA0101E9
:1038E000494493F86D9187EA090919EB010F00F03B
:1038F000DE80042C00F0918093F86F1193F87091A2
:103900008CEA010188EA0909494493F86E9180EA3A
:103910000909494493F8719186EA0909894493F8A1
:1039200072116940894493F873118EEA0101494488
:1039300093F8749187EA090919EB010F00F0BC8034
:10394000052C6AD093F8761193F877918CEA0101EF
:1039500088EA0909494493F8759180EA09094944BC
:1039600093F8789186EA0909894493F879116940B6
:10397000894493F87A118EEA0101494493F87B91C6
:1039800087EA090919EB010F00F09B80062C44D04F
:1039900093F87D1193F87E918CEA010188EA090978
:1039A000494493F87C9180EA0909494493F87F914E
:1039B00086EA0909894493F880116940894493F89B
:1039C00081118EEA0101494493F8829187EA09093D
:1039D00019EB010F7AD0072C1FD093F884118CEAD1
:1039E000010C93F8851188EA010893F88311C44407
:1039F000484093F8861160444E4093F88711304454
:103A00004D4093F8881128448EEA010E93F88911ED
:103A100086444F4017EB0E0F45D00120BDE8F083E0
:103A2000012158780028F8D093F802418C4240D008
:103A30000128F2D093F803418C423FD00228ECD009
:103A400093F804418C423ED00328E6D093F8054118
:103A50008C423DD00428E0D093F806418C423AD005
:103A60000528DAD093F807418C4237D00628D4D005
:103A700093F808418C4234D00728CED093F80941FE
:103A80008C4231D00828C8D90821084602B11070EC
:103A90000B4493F83A2193F84A01012A08BF40F0F9
:103AA0000100BDE8F0830721BBE70221B9E703214C
:103AB000B7E700210846E9E70421B2E701210846FB
:103AC000E4E70521ADE702210846DFE70621A8E784
:103AD00003210846DAE704210846D7E7052108460E
:103AE000D4E706210846D1E707210846CEE700BF04
:103AF000F40A00212DE9F84FCA4C1746984625785C
:103B0000002D00F04A810E7894F853A194F852C128
:103B100086EA0A0A91F801E080EA0C0C91F802901A
:103B2000CA78E24494F854C10B798EEA0C0C94F8EC
:103B300058B1E24494F855C189EA0C0CD44494F885
:103B400056A182EA0A0AD44494F857A183EA0A0AE1
:103B5000E24491F805C08CEA0B0B1BEB0A0A00F05B
:103B60002581012D00F0608194F85BA18EEA0A0B9B
:103B700094F85AA186EA0A0ADA4494F859B180EA1C
:103B80000B0BDA4494F85CB189EA0B0BDA4494F835
:103B90005DB182EA0B0BDA4494F85EB183EA0B0B59
:103BA000DA4494F85FB18CEA0B0B1BEB0A0F00F0C0
:103BB000A981022D00F0388194F862A18EEA0A0BE7
:103BC00094F861A186EA0A0ADA4494F860B180EABE
:103BD0000B0BDA4494F863B189EA0B0BDA4494F8DE
:103BE00064B182EA0B0BDA4494F865B183EA0B0BFB
:103BF000DA4494F866B18CEA0B0B1BEB0A0F00F069
:103C00008381032D00F0108194F868A186EA0A0BE5
:103C100094F869A18EEA0A0ADA4494F867B180EA56
:103C20000B0BDA4494F86AB189EA0B0BDA4494F886
:103C30006BB182EA0B0BDA4494F86CB183EA0B0B9C
:103C4000DA4494F86DB18CEA0B0B1BEB0A0F00F011
:103C50005D81042D00F0E88094F86FA186EA0A0BDC
:103C600094F870A18EEA0A0ADA4494F86EB180EAF8
:103C70000B0BDA4494F871B189EA0B0BDA4494F82F
:103C800072B182EA0B0BDA4494F873B183EA0B0B3E
:103C9000DA4494F874B18CEA0B0B1BEB0A0F00F0BA
:103CA0003781052D00F0C08094F876A186EA0A0BD2
:103CB00094F877A18EEA0A0ADA4494F875B180EA9A
:103CC0000B0BDA4494F878B189EA0B0BDA4494F8D8
:103CD00079B182EA0B0BDA4494F87AB183EA0B0BE0
:103CE000DA4494F87BB18CEA0B0B1BEB0A0F00F063
:103CF0001181062D00F0988094F87DA186EA0A0BC8
:103D000094F87EA18EEA0A0ADA4494F87CB180EA3B
:103D10000B0BDA4494F87FB189EA0B0BDA4494F880
:103D200080B182EA0B0BDA4494F881B183EA0B0B81
:103D3000DA4494F882B18CEA0B0B1BEB0A0F00F00B
:103D4000EB80072D00F0EA8094F884114E4094F83F
:103D500085118EEA010E94F883117644484094F858
:103D60008611064489EA01010E4494F887114A40FD
:103D700094F8881132444B40134494F889218CEA1A
:103D8000020C1CEB030F00F0D0806378072B40F28D
:103D9000CE8007252846BDE8F88F6378072BF8D832
:103DA00001232A46237040F2531349E055466378B5
:103DB000002B4FD094F80221AA4200F09F80012BE3
:103DC00048D094F80321AA4200F09880022B41D0F9
:103DD00094F80421AA4200F09180032B3AD094F881
:103DE0000521AA4200F08A80042B33D094F80621E2
:103DF000AA4200F08380052B2CD094F80721AA4218
:103E00007CD0062B26D094F80821AA4276D0072B26
:103E100020D094F80931AB420CBF12250725284663
:103E2000BDE8F88FF40A00216378072BB1D86B1C2A
:103E3000072D23707DD8C5EBC503EA0003F25313A9
:103E40000E68521BE6502344898822449980637887
:103E500082F852011E015A1C394604EB0309B01CBA
:103E600062701022204401F05DF906F182001022F8
:103E70004146204401F056F91021404601F0E6F891
:103E800003461021384689F8423101F0DFF86678A0
:103E9000002389F84A01701E89F8025189F83A31E5
:103EA000C0B206B300F5A17224491E46224412F89E
:103EB000013983F001038A423344DEB2F7D100F5C1
:103EC000A5701F4B0022204410F8011981F0010158
:103ED00098420A44D2B2F7D1012E04D8002A0CBF6E
:103EE0003346731CDEB2002084F88A61054684F8EC
:103EF0009401FFF75DFB2846BDE8F88F12252846A0
:103F0000BDE8F88F012552E7022550E703254EE76B
:103F100004254CE705254AE7062548E76378072B83
:103F20003FF638AF0823237085E707253FE70135C3
:103F3000257069212820FCF7E5FF00BF350C002122
:103F40003D0C0021C94B1A78002A00F038812DE978
:103F5000F04191F800C04F7893F8544193F85351D1
:103F60007C4093F855818CEA050591F804E02C44D7
:103F700093F8525145402C448D7885EA080808EBA7
:103F80000406CC7893F8568184EA0808B0444E7948
:103F900093F857118EEA0101884493F85811714043
:103FA00011EB080100F00D81012A00F0058193F862
:103FB0005A1193F85B818CEA010187EA08084144B1
:103FC00093F8598180EA0808414493F85C8185EAB6
:103FD0000808884493F85D116140884493F85E11A5
:103FE0008EEA0101414493F85F8186EA080818EBE4
:103FF000010F00F02081022A00F0DE8093F86111A9
:1040000093F862818CEA010187EA0808414493F839
:10401000608180EA0808414493F8638185EA0808D2
:10402000884493F864116140884493F865118EEADE
:104030000101414493F8668186EA080818EB010FF4
:1040400000F0FB80032A00F0B78093F8681193F822
:1040500069818CEA010187EA0808414493F8678185
:1040600080EA0808414493F86A8185EA0808884490
:1040700093F86B116140884493F86C118EEA01014A
:10408000414493F86D8186EA080818EB010F00F0AF
:10409000D680042A00F0908093F86F1193F8708115
:1040A0008CEA010187EA0808414493F86E8180EAAE
:1040B0000808414493F8718185EA0808884493F818
:1040C00072116140884493F873118EEA01014144F2
:1040D00093F8748186EA080818EB010F00F0B380AA
:1040E000052A69D093F8761193F877818CEA01015B
:1040F00087EA0808414493F8758180EA080841443A
:1041000093F8788185EA0808884493F8791161402A
:10411000884493F87A118EEA0101414493F87B8137
:1041200086EA080818EB010F00F09180062A43D0B8
:1041300093F87D1193F87E818CEA010187EA0808E3
:10414000414493F87C8180EA0808414493F87F81D8
:1041500085EA0808884493F880116140884493F800
:1041600081118EEA0101414493F8828186EA0808B0
:1041700018EB010F6FD0072A1ED093F884218CEA28
:10418000020C93F88521574093F88321BC4450409A
:1041900093F886216044554093F887212844544081
:1041A00093F8882120448EEA020E93F889218644F0
:1041B000564016EB0E0F3CD00020BDE8F0811046B3
:1041C00070470A4658780028F7D093F802119142B8
:1041D00037D00128F0D093F80311914235D002284E
:1041E000EAD093F80411914233D00328E4D093F835
:1041F0000511914231D00428DED093F80611914286
:104200002DD00528D8D093F80711914229D006283F
:10421000D2D093F80811914225D00728CCD093F83A
:1042200009319342C8D10720FFF7E2F80120BDE829
:10423000F0810722C6E70122C4E70222C2E7032277
:10424000C0E70020F0E70422BCE70120ECE70522EC
:10425000B8E70220E8E70622B4E70320E4E70420F9
:10426000E2E70520E0E70620DEE700BFF40A0021D0
:10427000084B5878013840B2002809DB10B5C4B2A9
:104280002046FFF7B5F8601E40B2431CF7D110BDC1
:10429000704700BFF40A0021014B83F8B901704751
:1042A000F40A0021014B93F8B9017047F40A002188
:1042B000421E4AF2B711034692B28A4204D8034A18
:1042C0000120A2F8BC31704700207047F40A002199
:1042D000014BB3F8BC017047F40A0021C74B2DE92C
:1042E000F0431F78002F00F0338191F800C04E7822
:1042F00093F8542193F8534172408D788CEA04046A
:1043000093F8559193F85681224493F8524185EAE7
:10431000090991F804E044402244CC7849794A44A0
:1043200084EA080808EB020993F857818EEA08022C
:1043300002EB090893F858214A4012EB080200F0FA
:104340000A81012F00F0048193F85B2193F85A81D0
:1043500072408CEA0808424493F8598180EA0808C0
:10436000424493F85C8185EA0808904493F85D2103
:104370006240904493F85E218EEA0202424493F830
:104380005F8181EA080818EB020F00F01C81022F00
:1043900000F0DE8093F8612193F862818CEA0202DA
:1043A00086EA0808424493F8608180EA080842449B
:1043B00093F8638185EA0808904493F86421624089
:1043C000904493F865218EEA0202424493F8668194
:1043D00081EA080818EB020F00F0F780032F00F0C5
:1043E000B78093F8682193F869818CEA020286EA23
:1043F0000808424493F8678180EA0808424493F829
:104400006A8185EA0808904493F86B2162409044E1
:1044100093F86C218EEA0202424493F86D8181EA9E
:10442000080818EB020F00F0D480042F00F09080F1
:1044300093F86F2193F870818CEA020286EA0808EB
:10444000424493F86E8180EA0808424493F87181EF
:1044500085EA0808904493F872216240904493F8EA
:1044600073218EEA0202424493F8748181EA0808BB
:1044700018EB020F00F0B180052F69D093F8762178
:1044800093F877818CEA020286EA0808424493F89E
:10449000758180EA0808424493F8788185EA080823
:1044A000904493F879216240904493F87A218EEAFF
:1044B0000202424493F87B8181EA080818EB020F5C
:1044C00000F08F80062F43D093F87D2193F87E81F2
:1044D0008CEA020286EA0808424493F87C8180EA6A
:1044E0000808424493F87F8185EA0808904493F8CD
:1044F00080216240904493F881218EEA0202424476
:1045000093F8828181EA080818EB020F6DD0072F1B
:104510001ED093F884218CEA020C93F88521564032
:1045200093F88321B444504093F886216044554069
:1045300093F887212844544093F8882120448EEA38
:10454000020E93F889218644514011EB0E0F38D0AA
:104550000820BDE8F08310465A78002AF8D093F876
:104560000211814233D0012AF2D093F80311814223
:1045700031D0022AECD093F8041181422FD0032AC3
:10458000E6D093F8051181422DD0042AE0D093F8AB
:10459000061181422BD0052ADAD093F80711814207
:1045A00027D0062AD4D093F80811814223D0072AB5
:1045B000CED093F80931834214BF08200720BDE80C
:1045C000F0830720C8E70120C6E70220C4E70020E7
:1045D000BFE70320C0E70120BBE70420BCE70220BF
:1045E000B7E70520B8E70320B3E70620B4E70420C7
:1045F000AFE70520ADE70620ABE700BFF40A0021D6
:1046000010B40D4C6378834202D8002010BC704770
:10461000204490F80231C3EBC303E01803F25313B4
:1046200090F852010870E118E358012010BC1360A3
:104630008B889380704700BFF40A002170B506464E
:104640000D4614F0EBFC13F051FA0A4B93F8B94104
:1046500014B1597811B90C46204670BD981C8233AC
:104660003246002D08BF184613F00CFA13F064FA16
:10467000204670BDF40A002108B513F073FA08B99A
:10468000082008BDBDE8084013F0A2BA13F06ABACA
:104690008C460246012108B5054B03EB0C1303F1D0
:1046A000820013F0EFF9BDE8084013F045BA00BFEF
:1046B000F40A0021074B10B593F8B94114B15978A9
:1046C00011B90C46204610BD0246981C13F0DAF9C9
:1046D000204610BDF40A00212DE9F0474C4D1F463D
:1046E0006B7883423ED92B188846064693F842A140
:1046F0008AF00101B8F1000F32D093F84A317BBB48
:1047000041F00209002F57D001F1010A95F89431C8
:10471000002A65D0EA181C4692F88C217AB301333E
:1047200095F88A41BAF1010FB3FBF4F204FB12349D
:10473000E4B205D02B194FF0010A93F88C31F3B194
:1047400019F0010F09F002043DD16CB105EB061020
:104750003A4641460230FEF787FF4846BDE8F087FB
:104760002FB969BB4FF000094846BDE8F08795F8BE
:1047700094310029F6D04FF00109CA46C8E702F08B
:10478000D7FD04F1010C04EB44032A19010A95F842
:104790008A412B4483F89801000C83F8991183F81F
:1047A0009A01BCFBF4F304FB13C401239A45E4B261
:1047B00082F88C31BED1C3E70029C7D0022402E0C1
:1047C0003C464FF0010906EB46013A4605EB061060
:1047D00005EB4101823001F58571FEF745FFB4E735
:1047E000EA1892F88C1195F88A2161B10133BAF177
:1047F000010FB3FBF2F102FB1133A1D02B4493F86C
:104800008C31002B9CD149F004094846BDE8F08763
:10481000F40A0021F8B506462D4D08BB687848B16A
:1048200000242346EA1892F842212AB10134E3B267
:104830008342F7D30120F8BD03EB4301013405EBBC
:104840000313324605EB410103F1820001F5857146
:10485000FEF70AFF6878E3B28342E3D30120EAE778
:104860006878421ED2B238B302F5A17205F2411146
:104870004FF0000C2A4412F8013983F001039142F1
:1048800063445FFA83FCF6D195F88A717A1ED2B23E
:10489000D7B1DFF840E0002172441378964502F169
:1048A000FF3283F001031944C9B2F6D1791AC9B2B3
:1048B0008C45B4D90020F8BD95F88A717A1ED2B221
:1048C000002FB7D08446E4E7BCF1000FA8D0F1E791
:1048D000F40A0021800C00211F4B30B55A788DB0AE
:1048E000824203D91A1892F842411CB10024204692
:1048F0000DB030BD00010D46EC46069482308DF8B7
:104900001C4003EB000E1858CB78DEF80820DEF8C8
:1049100004108DF81F30DEF80C30CDE90444ACE80B
:104920000F002A7968466B798DF81E208DF81D30AE
:10493000FDF7A6FC2A789DF82F309A42D7D16A78E5
:104940009DF82E309A42D2D1AC789DF82D30E41AE1
:10495000B4FA84F46409CAE7F40A0021084B5A78CF
:1049600082420AD91A1892F8422132B900EB40006B
:1049700003EB400000F5857070470020704700BFD2
:10498000F40A0021064B5A78824206D9184490F85E
:104990003A01B0FA80F0400970470020704700BF2C
:1049A000F40A00212DE9F0470C460546062117467A
:1049B000204600F04BFB064650B1DA48427822B15F
:1049C000394600F59D7019F01FF93046BDE8F087B3
:1049D000D44B93F80080B8F1000FF6D0207894F80B
:1049E00001E093F8542193F853118EEA020294F8EF
:1049F00002C0414093F855A193F856910A4493F8A8
:104A000052118CEA0A0A69400A44E178524481EA68
:104A1000090909EB020A227993F85791647982EA2D
:104A20000909D14493F858A184EA0A0A1AEB090F3C
:104A300000F05B81B8F1010FC7D093F85A9193F859
:104A40005BA180EA09098EEA0A0AD14493F859A1C8
:104A500085EA0A0AD14493F85CA18CEA0A0ACA449E
:104A600093F85D9181EA0909CA4493F85E9182EA5C
:104A70000909D14493F85FA184EA0A0A1AEB090FE5
:104A800000F03581B8F1020F9FD093F8619193F84F
:104A900062A180EA09098EEA0A0AD14493F860A16A
:104AA00085EA0A0AD14493F863A18CEA0A0ACA4447
:104AB00093F8649181EA0909CA4493F8659182EAFE
:104AC0000909D14493F866A184EA0A0A1AEB090F8E
:104AD00000F00F81B8F1030F3FF477AF93F86891BE
:104AE00093F869A180EA09098EEA0A0AD14493F889
:104AF00067A185EA0A0AD14493F86AA18CEA0A0AF6
:104B0000CA4493F86B9181EA0909CA4493F86C91FD
:104B100082EA0909D14493F86DA184EA0A0A1AEBE2
:104B2000090F00F0EA80B8F1040F3FF44EAF93F89C
:104B30006F9193F870A180EA09098EEA0A0AD144BC
:104B400093F86EA185EA0A0AD14493F871A18CEA20
:104B50000A0ACA4493F8729181EA0909CA4493F88F
:104B6000739182EA0909D14493F874A184EA0A0A8C
:104B70001AEB090F00F0C580B8F1050F3FF425AF1F
:104B800093F8769193F877A180EA09098EEA0A0AE8
:104B9000D14493F875A185EA0A0AD14493F878A123
:104BA0008CEA0A0ACA4493F8799181EA0909CA444D
:104BB00093F87A9182EA0909D14493F87BA184EAB7
:104BC0000A0A1AEB090F00F0A080B8F1060F3FF4B3
:104BD000FCAE93F87D9193F87EA180EA09098EEAF4
:104BE0000A0AD14493F87CA185EA0A0AD14493F8D1
:104BF0007FA18CEA0A0ACA4493F8809181EA0909E4
:104C0000CA4493F8819182EA0909D14493F882A1B8
:104C100084EA0A0A1AEB090F7BD0B8F1070F3FF4B8
:104C2000D4AE93F8848180EA080093F885818EEAF7
:104C3000080E704493F883E185EA0E05054493F865
:104C400086018CEA000C93F887016544414093F893
:104C50008801294442400A4493F889114C40D442C7
:104C60007FF4B3AE07215A78002A3FF4AEAE93F832
:104C7000020188423FD0012A3FF4A7AE93F8030116
:104C800088423CD0022A3FF4A0AE93F80401884247
:104C900039D0032A3FF499AE93F80501884236D003
:104CA000042A3FF492AE93F80601884233D0052AD5
:104CB0003FF48BAE93F8070188422ED0062A3FF4CA
:104CC00084AE93F80801884229D0072A3FF47DAECC
:104CD00093F809218A427FF478AE07221344012613
:104CE00083F83A713046BDE8F0873146BBE70121D1
:104CF000B9E70221B7E70022F0E70321B3E7012279
:104D0000ECE70421AFE70222E8E70521ABE7032245
:104D1000E4E70621A7E70422E0E70522DEE7062212
:104D2000DCE700BFF40A0021002342F2107CA0F867
:104D30004C2043644B1E0CFB0232B2FBF1F1816448
:104D4000704700BF70B50D4600210646FCF75EFFB8
:104D5000686018B1002318462B7070BD044601210D
:104D60003046FCF753FF686018B1012320462B70D2
:104D700070BD022070BD00BF38B504460D4631B18C
:104D8000012965D002292CD003295AD038BD4FF40F
:104D90007C7218F039FF49230122042184F8133171
:104DA0006FF03B0384F8C520072284F81531FE23F9
:104DB0002B2084F8141184F816217F21414A84F8AD
:104DC0004E31202384F8175184F8185184F8195172
:104DD00084F8120184F8B910C4F8A82084F8643368
:104DE00038BD0023D0F8C423416942F21075B0F8F1
:104DF000CA03A4F8F230B4F8F63001FB03F3B3FBB6
:104E0000F2F3A4F8F630531E05FB0030B0FBF2F0CD
:104E1000A4F8F400D4F8E40000FB01F1B1FBF2F1D6
:104E2000C4F8E4102849B1FBF2F10131A4F8FA10FA
:104E3000B4F8EC1005FB0133B3FBF2F3C4F8E8302F
:104E400038BD00F1C601C530BDE8384000F0A6BB52
:104E5000436900251D49B0F8F600D4F8E420194450
:104E600003FB00F003FB02F2A4F8F65284F8EB52C5
:104E7000A4F8F250B1FBF3F1B0FBF3F0B2FBF3F2A4
:104E8000C4F8E81040F6B831A4F8F600581EC4F88B
:104E9000E420A4F8EC1042F21071E28B01FB020056
:104EA000094A04F1C601B2FBF3F2B0FBF3F301329D
:104EB00004F1C500A4F8F430A4F8FA20BDE83840A5
:104EC00000F06CBB00E0FCFF005A62027FC3C90126
:104ED00038B504460D4631B1012965D002292CD0E0
:104EE00003295AD038BD4FF45A7218F08DFE492369
:104EF0000122042184F813316FF03B0384F8C520AC
:104F0000072284F81531FE232B2084F8141184F82D
:104F100016217F213F4A84F84E31202384F817510F
:104F200084F8185184F8195184F8120184F8B910E2
:104F3000C4F8A82084F8013338BD0023D0F8282312
:104F4000416942F21075B0F82E03A4F8F230B4F8BB
:104F5000F63001FB03F3B3FBF2F3A4F8F630531E73
:104F600005FB0030B0FBF2F0A4F8F400D4F8E40044
:104F700000FB01F1B1FBF2F1C4F8E4102649B1FBEA
:104F8000F2F10131A4F8FA10B4F8EC1005FB01338A
:104F9000B3FBF2F3C4F8E83038BD00F1C601C53008
:104FA000BDE8384000F0FABA436942F210751B4A76
:104FB000B0F8F6001A44D4F8E41003FB00F003FB49
:104FC00001F1B2FBF3F2B0FBF3F0C4F8E82040F6D5
:104FD000B832A4F8F600581EA4F8EC20E28B05FBCA
:104FE00002000D4AB1FBF3F1B2FBF3F2B0FBF3F3B5
:104FF0000132A4F8F4300023C4F8E41004F1C50031
:1050000004F1C601A4F8FA20A4F8F230BDE8384053
:1050100000F0C4BA00E0FCFF005A62027FC3C9017D
:1050200070B5047934F01F040ED1451E061D15F825
:10503000010F02F0D3F90444B542E4B2F7D1012CD8
:1050400094BF0020012070BD002070BD002964D0F5
:105050004B1E062B00B562D98B0800F1040E0246E8
:105060004FF0000C013BDBB20EEB830E52F8043B19
:10507000724543EA0C0CF9D1CCF30723CCF3074279
:105080004CEA0303134301F0FC0243EA1C6331F0D2
:10509000FC0CDBB23CD010F802C043EA0C0302F176
:1050A000010C5FFA8CFC614532D910F80CC043EA60
:1050B0000C0302F1020C5FFA8CFCDBB2614527D9CC
:1050C00010F80CC043EA0C0302F1030C5FFA8CFCED
:1050D00061451DD910F80CC043EA0C0302F1040C21
:1050E0005FFA8CFC614513D910F80CC043EA0C033D
:1050F00002F1050C5FFA8CFC614509D9063210F803
:105100000CC0D2B243EA0C03914201D9825C134332
:10511000B3FA83F040095DF804FB012070470022D8
:105120001346B8E762B102F1FF3C0A44431E5FFA3E
:105130008CF1084412F8011D03F8011F9842F9D1BF
:10514000704700BF0D2900F28380DFE801F00D11E8
:10515000171D232939454B51585E67072A3A042AFF
:105160008CBF002001207047B2FA82F040097047DE
:10517000073A012A8CBF0020012070470B3A022A0F
:105180008CBF0020012070470E3A012A8CBF0020FE
:1051900001207047113A0C2A8CBF00200120704773
:1051A000002B41D1A2F11303012B49D990F86230B1
:1051B000002B47D0143A082A8CBF002001207047EA
:1051C000A2F11103032B3BD990F862001D2A8CBF7A
:1051D000002000F001007047A2F10400B0FA80F056
:1051E00040097047A2F10100B0FA80F04009704711
:1051F00003BBA2F10500B0FA80F0400970471E3AE7
:10520000022A8CBF002001207047A2F121002F2A22
:1052100018BF062894BF012000207047A2F1290082
:10522000B0FA80F040097047123A0B2A8CBF002078
:1052300001207047A2F11000B0FA80F040097047D9
:1052400001207047183A042A8CBF002001207047C3
:1052500000207047F8B504460D46D0E9046717F002
:10526000F5F808B3DDB1236962699B1B62EB0702A5
:10527000012B72F1000114DB6FF001000021984254
:1052800071EB020215DB6A1E1344B3FBF5F303FB5B
:1052900005F5AE191D4647F10007C4E90467284625
:1052A000F8BD00252846F8BD40F2D3112920FBF7B0
:1052B00029FE40F2DD112920FBF724FE11F00C033A
:1052C0000CD04B0712D44FF4747340229842194605
:1052D00012D9401A90FBF2F080B2704702290DD02B
:1052E000702809D97038C0F3CF00704740F20E2300
:1052F000102298421946ECD8002070473C28FBD970
:105300003C38C0F38F007047034608685866704702
:10531000013908B5072914D8DFE801F00710130494
:105320001313130440F6A66008BD034640F2E242A0
:1053300040F6C410002B08BF104608BD40F6C4104C
:1053400008BD4FF41C712920FBF7DCFD80F86C10C0
:1053500010F0CEBD41F27073A0F57A729A4205D971
:10536000064BA3FB0030C0F38F207047044BA3FB18
:105370000030800900F5506080B270475917B7D1EE
:10538000D34D62106FF45063C318062B04D940F25A
:10539000E24303FB00F070474FF47A73A0F55060CE
:1053A00003FB00F0704700BF41F64B53994208D908
:1053B000C0EB401300EB830000EB8000400080B2A4
:1053C000704700EB800000EB80008000704700BF5A
:1053D00041F64B53994205D9054BA3FB0030C0F36E
:1053E00087207047034BA3FB0030C0F34710704782
:1053F0005917B7D11F85EB5141F64B53994294BFD2
:10540000642340F2E24303FB00F0704741F64B5344
:10541000994205D9054BA3FB0030C0F38F2070479C
:10542000034BA3FB0030C0F34F1070475917B7D19F
:105430001F85EB5141F64B53994209D9094B40F274
:10544000E242A3FB00139B0A02FB1303C01A70473E
:10545000054B6422A3FB00135B0902FB1303C01A74
:10546000704700BF5917B7D11F85EB51A0F5C47025
:10547000884294BF091A491A1868012910B400EB30
:10548000510494BF002001201C60136810BCA3EBE2
:1054900051011160704700BF074B93F90030184469
:1054A000142804DC10F17F0F03DB40B27047142096
:1054B00070476FF07E007047B20C002100B583B0DA
:1054C0007F230DF107008DF8073013F0B5FD20B9EB
:1054D0009DF9070003B05DF804FB0A4A9DF9073007
:1054E0005078404240B21844142806DC10F17F0F77
:1054F00005DB40B203B05DF804FB1420EAE76FF06F
:105500007E00E7E7B20C0021024B00221A705A70AD
:10551000704700BFB20C00210346074A12783AB91F
:105520000649012208680979186010461971704708
:1055300000221046704700BFB40C0021100000216B
:10554000034606494FF0FF0C054A00681B7982F8B4
:1055500000C008600B710023137070471000002119
:10556000B40C00210A4B82B093E8030000908DF840
:10557000041002AB074A4FF0FF0C13E90300064B7F
:105580001060117183F800C000221A7002B07047D9
:10559000A86D030110000021B40C002170B5441C5B
:1055A00005468C4204D00B68C0F801300B7923719A
:1055B0006B790022AE1D03F01F03EA726B7114F8C1
:1055C000010B01F00BFF2071B442EB7A1844E87232
:1055D000F5D170BD81EA1141844689B24A4008B5CF
:1055E000D3B293FAA3F3120A92FAA2F2120E1B0E8E
:1055F00043EA022303EB03130B449AB2DBB293FAA0
:10560000A3F3120A92FAA2F2120E1B0E43EA02232D
:1056100003EB03130B449AB2DBB293FAA3F3120A1F
:1056200092FAA2F2120EA0481B0E43EA022303EBE9
:1056300003130B444B409BB2A0FB03201A1A00EB50
:105640005200400900EBC00200EB82000122181A50
:10565000C0F3C40100F0070E614402FA0EF249786B
:10566000114201D0C0B208BD9CF80B1001FB03F33E
:105670009CF806104FEA134E1B140EF10100C2B243
:105680008A425BD9501AC2B29CF80730934280F02C
:105690009A80D01AC2B29CF808309A4240F2D9805F
:1056A000D01AC2B29CF809309A420AD9D01AC2B2B2
:1056B0009CF80A30934280F0138199214620FBF731
:1056C00021FC9CF80430D90705D5501E10F0FF02CC
:1056D00001D1032281E0980705D5501E10F0FF028A
:1056E00001D1032238E0590705D5501E10F0FF0202
:1056F00001D103223BE0180705D5501E10F0FF0230
:1057000001D103223BE0D90605D5501E10F0FF025F
:1057100001D103223BE0980605D5501E10F0FF0290
:1057200001D103223BE0590600F118811806BFD5CC
:10573000501E10F0FF02BBD1032242E09CF8011082
:10574000C80703D5002B00F0108172468B0708D5DF
:10575000501E10F0FF0204D1012000EBC200C0B2C5
:1057600008BD480705D5501E10F0FF0201D10220E8
:10577000F3E70B0705D5501E10F0FF0201D10320FF
:10578000EBE7C80605D5501E10F0FF0201D104203A
:10579000E3E78B0605D5501E10F0FF0201D105206E
:1057A000DBE7480605D5501E10F0FF0201D10620A8
:1057B000D3E70B067FF568AF501E10F0FF027FF4B1
:1057C00063AF0720C9E79CF8023013F0010106D04F
:1057D000501E10F0FF0202D10A460020BDE79807D4
:1057E00005D5501E10F0FF0201D10122B4E7590780
:1057F00005D5501E10F0FF0201D10122B7E71807AE
:1058000005D5501E10F0FF0201D10122B7E7D906DD
:1058100005D5501E10F0FF0201D10122B7E798060E
:1058200005D5501E10F0FF0201D10122B7E759063D
:1058300005D5501E10F0FF0201D10122B7E718066E
:105840007FF529AF501E10F0FF027FF424AF012234
:10585000B7E79CF80330D90705D5501E10F0FF02BA
:1058600001D10222B9E7980705D5501E10F0FF02BA
:1058700001D1022270E7590705D5501E10F0FF0232
:1058800001D1022273E7180705D5501E10F0FF0260
:1058900001D1022273E7D90608D5501E10F0FF028D
:1058A00004D1022273E700BF4D91CFBA980605D507
:1058B000501E10F0FF0201D1022270E7590605D5F3
:1058C000501E10F0FF0201D1022270E718067FF58A
:1058D000E9AE501E10F0FF027FF4E4AE022270E742
:1058E0009CF80530D90705D5501E10F0FF0201D1F4
:1058F000042272E7980705D5501E10F0FF0201D16F
:10590000042229E7590705D5501E10F0FF0201D1E6
:1059100004222CE7180705D5501E10F0FF0201D114
:1059200004222CE7D90613D4980603D5501E10F094
:10593000FF021CD0590603D5501E10F0FF0218D0EC
:105940001B067FF5BAAE012A7FF4B7AE042238E712
:10595000501E10F0FF02E7D1042218E7501E10F08D
:10596000FF027FF4E3AE032221E71A4635E7042263
:1059700015E704221BE700BF90F830C00CF1FF339D
:10598000242B14D88AB110B5044690F8250080B1B4
:10599000012853D1A28A04F125008969FFF71AFE74
:1059A0000346002084F8333010BD104670471220A3
:1059B000704794F8311094F8323002FB0132994B61
:1059C00083FB0213012113445B1103EBC30E03EBB2
:1059D0008E03D21AD2B204EBD20384F8322093F8A9
:1059E00026E002F0070301FA03F31EEA030F65D174
:1059F00094F82B10B2FBFCF30CFB1322D2B2531C15
:105A0000DBB28B425DD95B1ADBB294F82C209A4250
:105A100080F093809B1ADBB294F82D20934240F2E1
:105A2000CA809B1ADBB294F82E20934240F2FC808D
:105A30009B1ADBB294F82F209A4201D21F2010BD8E
:105A400094F82A20D10704D5013B13F0FF0300F09E
:105A50004C81910704D5013B13F0FF0300F047810F
:105A6000510704D5013B13F0FF0300F042811107F9
:105A700004D5013B13F0FF0300F04581D10604D5A6
:105A8000013B13F0FF0300F04081910604D5013B78
:105A900013F0FF0300F03B81510604D5013B13F0E6
:105AA000FF0300F036811206C8D5012BC6D10423AE
:105AB000072202EBC30384F8333010BD84F833208F
:105AC00010BD94F8261011F0010F03D0002A00F049
:105AD000F38013468A0704D5013B13F0FF0300F05F
