:020000040001F9
:10020000F82B0020F9080100050A0100A1450100B2
:10021000C1450100E1450100214601000146010000
:100220000000000000000000000000003D2A010066
:10023000050A010000000000E9290100050A01008B
:10024000050A0100050A010000000000852F0100D9
:1002500000000000050A010000000000000000008E
:10026000050A0100050A0100050A0100050A01004E
:10027000050A0100050A0100050A0100050A01003E
:10028000050A0100050A010000000000000000004E
:10029000050A0100050A010000000000000000003E
:1002A000050A0100050A0100050A0100050A01000E
:1002B000050A0100050A0100050A0100050A0100FE
:1002C000050A0100050A0100050A0100050A0100EE
:1002D000050A010000000000050A010000000000FE
:1002E000050A010000000000050A0100050A0100DE
:1002F00000000000050A010000000000050A0100DE
:10030000000000000000000000000000050A0100DD
:10031000050A010000000000050A0100050A0100AD
:1003200000000000050A01000000000000000000BD
:1003300000000000000000000000000000000000BD
:1003400000000000000000000000000000000000AD
:10035000050A0100407C0100A04D00204A00000079
:1003600000440100403C0020000000000044010067
:10037000203C002000000000E04E0020D3060000DA
:10038000403C002058040000203C002008000000F1
:10039000003C00200800000000015F5F000000003A
:1003A000FE0F00009D2B0100000400000000000073
:1003B000000000000000000000000000000000003D
:1003C000005000200000000001015F5F03010000F9
:1003D0001F0100006104010000080000000000008F
:1003E000010000000100000000000000000000000B
:1003F00088400020000000007000000044790100E7
:1004000080000000000F0000010000002505010031
:100410000100000001015F5F040100001F010000F6
:10042000C9080100000500000000000000000000F5
:1004300001000000000000000000000088480020CB
:100440000000000050790100400000000507000096
:0C04500001000000A507010001000000F1
:1004600008B500F059F900B108BD00F083F900F0BB
:100470008FF90028F8D1BDE8084004F0B1BB00BFF7
:10048000002110B582B0CDE900111146D0E900423B
:10049000302A3FD194F82C200346022A36D01AB9CC
:1004A00000F064F902B010BD1D482468D0F80404BF
:1004B000013ACDE90040072A2FD8DFE802F02227D1
:1004C0001D18130E090418466A4600F047F9E9E7BB
:1004D00018466A4600F03EF9E4E718466A4600F01E
:1004E00035F9DFE718466A4600F02CF9DAE71846D6
:1004F0006A4600F01BF9D5E718466A4600F01EF977
:10050000D0E718466A4600F02DF9CBE7184600F010
:1005100011F9C7E76FF08000C4E76FF08500C1E70D
:10052000403C00202DE9F04F04689FB0002C40F0C3
:10053000EE8081462022214602A804F009F92022FB
:1005400021460AA804F004F93022214612A804F03A
:10055000FFF8D9F8182009F118073B464FF0040AB4
:1005600072B9032153F8040D4A1E30B93AB111464D
:1005700053F8040D4A1E0028F8D08A4600E092463F
:10058000D9F828204FF0040B09F1280372B9032190
:1005900053F8040D4A1E40B9002A00F08980114624
:1005A00053F8040D4A1E0028F6D08B46BAF1000F0E
:1005B00000F09C8030230021D9F8040012AA04F036
:1005C00023F9302840F0928012ABBAF1010FCDE947
:1005D000023000F08E8001254E4C02AE09F10C086D
:1005E000019758F8043FD4F80004D91C21F0030106
:1005F000C0F5806E714504EB000701EB000C59D883
:100600002946D9F804003A46C4F800C404F0FCF8BE
:100610000135AA45F06046F8087FE2D1019FBBF1A1
:10062000000F68D00AAD29464FF0000CA846D4F858
:10063000002407EB8B0E57F8046FC2F58060F31CA3
:1006400023F00303834204EB020543D87745C1E955
:1006500000564FF0010C1A4401F10801EBD1D9F812
:100660000830C4F80024C4F8043451465B460AAA92
:1006700002A8FFF705FF45460026074631466B688E
:10068000D9F8040055F8082B013604F0C9F8B34531
:10069000F4D10025D4F8002429461E48C4F8045497
:1006A00004F056F8C4F8005438461FB0BDE8F08F87
:1006B00093467BE7002102461648C4F8041404F070
:1006C00047F86FF08C0700233846C4F800341FB099
:1006D000BDE8F08FBCF1000F01D0C4F80024002168
:1006E0000C48C4F8041404F033F8EAE76FF0830709
:1006F000DAE7084C93E7D9F808305146C4F80434D7
:100700000AAA5B4602A8FFF7BBFE0746C1E76FF0E7
:100710008507C9E7403C002008B52822002102488F
:1007200004F016F8002008BD484000206FF0850056
:10073000704700BF6FF08500704700BF6FF0850005
:10074000704700BF6FF08500704700BF6FF08500F5
:10075000704700BF6FF08500704700BF6FF08500E5
:10076000704700BF6FF08500704700BFD1E90001FE
:1007700004F026BA10B5044C0F222046034903F0BA
:10078000ABFF204610BD00BF74400020CC08010024
:1007900008B50121024804F0AFF9002008BD00BFF0
:1007A0007040002070B50368A6B0B3F57D7F42D0DD
:1007B00040F2F532934220D1002504463C222946DE
:1007C00007A80295049506950395059503F0C0FFCB
:1007D0003C22294617A8169503F0BAFFA269032107
:1007E000019504F11803002A5AD153F8042D4E1E26
:1007F000002A58D12EB13146F7E76FF0850026B0B8
:1008000070BD4FF0FF30A26A042504F1280362B9DD
:10081000032153F8042D4D1E32B935B1294653F842
:10082000042D4D1E002AF8D00D462843012807D973
:10083000012026B070BD01F02BFF002026B070BD56
:100840000423002160680DEB030203F0DDFF0428A0
:1008500033D1022E14D0002145B3E369402B2CD8AC
:1008600016A804AA04900198059301F023FFDDE97E
:10087000042305460021606803F0D2FF2846BEE746
:100880002669402E1CD833460121606806AA03F071
:10089000BBFF864211D106AB029302A90396DBE7A8
:1008A00003200426AFE730460E46ACE72A460198FF
:1008B00001F000FF05462846A1E76FF080009EE7A3
:1008C0006FF089009BE700BF002070476D62656490
:1008D00020544C5320332E332E30000000000000F3
:0808E000383C0000010000009B
:1008F00001F092BF0000000008B572B6002383F338
:100900001488BFF36F8F83F30A8883F30B88BFF3D8
:100910005F8F334B5A6A22F480325A62D3F89420A4
:1009200022F00102C3F89420BFF34F8FBFF36F8F03
:100930002C4A9A6000F074F82B4B83F309882B4BF8
:1009400083F30A8883F30B88294B23A1D1E90001A3
:10095000284CC3E9000100F0CDF8274BA34238BF73
:100960009C4614D2DCF808306BB1DCE9001200239D
:100970000439043A51F8040F013342F8040FDCF84B
:1009800008008342F6D30CF10C0CA445EAD31B48B3
:100990001B4B98421BD2002403F1FF3CACEB000C34
:1009A00000F110032CF0070C08309C4450F8043C74
:1009B00053B1002350F8082C043A42F8044F50F881
:1009C000041C01338B42F8D308306045EED103F0AC
:1009D000A7FD00BFAFF30080A5EDF5FEA5EDF5FE88
:1009E00000ED00E000020100F82B002000240020B0
:1009F000F82B002078030100540301007803010064
:100A000098030100EFF30880EFF309812DE9F00F5F
:100A10006B46724600F0D0F908B0FFF769FFFEE7B9
:100A2000F8B572B6002383F3138883F311884FF06F
:100A3000FF30264903F120020133102B41F8220038
:100A4000F8D100234FF0FF34204903F16002013355
:100A5000102B41F82240F8D1002501271C4B1D49DD
:100A60001D4E4F608022C1F848431C48C1F808431E
:100A70005F602946C3F84843C3F80843C6F80055E9
:100A8000C6F8084303F064FE29468022144803F0A8
:100A90005FFE144B2946C3F800558022C3F8084373
:100AA000114803F055FE80222946104803F050FEFD
:100AB0004FF050230E4AC2F80845C3F8084362B607
:100AC000BFF34F8FBFF36F8FF8BD00BF00E100E0B1
:100AD00000500150004001500080005080800050C4
:100AE0008081005000900050809000508091005014
:100AF000007001504FF47F029F49F0B4D1F8D0301C
:100B000043F00203C1F8D030D2F83011D2F83431BA
:100B1000072970D0002206E0D3F80013D3F804337D
:100B2000202A0B6007D0D30003F57F03D3F800130E
:100B300001320131F0D14FF47F03D3F83021D3F8E3
:100B40003431072A00F000814FF47F03D3F83021BD
:100B5000D3F83431072A00F0E4804FF47F03D3F850
:100B60003021D3F83431072A00F0CD804FF47F03D1
:100B7000D3F83021D3F83431072A00F09B804FF4AA
:100B80007F03D3F83021D3F83431072A00F0B08046
:100B90004FF47F03D3F83021D3F83431072A5ED0E5
:100BA0004FF47F03D3F83021D3F83431072A69D0CA
:100BB0004FF47F03D3F83021D3F83431072A2FD0F4
:100BC0006D4B6E48D3F88C206D4942F44062C3F8F7
:100BD0008C200268C1F84425C269C1F84C25D3F8BD
:100BE000882042F47002C3F88820BFF34F8FBFF310
:100BF0006F8FF0BC7047023B032B8BD8614AD35CEC
:100C0000002B87D0604BD3F8202A002A82D10D20F8
:100C10000121C3F8200AC3F81C19C3F81C2979E77D
:100C2000023B032B40F2A18000237E247F27574AFA
:100C300055485749574E584DC0F80C47C0F83C49E5
:100C4000C2F81871C1F8043EC1F8083EC6F8103168
:100C5000C2F82431C2F82C31C5F8A032B0E7023B0B
:100C6000032B9DD8474AD35C002B99D06522464B75
:100C7000C3F80C274FF47F03D3F83021D3F8343175
:100C8000072A95D1454BD3F82034002B90DA4FF04A
:100C9000502203210123C2F818159360D2F80431C1
:100CA000002BFBD001230021C2F80411D360C2F84D
:100CB00018357DE7023B032B3FF661AF314AD35C29
:100CC000002B3FF45CAF4FF05023D3F80024D10742
:100CD0007FF555AF0022C3F81421C3F818214FF453
:100CE0007F03D3F83021D3F83431072A7FF450AF93
:100CF0004FF05023D3F80024D20744BF6FF0010215
:100D0000C3F8002444E7023B032B3FF62FAF244AED
:100D1000D35C002B3FF42AAF0022204BC3F84C25B4
:100D200024E7023B032B3FF618AF164AD35C002B97
:100D30003FF413AF4FF05023012215491948C1F871
:100D40003005C3F8582508E7023B032B3FF6FCAEFD
:100D50000C4AD35C002B3FF4F7AE292103220A4B47
:100D6000C3F80C17C3F83C27EEE60F4AD35C002B00
:100D70007FF45AAF24E700BF00ED00E00080FF00E1
:100D800000600050AC4101000040005000200050C5
:100D9000009003500010105000102050002003500D
:100DA000A84101004400EFBEA44101007C2201499A
:100DB00003F092BC0054002038B5404C6568404CAC
:100DC000C5F3080525601D46EFF30383636502F054
:100DD0000C030C2BC4E90120E160C2F3801239D06E
:100DE000002A34D0014620612022364803F074FCEA
:100DF00025B120222946344803F06EFC2F4B9A6A15
:100E0000D96A986BC4E91621206602F40040606636
:100E10005D6B9A62D96202F08002D3F8E400C4E903
:100E20001A52D3F8E85000F04002C3F8E4000E2153
:100E3000C4E91C052548A26700F058F82268D31EB3
:100E4000042B2BD8DFE803F012181E240C00EFF35C
:100E50008880C7E70AB10846C4E7EFF38980C1E795
:100E60000E21BDE838401A4800F040B80C21BDE81A
:100E70003840184800F03AB81221BDE8384016480A
:100E800000F034B80B21BDE83840144800F02EB80B
:100E90000D21BDE83840124800F028B80F2A05D8C7
:100EA000BDE8384014210F4801F0B8BC1E21BDE850
:100EB00038400D48103A01F0B1BC00BF00ED00E031
:100EC000005400201454002034540020B04101008C
:100ED000C0410100D0410100DC410100F0410100AE
:100EE000FC4101000C4201002042010000F000B86A
:100EF00030B5094D83B06B69984748B9EC6AA04793
:100F0000C307FCD42B6A019303B0BDE830401847F7
:100F1000002003B030BD00BF4042010010B5094CB5
:100F20000020A3689847236902209847A46A4FF4D9
:100F3000E1310120A0472346BDE8104001211520E2
:100F4000184700BF404201000020054B82B01B68DB
:100F50009AB262F30F001B0C63F31F4002B070479C
:100F600088420100012070476FF00300704700BF06
:100F7000002382B00193019802B070476FF0030024
:100F8000704700BF002382B00193019802B0704700
:100F9000022814BF6FF0030000207047014B18694E
:100FA000704700BFA84D0020014B5869704700BF33
:100FB000A84D002010B5044C204600F0AFFE0020E4
:100FC00084F8240010BD00BFA84D00205FFA80FC0B
:100FD000BCF1010F40F0BF804DF6C023994200F0F4
:100FE000B7802DD8B1F5615F00F0B08043D947F6E6
:100FF0001223994200F0988035D9B1F5164F08BFF9
:101000004FF41D034AD110F4E06F40F0A78010F4B4
:1010100040427FD0B2F5804F55D1102110B500F479
:101020004052504CB2F5805FB4F81CE000F0828072
:10103000B2F5005F52D0002A53D06FF0090010BD06
:10104000494B99427FD01FD9B1F5612F64D0474BEE
:10105000994208BF4FF08053D5D0B1F5E12F1DD193
:101060004FF0E863CFE7B1F5964F35D0B1F5E14FDA
:1010700014D13F4BC7E7B1F5965F53D011D9B1F505
:10108000165F0BD13B4BBEE7B1F5E13F47D012D91C
:10109000B1F5613F08BF4FF06C73B4D06FF007003B
:1010A0007047B1F5966F14D0B1F5166F08BF4FF4C5
:1010B0001D23A8D0F2E7B1F5614F07D0B1F5963FF7
:1010C000ECD12D4B9FE76FF00A0070474FF46B0394
:1010D00099E74FF49E2396E7284B94E74FF4807EE0
:1010E0000E2210F440302CD0B0F5403F1FD101202B
:1010F00062760A43A17642EA0E02216842EA0C02B5
:101100002076C1F8243500202362A4F81CE0C1F841
:101110006C2510BD114681E74FF0706373E74FF007
:10112000EB7370E7164B6EE74FF400036BE76FF05D
:101130000B0010BD10F440304FF0000E4FF00E02C7
:10114000D2D18446D4E74FF080635CE70D4B5AE779
:101150004FF4650357E76FF0030070476FF0080026
:10116000704700BFA84D002090D0030040420F0000
:1011700000C075000050270000903A0100A04E000A
:1011800000B0130000F03A0038B50C4D95F824304B
:1011900073B10C4601462246284600F0E7FF084B93
:1011A000984208D00B3B984202D100206C6138BDB8
:1011B0004FF0FF3038BD6FF0010038BDA84D002062
:1011C0000B00AD0BF0B51B4D91B095F8243073B307
:1011D00000F06043B3F1005F06460C4615D089B1BC
:1011E0000025671B402F28BF4027711968463A46E3
:1011F00003F072FA394668464035FFF7E3FF10B94D
:10120000AC42EED8002011B0F0BD00230A460146E2
:10121000284600F0B9FB084B984205D00B3B98429A
:1012200005D100202C61EEE76FF00100EBE74FF0F5
:10123000FF30E8E7A84D00200B00AD0BFFF7C2BF61
:10124000F2B100B5043901EB820C51F8043F03F010
:101250007F027F2A4FEA134308BF4FF0FF32032B70
:1012600004D8DFE803F0090B0702C2606145ECD146
:101270005DF804FB8260F9E70260F7E74260F5E79A
:10128000704700BF0000000030B58FB02822002159
:1012900004A803F05DFA4FF0EB754FF0FF334FF009
:1012A000070C6846164CCDE90033D4E90212CDE9AB
:1012B00002338DF835C00A95FFF7C2FF01460022C0
:1012C000204600F089FA0F4B984210D19FED0A7B1F
:1012D0000A9901220BAB216284ED047B93E80300A1
:1012E000A0610020A18384F824200FB030BD6FF0EE
:1012F0000100FAE7AFF300800000000000000000EA
:10130000A84D00200000AD0B70B50D460446052227
:10131000AA21A869D4F83C6503F01AFA0521002334
:10132000AA69C4F83425C4F83815C4F8103101236B
:10133000D4F81011E362D4F81031002BFBD0002355
:10134000C4F84C31D4F84C11C4F81031D4F8103131
:10135000D4F83C359E42EB6100D070BD531E043280
:1013600013F8011FAA29F8D19342F9D10023EB61A8
:1013700070BD00BF70B50D46D0F858110446EB6C37
:1013800021B9D90724D4D0F8201109B3D5E90A36F8
:1013900032BB4FF0FF326A641BB1C4F84435C4F865
:1013A0004865002308204FF480010122C4F8203151
:1013B000D4F82051C4F85831D4F85851C4F85031F9
:1013C000D4F85031C4F80005C4F80413A26070BD0D
:1013D0004FF4800243F00403EB64C4F8042370BDAF
:1013E000296C761A1944D5E90E039E4228BF1E4681
:1013F000324603F071F94FF0FF32AB6B6A64002B99
:10140000CBD1CEE770B50E460446D0F80012F06C92
:10141000C00447D5BAB14FF48421D4F8002222F099
:101420002002C4F8002206F14C05D5E8EF2F0A434C
:10143000C5E8E02F0028F8D153B9736843B1012300
:1014400063601C4870BD8A06E5D54FF48031EAE739
:101450000123194AC4F808236360D4F84431002BEF
:10146000FBD0F36C13F400431ED1F36100F0C8FE0F
:10147000D4F8583133B1D4F8043313F4800308BFDF
:10148000C4F8003500F0C4FE0023B3603361D5E832
:10149000EF3F23F47F0323F47043C5E8E23F002AC3
:1014A000CFD0F4E7054870BD31462046FFF72CFF4A
:1014B000DCE700BF0000AD0B10020A000500AD0B19
:1014C000F0B50546D0F80032194F23F02003C0F8DC
:1014D000003285B0C0F808730C46164600F090FE46
:1014E000D5F8583133B1D5F8043313F4800308BF6D
:1014F000C5F8003500F08CFE002304F14C02A36017
:101500002361D2E8EF0F20F47F0020F47040C2E89E
:10151000E10F0029F5D1D4E90012042500936846B3
:10152000CDE9023301968DF80050904705B0F0BD2B
:1015300010020A002DE9F8430D4691F83310804659
:1015400003792868002963D0D5E902C76C6895F84B
:101550002C1095F83220002A76D1964E03EB8303A7
:1015600095F82E2006EB031695F82D30012942EA56
:1015700003022B8E42EA0302F36C42EA010243F0BB
:101580008073F364AE6AD8F80030C3F82465C3F8FA
:101590006C25C3F80C05C3F8144504BFC3F808C58F
:1015A000C3F81075D3F8682503F26456012A08BF02
:1015B000DA603268012A00F0B280002195F8350027
:1015C000C3F81011D3F81041C3F82011D3F820410B
:1015D000C3F82411D3F8244143F30732C3F844116C
:1015E000D3F844414001C3F858118A42D3F8583126
:1015F000C0B2C0F28D8070498B1883F800030123BC
:1016000002F01F008340520941F82230BDE8F88300
:10161000684E03EB830206EB0212D2F84CC04FEA8D
:10162000830E4CF00074D464441C66D16C68611C59
:101630001AD195F82C10EF6801292AD095F832209C
:10164000D5F808C0002A88D095F82D3095F82E20BE
:10165000A86A1A432B8E1A43D8F800300A43C3F8FD
:101660002405C3F86C259DE7620904F01F0177D0BB
:10167000012A40F09A80514A02EB8102D2F80072AE
:101680004F493940C2F8001295F82C10EF68012933
:10169000D4D19E4406EB0E124CF02061D1647A1C2A
:1016A0000ED07A0907F01F0170D0012A7DD1434A7C
:1016B00002EB8102D2F8006241493140C2F80012C7
:1016C000D5F808C0BCF1FF3F14D05FEA5C120CF003
:1016D0001F065DD0012A63D102FA06F1374A9160F4
:1016E00002EB8602D2F800623549314041F0030135
:1016F000C2F8001295F82C102BE7420900F01F04E5
:1017000030D0012A4FD102FA04F12C4A91602EE028
:101710002C4B02F00F0213441876BDE8F883082121
:10172000294FC3F8001549F64044DFF8A8905A60E5
:1017300047F0010707E0254B1868A9FB0030800C33
:10174000B847013C02D03368002BF4D10022D8F80E
:101750000030D3F88014C3F88014C3F800252CE7B8
:101760001B4A89E71A4F01213A46A140B96002EBB2
:101770008402D2F80042124921406C6841F0030112
:10178000C2F80012611C3FF454AF6DE7104A8FE7B6
:101790000121DFF83CE0B1407246CEF808109FE727
:1017A00000239B60FFDE8960FFDE0023803153F859
:1017B0002130FFDE7C54002000E100E0002884504E
:1017C000F0F0FCFFFCEC00E090420100A44D002092
:1017D0000025845083DE1B432DE9F04F0779DFF8A5
:1017E000A48107EB870308EB031B0C469BF848100A
:1017F00083B019B15C4803B0BDE8F08F05461646CA
:10180000584650224FEA031902F0A2FF2369A26949
:1018100048F8093063694FEA870ACBF8383002B1DB
:10182000013A0AEB070308EB0313DA63226A042A7E
:1018300003D90022E169C3E9061294F834303BB1C0
:101840000AEB070308EB0313DA6C42F00102DA64D7
:101850000AEB070308EB03180123D5F800A0C8F82A
:101860000460DAF84C2188F84830002A3DD121463E
:101870002846FFF75FFE08232F680022C7F80035CF
:1018800001234FF00A080DF10701C7F844158DF840
:101890000720C7F84825BB60FB603449D7F85821BA
:1018A0003348344B41F00101AAB10023C7F820317D
:1018B000D7F82021C7F8003536B194F834302E4ED1
:1018C00083F0010346EA03262B682C48C3F804631F
:1018D00003B0BDE8F08F0068A3FB0030800C8847A0
:1018E000B8F10108D9D1264885E708221F4FCAF868
:1018F00000254FF06409DFF87C80CAF8043047F017
:1019000001070DE0DAF824317BB91368A8FB032343
:101910009B0C03EB83035800B847B9F1010914D0BD
:10192000DAF84431124A002BECD00023CAF84C31CB
:10193000DAF84C21CAF81031DAF81021CAF844312B
:10194000DAF84421CAF8003591E7CAF84C91DAF880
:101950004C31CAF81091DAF81031CAF84491DAF82B
:101960004431CAF80095BEE70500AD0B9042010076
:10197000A44D002083DE1B4310020A000000AD0BC3
:101980000100AD0B7C5400202DE9F04F174605797E
:1019900087B005EB8502002F00F01B81DFF8AC82D9
:1019A00016018B4608EB06018246046848684FEA38
:1019B0008509F0B1980718D10BF06043B3F1005FCF
:1019C00000F026818B6B0191002B00F02C8100F040
:1019D00017FC0199CB6A002B00F0FD80944C00F0BD
:1019E00017FC204607B0BDE8F08F13F0020040F06E
:1019F000008109EB050308EB0313DB6CDA0600F149
:101A0000AE8005EB85031B0103930BEB07030493E7
:101A10004B46A9461D46CDE9010B0596029B9B4608
:101A200003F0604705EB090308EB03139E6BF6B167
:101A3000012600F0E5FB05EB0903D4F8582108EB7B
:101A40000313DB6CDAB9DB0702D4D4F82031B3B965
:101A500000F0DEFB9AF80490DAF800404FEA8905BE
:101A600005EB090308EB03139E6B002EE0D1B7F1E1
:101A7000005FDED06F4C204607B0BDE8F08F05EB6D
:101A8000090708EB07177A6C002ABCBFD4F84C256D
:101A90007A6466B1029B05EB09061F7808EB06160F
:101AA000D6E90E128F54D6E90E1201EB020BBBF1F0
:101AB000000F04D00122C4F844B5C4F84825002220
:101AC0000826C4F82021D4F82071019BC4F85821BD
:101AD000D4F85871C4F85021D4F85021C4F80065E6
:101AE000D3B14FF48003C4F804330123A36000F0A2
:101AF0008FFB039B43445A68002A4FD0029B049AF1
:101B000001339A42029300F090809AF80490DAF838
:101B100000404FEA890581E705EB090308EB03164E
:101B20000123A36000F074FBF06C00F00100D4F816
:101B30005831002B41D1B8B9D4F82031A3B1D4F831
:101B40004C25D4F844359B4540D1002A3ED100F0C5
:101B500057FBD4F85831002B50D100F059FB364CCC
:101B6000204607B0BDE8F08FD4F84C35D4F84435A2
:101B70009B45DCD050B300F043FBD4F8583133B16F
:101B8000F36CC3F30032DB0458BFC4F8002500F047
:101B90003FFB039B43445A68002AAFD1DB6C180714
:101BA000ACD5059E254B3344D3E8EF1F21F0080147
:101BB000C3E8E21F002AD2D0F6E7D4F84C25D4F8C7
:101BC00044359B45D6D1002AD4D1C0E70123E36038
:101BD000D1E71B4C05E70122CB6CC1E90AB743F002
:101BE0000203CB64204608EB0601FFF7C3FB154C4C
:101BF000F5E68B6B002BB2D00120FAE6F36CD9042A
:101C0000C3F30032A9D4C4F8002500F001FBA6E715
:101C1000019100F0F5FA0199CA6A002A7FF4DEAE5C
:101C2000C1E90AB7DEE7084CDBE6064CD9E600BF9F
:101C30000B00AD0B0400AD0B0800AD0BC854002029
:101C40000600AD0B0000AD0B0A00AD0B7C5400206C
:101C50002DE9F04705792E4E05EB850304684FEA20
:101C6000031A4FEA850806EB0313D3E8EF0F40F0A1
:101C70000800C3E8E20F002AF7D1012319B925486B
:101C8000E360BDE8F087244AD4F80493C4F808233D
:101C9000E36056F80A704C3E1F40D4F8583133B117
:101CA00000F0AEFA5FB1D4F85831EBB110E0002F7C
:101CB000F3D1D4F82031002BEFD000F0A1FAD4F802
:101CC00020318BB10123E360D4F85831002BFBD0D5
:101CD000D4F8583143B1B244DAF84C30C3F300328F
:101CE000DB0458BFC4F8002500F092FA0023A84492
:101CF000C4F8203109F4807206EB0818D4F82011DA
:101D00000448C8F82C30C4F80423BDE8F08700BFAD
:101D1000C85400200000AD0B00014000F8B5044697
:101D200000685F4A40F30733002B2679C0F8082388
:101D300077DB01215B485A0903F01F03203201FAC7
:101D400003F340F82230BFF34F8FBFF36F8F217939
:101D500020680123544D01EB81011A4605EB011166
:101D6000FFF750FB01212046FFF772FF227923681D
:101D700002EB820205EB0212D26CD3F80C05D401FF
:101D8000D3F81415D3F80875D3F810C509D54FF05A
:101D9000FF34C3F80C45C3F81445C3F80845C3F82D
:101DA000104593010AD5441C27D1481C10D11201BB
:101DB00004D5BCF1FF3F4AD17B1C34D1002306EB94
:101DC000860605EB0615EB6485F848306B60F8BDB8
:101DD00001F01F00490938D001295CD1334B03EBD6
:101DE0008003D3F800023249120101EA000141F0F8
:101DF0000201C3F80012E1D5DBE700F01F0440093F
:101E000021D0012842D1294B03EB8403D3F80042AF
:101E10002748204040F00200C3F80002481CC6D00A
:101E2000D6E7314695E707F01F027F0920D1214B05
:101E300003EB8203D3F800121D4A0A4042F002026B
:101E4000C3F80022BAE71B4BDEE71A4BC7E70CF0DA
:101E50001F025FEA5C1C0FD1164B03EB8203D3F821
:101E60000012134A0A4042F00202C3F80022A3E71C
:101E7000012F06D10D4BDBE7BCF1010F01D10B4B5C
:101E8000EBE70023803253F82230FFDE002380345A
:101E900053F82430FFDE0023803053F82030FFDE7B
:101EA00010034A0000E100E07C5400200028845028
:101EB000F0F0FCFF002584502DE9F0430679454FF2
:101EC00006EB86031B0103F14C04056885B04FEA5D
:101ED00086083C44D4E8EF2F42F48050C4E8EC0F6D
:101EE000BCF1000FF6D1D0044CD44A0703D5FA1840
:101EF0009269002A4AD000220820DFF8E0C0C5F825
:101F000008C3C5F80005C5F81021D5F81001C5F8BB
:101F10004C21D5F84C01C5F844210803D5F84421DB
:101F20008A0302F4804200F400504903024301F4A2
:101F300000410A43D4E8EF1F1143C4E8E01F002822
:101F4000F8D108EB060907EB0919D9F80810F9B11F
:101F500008EB060307EB0313DB6CDB0403D41E481A
:101F600005B0BDE8F083D5F84C310BB901232B60E7
:101F7000B04407EB08177B68002BF0D0174BC5F86F
:101F80000433ECE7164805B0BDE8F0831548E7E7F1
:101F9000D9F804207AB10322CDE900118DF8002090
:101FA000FA18CDE902116846F95852689047D9F8F5
:101FB0000830002BCCD1D4E8EF3F23F47F0323F487
:101FC0007043C4E8E23F002AF5D1074805B0BDE8F8
:101FD000F08300BF7C5400200000AD0B10020A000B
:101FE0000B00AD0B0800AD0B0200AD0B2DE9F04F5F
:101FF000D0F80080584BD8F8045306791D400C46A1
:10200000174687B001F0604024D0B0F1005FC8F8F7
:10201000083306D05148504BC8F8043307B0BDE828
:10202000F08FDFF8449106EB860309EB03139A68FF
:102030004FEA860AEAB15B689BB1B24409EB0A1920
:10204000D9F81030002B46D04548002DE3D107B019
:10205000BDE8F08FB0F1005FE3D0404807B0BDE8C5
:10206000F08FD8F81021002AE7D0C8F81031D8F83E
:1020700010310AEB060309EB031BDBF81C20CBE94C
:1020800002471B017AB1974238D32046DBF818107B
:1020900002F022FB0023DBF81C20DBF80C70CBF8ED
:1020A0002420CBF81C30B24409EB0A1ADAF82410C9
:1020B000DAF808307F1A0B44DAF84C10C8F83435D7
:1020C000CA04C8F8387502D50123C8F8003025487D
:1020D000002DA0D1BBE7D9F84C30C8F834455B04DB
:1020E000C9F81040C9F81470C8F83875EFD5D8F899
:1020F000003243F02003C8F80032E8E700263A46F1
:10210000DBF8181020460193CBE9026602F0E4FAEE
:10211000DBF81C20DBF81800D21BC119CBF81C20FF
:1021200002F08CFADBF80420002AD0D0019B029642
:1021300059F803100123CDE903478DF808300596BF
:1021400002A89047DBF84C309904C0D53246594676
:102150004046FFF7B5F9BAE710020A000A00AD0BD6
:102160000B00AD0B0000AD0B7C5400202DE9F041BD
:1021700006461546FFF73AFF1D4B0446984202D02B
:102180002046BDE8F081032130463779FFF794FE01
:10219000184B984205D0A04203D004462046BDE823
:1021A000F081154A07EB870702EB07177B68002BC6
:1021B000E6D13479306804EB840302EB03135B68E7
:1021C000A100002BFDD1D0F81031002BFBD0D0F8AE
:1021D0003C359D4203D9094C2046BDE8F0810123DE
:1021E000214402EB0111BDE8F0411A46FFF70AB99C
:1021F0000000AD0B0B00AD0B7C5400200800AD0BB4
:1022000072B6024A1368013313607047CC54002041
:10221000034A1368013B136003B962B6704700BFFD
:10222000CC540020003918BF0121003A18BF012208
:1022300010B40368084C890041EA42011C635960EC
:102240005A6842F001025A60BFF34F8FBFF36F8F9D
:1022500000205DF8044B704704AAFF004B6802465B
:1022600013F01F0034D1126830B514680D68C4F340
:102270000724A5422AD254685060956091F810C096
:1022800023F01F030CF0010C4CEA030C8B7CDB00E9
:1022900003F018034CEA030C8B68013B23F01F0E7C
:1022A000CB68497C5B00490003F00E0343EA0E0350
:1022B00001F0060141EA0C0143F00103D160136112
:1022C0005460BFF34F8FBFF36F8F30BD012030BD1F
:1022D0000120704703681A6812F47F4FC2F3072C7D
:1022E0000AD000221146586859609A60013294451C
:1022F000D96019615860F6D1002070470722024B5F
:10230000C3F80423704700BF00300050084BD3F8D7
:102310000001D3F80431003818BF01200BB140F0A0
:102320000200034BD3F808310BB140F004007047B2
:10233000003000500022074BC3F80021D3F80011F1
:10234000C3F80421D3F80411C3F80821D3F80831E5
:10235000704700BF00300050002317200C49042BA9
:1023600003F5C07203F10103F9D9402B41F82200B3
:10237000F5D1002317200649012B03F5E07203F184
:102380000103F9D9402B41F82200F5D1704700BF75
:102390000030005010B4890BB1EB903F9DF8044021
:1023A00010D343EA0423094C4FEA903C43EA02105D
:1023B0005FFA8CF202F5C072614544F822000CF11C
:1023C000010CF5D15DF8044B704700BF00300050A0
:1023D00010B401F1604100F160404FEA513CBCEBA8
:1023E000503F9DF804400ED343EA0423074C410BB1
:1023F00043EA0210CAB202F5E0728C4544F82200AA
:1024000001F10101F6D15DF8044B70470030005036
:10241000C0F30D03C3F58043B3FA83F3C3F11B0389
:10242000064AC0F38730DBB240F4807043F4807317
:10243000C2F80005C2F80435704700BF00300050F4
:1024400080037047800300F57F503F30704700BF26
:10245000002070473F2070474FF48040704700BF16
:1024600000F57F40C0304003704700BF034602487C
:102470005B031844704700BFFF1FF81F40207047E0
:102480007F2070474FF40050704700BF044B090293
:1024900041F0300100F5007043F82010704700BF94
:1024A00000300050034B00F50070090243F8201083
:1024B000704700BF0030005008B5FFF727FF024605
:1024C000034B20211A600348BDE80840FEF70EBD0B
:1024D000585F0020984201000422014902F0FCB834
:1024E000585F002008B501F05DFC00B108BD02F0A6
:1024F00033FC50B94FF6F771054AD3680B4043F0EF
:10250000BF6343F40033D36008BD45F2235008BDD8
:1025100000ED00E00020704708B500F097F872B6B3
:1025200020BFFDE70020704700207047704700BFC4
:1025300010B40446034A044B0020146019605DF88F
:10254000044B7047605F00205C5F00202DE9F04F76
:10255000D0E90712D0E90565D0E90EBAD0E91098A4
:10256000476A87B00097876A364B0197C76A1B682E
:102570000297076B446B0397076DD0E912ECC3E930
:102580000965C3E9014BC3E907C7C3E903A9C3E967
:10259000058EC3E90B12009F5F63019F9F63029F3B
:1025A000DF63039F1F64816E846DD0E91775D0E9E6
:1025B0001C62C3E91547C3E91765C3E91912EFF3B4
:1025C00088825A64EFF389814268C3E91212EFF3FB
:1025D0009481026819651A6705A8FFF77DFF01223B
:1025E000184B05981B681849D8660C681A7064085F
:1025F00064002046214622462346B7EE000AF7EE45
:10260000000AB7EE001AF7EE001AB7EE002AF7EE4E
:10261000002AB7EE003AF7EE003AB7EE004AF7EEBE
:10262000004AB7EE005AF7EE005AB7EE006AF7EE2E
:10263000006AB7EE007AF7EE007A05F047F907B0C6
:10264000BDE8F08F605F00205C5F002000B5A1B0A6
:1026500001A8FEF7ABFB029B43B15A0606D4019AD0
:10266000132A03D8084BD340DB0702D421B05DF80E
:1026700004FB064B1B68002BF8D001A8FFF766FF90
:1026800021B05DF804FB00BFA00008005C5F0020E3
:10269000BFF34F8F0549064BCA6802F4E06213434B
:1026A000CB60BFF34F8F00BFFDE700BF00ED00E040
:1026B0000400FA050346012B084604D0032B08D07A
:1026C00023B103207047114600F060B8114600F0B6
:1026D00029B870B5D1E90053082B20D15468042CD7
:1026E0001DD14FF0FF33166829683360B9B16B68AC
:1026F000ABB126237422012000F0D2FA78B9224629
:1027000023230120696800F0CBFA044638B9D5E9E3
:102710000001FFF70DFF03462046336070BD022025
:1027200070BD00BF38B543680C2B22D14B68042B19
:102730001FD14FF0FF3304680D6821682B60C1B1D1
:10274000A268B2B10623012000F0AAFA88B90E4BA4
:10275000616803F1280CD3E90002814203F1080308
:10276000024404D3A06801EB000E964503D96345EB
:10277000F1D1022038BD0246206801F0ADFF0023F0
:1027800018462B6038BD00BFB842010043680C2BCF
:102790002FD14B68042B2CD14FF0FF33026830B49B
:1027A00010680C68236030BB51684D0903D0012DBF
:1027B0001CD14FF6FF7301F01F01CB40DB071DD585
:1027C0009268072A1AD88B23D340DB0716D5C5B1E8
:1027D000012D18D10E4B03EB8101D1F8003223F00B
:1027E000E04343EA02720023C1F80022236030BCB8
:1027F000704702207047032030BC70474FF0FF3312
:10280000F4E7044BE7E70023803153F82130FFDE83
:102810000028845000258450FFF77EBE30B5144652
:1028200085B028B30D46E9B940F60D2211480DF1E7
:102830000E030DF1060CADF80E2004F00F02825CC1
:10284000240903F8012D6345F7D147F630030C2125
:1028500001A8ADF80430FEF749FB002800DB28444E
:1028600005B030BDFEF742FB051EDDDA2846F7E76E
:102870000546D9E7E042010008B5194B83F30A8801
:10288000184800F04DFBF8B9FFF72CFEE0B9FFF750
:1028900041FEC8B9FFF746FE90B9FFF747FE00F0CA
:1028A00015F935211048FEF721FB17210F48FEF7D7
:1028B0001DFB18210E48FEF719FB00F041FC05E056
:1028C000FFF732FE0028EAD0FFF7A6FF21210948D2
:1028D000FEF70CFB00F0E6F800F052F8002008BD0F
:1028E00000240020D0540020F042010028430100C1
:1028F000404301005843010001F00C0370B50C2B5C
:102900000CBF154605464A060C4601F0080621D5BF
:102910008B06B6FA86F358BF2835AA695B0912F808
:10292000026CB3EBD61F0CD1402E0ED0412E14D129
:1029300000F0B4FD04461048214600F025FC204676
:1029400070BDFFF769FF402EF0D1284600F0FEFB76
:10295000204670BDFFF760FF56B120210748FEF703
:10296000C5FA6FF08300286000F02EFF204670BD8E
:10297000FFF752FFF1E700BFF82B00207C43010076
:1029800041DF704770B572B6BFF36F8F1446EFF337
:102990000B855FF0000C002A1FBF8CF30B886C4680
:1029A000954683F30B880F4A0123136062B6BFF389
:1029B0006F8F0E4600F0CEFD72B6BFF36F8F3146BB
:1029C00000F0E2FD5FF0000C002C1EBF8CF30B88C2
:1029D000A54685F30B88034C0025256062B6BFF33E
:1029E0006F8F70BDD4540020402010EA0E0023D019
:1029F00001B501F0BDF8BDE8044088421CD072B6B4
:102A0000BFF36F8FEFF309821EF020031CBF22E992
:102A1000F00F083A80E80440B1E804401EF02003BB
:102A20001CBF0832B2E8F00F0B6882F3098883F309
:102A30000B8862B6BFF36F8F704700BFEFF308805B
:102A40007146EFF30982EFF30B830CB406B4FFF782
:102A500053FF864606BC0CBC00F0080001F00801DC
:102A6000401A01DC12DB70470CB41EF020031CBFBF
:102A70002DE9F00FBDF1080D094C254626462746E5
:102A8000A046A146A246A34630B4704730BC1EF013
:102A900020031CBF1DF1080DBDE8F00F06BC7047F8
:102AA000A5EDF5FE00216020074BDA6882F07F4239
:102AB00082F47F0242F48042DA6019765976D97640
:102AC000D97783F82200704700ED00E04FF0E02056
:102AD0000D4A0E4BD2F8881041F47001C2F88810EC
:102AE000D2F88C1041F44061C2F88C105A6B42F05D
:102AF00080425A635A6B42F03C425A63C36843F4C3
:102B00002003C360704700BF00ED00E000EF00E06D
:102B100080EA0000E1EE100A00EE100A00EE900AD2
:102B200001EE100A01EE900A02EE100A02EE900A7F
:102B300003EE100A03EE900A04EE100A04EE900A67
:102B400005EE100A05EE900A06EE100A06EE900A4F
:102B500007EE100A07EE900A08EE100A08EE900A37
:102B600009EE100A09EE900A0AEE100A0AEE900A1F
:102B70000BEE100A0BEE900A0CEE100A0CEE900A07
:102B80000DEE100A0DEE900A0EEE100A0EEE900AEF
:102B90000FEE100A0FEE900A704700BF009A164B16
:102BA0009A4227D101229043014641EC100B41EC9F
:102BB000110B41EC120B41EC130B41EC140B41ECEB
:102BC000150B41EC160B41EC170BEFF3148222F0BE
:102BD000040282F31488BFF36F8F02460346044653
:102BE0000546064607468046814682468346844619
:102BF00086460447FEE70000A5EDF5FE00283BD021
:102C0000002939D083682DE9F041C3F380230646BB
:102C1000006A43F002030B6058B30024DFF86080C1
:102C2000254606F1300703E0A84204F10C0420D940
:102C3000D6E9063202EB420207EB830303EBC20341
:102C40001A19926801351207EED51B59434503D076
:102C500043F6DA30BDE8F081D8F80030002BE3D03D
:102C6000C3F307300121FFF711FC306A0C34A8428E
:102C7000DED80020BDE8F08143F6DA30704700BFAF
:102C8000D44D0020EFF3148381F00201C1F3400121
:102C900061F3000383F31488BFF36F8F0020704744
:102CA000002A00F0AD802DE9F0410D46C10716461F
:102CB00016D480F0020003F00602C0F3400C062A8E
:102CC0004FEA8C0C18D09A072ED54CF008042246F7
:102CD0003146284604F096FDB8B10020BDE8F081E9
:102CE000EFF3948C4FEA8C0C03F006020CF0040C0A
:102CF000062A4CF0120CE6D14CF001042246314673
:102D0000284604F07FFD0028E7D145E800F32E4473
:102D1000180E1B0206F1FF3141E800F24FEA12677C
:102D200005D46FF07F00D9E74CF2DA20D6E7130222
:102D3000F7D58742F5D045E800F841E800F10F0EDD
:102D4000FFF786FB4FEA1868804503D3FFF782FB45
:102D5000874231D9FFF792FB8045E2D3FFF790FB22
:102D60008742DED84046FFF781FB0346C5F10101EB
:102D700028462246194404F045FD0028D1D008F128
:102D800001050DE02846FFF76BFB8046FFF77AFB55
:102D9000224601464046013504F034FD0028C0D0EB
:102DA000AF42EFD83846FFF75BFB2246311A04F0FA
:102DB00029FD002891D1B4E74046FFF743FB0346C5
:102DC000C5F1010128462246194404F01BFD0028E4
:102DD000A7D008F101050DE02846FFF731FB80463A
:102DE000FFF73AFB224601464046013504F00AFD52
:102DF000002896D0AF42EFD83846FFF721FBD4E742
:102E000000207047F0B5012587B03A48FFF762FA15
:102E100000224FF44076384C8DF816202368354850
:102E200001932B442360354B01A9DA681B69049593
:102E3000ADF8146002920393FFF710FA002855D101
:102E400023688DF816000193013323602C4B294829
:102E500002932C4B01A90495ADF814600393FFF77E
:102E6000FDF9002842D123688DF816000193013343
:102E70002360254B1F480293244B01A90495ADF80C
:102E800014600393FFF7EAF900282FD140F20116EE
:102E9000022723688DF816000193013323601C4B31
:102EA000144802931B4B01A90393ADF814600497D7
:102EB000FFF7D4F9D0B92368174A0193013323608F
:102EC000164B8DF8160001A90A48CDE90223049794
:102ED000ADF81460FFF7C2F9044638B92A4629460E
:102EE0000448FFF79FF9204607B0F0BD43F6DA30FB
:102EF00007B0F0BDD04D0020D8540020C8430100D9
:102F000000440100407B0100E0080100E0080100EE
:102F1000203C0020403C0020003C0020203C0020C1
:102F200010B5044600F094F800F0A2F840B900F0A3
:102F3000CBF828B9FFF766FF10B90223236010BD54
:102F400043F6DA3010BD00BF884208D0830704D5AD
:102F500081F00201C1F3400070470120704700205A
:102F6000704700BF08B5FFF7A7FAFFF7E3F908229B
:102F7000034BC3F88021BDE80840FFF74DBC00BFFC
:102F800000E100E0EFF30880EFF309812DE9F00F95
:102F90006B467246FDF710FF08B0FFF7E3FFFEE750
:102FA0000020034BD8765A6A42F470225A62704766
:102FB00000ED00E00349044BCA68002092B21343BD
:102FC000CB60704700ED00E00800FA0502220849D6
:102FD00010B4084B0C680020C3F84445C9695DF87B
:102FE000044BC3F84C15C3F84025C3F84825704777
:102FF0000080FF000060005000234FF0FF300D49BB
:1030000003F1A0020133102B41F82200F8D1D1F8CE
:103010008032002023F00803C1F88032D1F88032DA
:10302000D1F8803223F48073C1F88032D1F8803235
:10303000704700BF00E100E008B5FFF75FF9082224
:10304000024BC3F880211A60002008BD00E100E0B7
:10305000064BD3F8D02022F00102C3F8D020D3F8D9
:10306000D02042F00202C3F8D020704700ED00E00B
:1030700030B50125104C83B0FFF76EF9D4E901019A
:10308000072300220095FFF785F9072300220B494B
:103090000B480095FFF79CF9D4E903010139FFF7CC
:1030A000B7F94FF470200723002206490095FFF777
:1030B00071F9002003B030BDC8430100FFFF0720B5
:1030C00000A00020FFFF0F0070B5194C04F1290586
:1030D00014F8010F0021FFF7E5F9AC42F8D1012106
:1030E00000204FF48075134B134CC3F88004C3F8D1
:1030F0008414C3F8C004C3F8C414C3F8C804C3F8E4
:10310000CC14D4F800220D4E22F0E04242F040529E
:10311000C4F80022D4F8042222F0E04242F04052E7
:10312000C4F80422C6F80015C3F8405470BD00BFAF
:103130009B430100003000500025845000100050D7
:103140000122014B1A607047DC54002010B5044680
:103150000B4A062312686168526852F8140C2289DF
:10316000FFF79EFD18B9074B1B68012B02D0032304
:10317000236010BD00F04EF90323236010BD00BF93
:10318000B4590020DC54002004460D46FFF7C0FC73
:10319000A5462847036923B14FF0EE32196042611A
:1031A000704703689962704704484FF0805101608E
:1031B000BFF34F8FBFF36F8F7047000004ED00E047
:1031C0002DE9F84304681E468368DFF850C0904636
:1031D000A4F150029A4244F808CC44F804CC0546C5
:1031E0000F46A4F1080416D3A4F14809482200218F
:1031F000484601F0ADFA4FF080726FF0020344F8D8
:10320000208C44F8087C44F80C6C44F8042CC5E984
:103210000093BDE8F883FFF7FFFAE5E7A5EDF5FEBB
:10322000836883F30B880368283383F30988406835
:10323000704700BF074A10B41368074C013303F00E
:103240000703001B591C01EBC0005DF8044B136021
:10325000704700BFE0540020E454002010B5064839
:1032600000F000FD044628B18022002101F070FA30
:1032700000232360204610BDE4540020014610B511
:10328000EFF3108472B6034800F0F8FC84F3108862
:1032900010BD00BFE454002030B58646EFF3108522
:1032A00072B6406CF8B14FF0000C64460EF1440267
:1032B00083681B685B69994208BF144600F17C0271
:1032C000C06F08BF0CF1010C0028F1D15CB120687F
:1032D000BCF1010FC36F236005D1DEF8143023EA7F
:1032E0000103CEF8143085F3108830BD70B40C4E55
:1032F00075689DB101462B46002403E098681C4682
:1033000050B103461A6852688A42F7D11CB19A68D4
:103310007360A2609D60184670BC70472846FBE74A
:10332000905900200368D3E90223520505D58B424A
:103330000CBF00206FF0FA0070478B422CBF0020BA
:103340006FF0FA00704700BF38B52AB10B689B6870
:10335000DB0517D5002038BD0D4B04461B685D68A2
:103360001C2D12D055F81C2C906958B100232C321A
:1033700002E00133834203D052F8041FA142F8D186
:103380009842E7D16FF0FC0038BDFFF745FAE9E756
:10339000B459002010B5D0B1104B441E03EBD40437
:1033A00021460E4800F070FCB0B10D4B1B685B6805
:1033B0001C2B0ED053F81C3C5BB15B68A2685268B2
:1033C000126852689A4218BF0024204610BD044675
:1033D000E6E74FF0FF33F1E70446F6E7E454002058
:1033E000B4590020F8B504461E460F461546002184
:1033F0002C220C3001F0ACF9054B069A1B68A76033
:103400005B68C4E903651C3B62616360F8BD00BF93
:10341000B4590020064B1B685B681C2B04D053F882
:103420001C3C0BB1586870474FF0FF30704700BF2D
:10343000B4590020094B10B51B685C681C2C05D0E2
:1034400054F81C3C9868C0F3802010BDFFF7E4F9E5
:1034500054F81C3C9868C0F3802010BDB45900207B
:1034600038B5044698B90C4B1B685B681C2B08D018
:1034700053F81C3C2BB15D68B4EBD57F03D12846D3
:1034800038BD4FF0FF35FFF7C7F9284638BD00F0CB
:1034900079FC0546F0E700BFB45900202DE9F04162
:1034A0000823802240F22C41164800F0A7FB00239D
:1034B000154E164FDFF8588073607B6000F066FC95
:1034C00003E02946204600F0A1FA304600F098F8C3
:1034D000044690B139468023424600F007F905467C
:1034E000204600F06FF9214651F8080BFFF786FBE4
:1034F0000028E6D0FFF790F9E3E7BDE8F04100F0DF
:1035000001BB00BFE4540020A059002090590020C6
:1035100010590020002300F12802C0F1040C52F8D9
:10352000041B91B110B4816F5CF812401944083348
:10353000202B4C6006D052F8041B0029F3D108332D
:10354000202BF8D15DF8044B70470833202BE6D1CF
:10355000704700BF0A4B0B4A1B6810B55B680446F6
:10356000A3F11C0C5A61D1E90223CCF82C10D1E94B
:103570000001A047044600F027F9204610BD00BF17
:10358000B4590020EDEEEEEE10B5094C094B22685F
:10359000526852699A4208BF086000F091FB2368A4
:1035A000834203D0BDE81040FFF7FEBD10BD00BF51
:1035B000B4590020EDEEEEEE70B505460C46EFF383
:1035C0000583C3F30803B3B90C4B1A689368A3428D
:1035D00002D2D168A14206D221462846BDE87040F9
:1035E0001268FFF7CFB9002321462846BDE8704096
:1035F0001A46FFF7C7B9FFF70FF9E5E79C59002016
:10360000F8B50546002864D0334E346814F1290F0C
:103610005CD8324A04F1280311688B4256D2E26921
:10362000A36902EB42020C3303EB4203226A02EB72
:1036300042021344626A02EB820213449B00E318C5
:1036400001D2994201D2FFF7E7F8236824491A0C06
:1036500012048A4228D19BB2B3F5817F2BD26368D2
:10366000002B2DDB1F4A204B1768196807F14C030C
:103670008B42136027D8E269A36902EB42020C3344
:1036800003EB4203D4E9081201EB41010B4402EBC6
:103690008202134432683C6002EB83026B68384656
:1036A000BB6432606F60F8BDFFF7B6F823689BB269
:1036B000B3F5817FD3D3FFF7AFF86368002BD1DA7E
:1036C000FFF7AAF8CEE7FFF7A7F8D4E700273846B8
:1036D000F8BDFFF7A1F897E7E44D0020EC430100A7
:1036E00000005F5FE04D0020E84301002DE9F04F4E
:1036F00085B0804689461746039300285AD0002992
:1037000058D0D8F800202D4802F13005D2E9063112
:103710000468029205EB8305002945D0284B01EB94
:1037200041021B6804EB82029A42026036D8002CE8
:103730003AD04FF0000B5E460020AB686A6913F484
:10374000007FC4E9005806F10106A0604BEA020BB5
:1037500005F118055FFA83FA13D017B1039A802A8E
:1037600003D00193FFF758F8019B13F0E00F02D14B
:1037700057F82A300BB1FFF74FF8029BD96947F889
:103780002A40D9F80430B142A360C9F8044004F1DA
:103790000C04D1D8584605B0BDE8F08FFFF73CF8CF
:1037A000029BD9690029C2D14FF0000B584605B0E1
:1037B000BDE8F08FFFF730F8A3E700BFDC4D002035
:1037C000E4430100704700BF8230012800D97047F0
:1037D00008B5FFF72FFE00B108BDBDE80840FFF7B0
:1037E0001BB800BF002070470C4B70B51B68054626
:1037F0005C680E4654F8102C1C3C0AB102420AD0F8
:10380000002E02DB6069284070BD29462046BDE8D5
:10381000704000F09BB9FEF7FFFFF1E7B4590020BC
:1038200070B504460E4600B3431E03421DD1184A2C
:10383000062311682C224D68314655F8140C1C3DA6
:10384000FFF72EFAA0B96B69BBB16B69234219D09F
:1038500021462846FFF720FD0146B0B12C22304614
:103860000C3100F039FF002070BDFEF7D5FFDEE718
:10387000FEF7D2FF6B69002BE7D1FEF7CDFF6B6936
:103880002342E5D1FEF7C8FFE2E76FF08B0070BD81
:10389000B4590020F8B505460F46FFF77BFD0446F6
:1038A000002845D0A668002E47D0E368991C16D0A2
:1038B0005A1C18D18FBB15F1810F23D0EFF310865E
:1038C00072B62946204600F093F8054686F3108824
:1038D0002368022B1CD0002328462360F8BD022356
:1038E00023600025EAE7002B1FDB2046FFF712FECE
:1038F00033683D469B689B0544BF0223236015F156
:10390000810FDBD16369002BD8DBFEF785FFD5E79C
:103910002046FFF7B3FC2846F8BD17F1820F0FD001
:1039200017F1830F01D13D46C8E7FEF775FFD8E7D1
:10393000FEF772FFA668002EB7D1FEF76DFFB4E761
:1039400002233D462360B9E7FEF7E6BD10B44368A5
:1039500040781C3BEFF3108C72B61C695A69224008
:1039600007D1002C18BF02208CF310885DF8044B9F
:103970007047022A04D158691A6C20F0020058617D
:1039800000240A6005201C618CF310885DF8044B4C
:10399000704700BF29B320B3026812B338B543683B
:1039A00013B30C46596C5269E1675C64EFF3108104
:1039B00072B6586902435A6181F3108865686DB127
:1039C000EFF3108372B66A6992075CBF02222A6124
:1039D00083F3108801230020236038BDFEF71CFF0D
:1039E000EEE76FF0800070476FF0800038BD00BFD9
:1039F00043681964EFF3108172B65A6942F002020B
:103A00005A6181F310880020704700BF00232DE920
:103A1000F047044602684364956A1069354E2844AD
:103A2000073525F0070520F00700C4E90950E568CF
:103A300026630D439168D2F8188001F4406C5FFA58
:103A400081FE11F40071D2F80C9082B02362E3621F
:103A5000E56004F11C0631D1D769DFF8A0A0BD00F4
:103A600005F1130323F00703C01AE061C0E9009ACF
:103A700081606FB102F130030C3503EB880305441C
:103A800000F10C021969183342F8041B9542F9D170
:103A90000023BCF5406F87601749A06184F834E0CB
:103AA000A66384F83530E3861BD06FF0010204F181
:103AB000340002B0BDE8F04700F028B90F49A0F18A
:103AC0001002BCF5406FE26140E9049140F8083C07
:103AD0004946A26184F834E084F83530E386A66371
:103AE000E3D1074B01911E6000F080F90199034674
:103AF000DBE700BFEDEEEEEEB14C010068790100AE
:103B00009C59002038B50D480D4D00F0D3F80D4BF1
:103B10000D4A28461A6000F027F92B6804465B68B6
:103B200053F8141C53F81C0CFFF7ACF808B92046E6
:103B300038BDFEF771FE204638BD00BF4D3901008B
:103B4000B459002098590020003C002038B50446A4
:103B50000D4648B1EFF3108372B66069284008BF84
:103B6000256183F3108838BDFEF756FEF2E700BFEB
:103B70002DE9F84300F0A4F81D4FA0F134063B688E
:103B80005D681C4B29461B68012B1AD00446C0B146
:103B9000A5F11C08B04514D0EFF30982AB682833B7
:103BA000934217D8EFF3108972B6D8F80800B168BD
:103BB000FFF7CAF988B9B0EE400A3C60616889F342
:103BC00010880D4B1B6813B1B26902B11A60284608
:103BD000BDE8F883FEF720FEE4E7B16854F8340C42
:103BE000FFF750F80028E6D0FEF716FEE3E700BF27
:103BF000B4590020D45400209859002070B32DE906
:103C0000F84F1E463BB3171D03FB07FA0AF10C03DE
:103C10008B428B4691461ED1804600240A460021E5
:103C200000F096FD08F10C039C46A64600E0AC4669
:103C30000EF1010E7645CCF800400CEB070564460A
:103C4000F5D10020AAEB070A5344C8E90039C8F8A7
:103C500008B0BDE8F88F6FF0F800FAE76FF0F800F1
:103C6000704700BF034638B1006828B100220168E0
:103C7000196040F8042B7047704700BF02680B1FA3
:103C800041F8042C0360704700F10C0399420FD3F4
:103C90008268C91A8A420BD943680433B1FBF3F234
:103CA00003FB1211A1F10400B0FA80F04009704743
:103CB00000207047014B1860704700BFA8590020D2
:103CC000002330B50F4A83B014680193B4B10E4D90
:103CD00003E001280FD0A46884B120462B6801A915
:103CE0009847C0B205286070F3D101996068FFF76A
:103CF00051FA01236370204603B030BD00242046F2
:103D000003B030BDAC590020A85900209C4670B5C6
:103D1000134E134634680546624624B190F800C03D
:103D20002078604513D3AC6035606868FFF748FAC7
:103D300001210C4B69701A6822B1297812789142DE
:103D400028BF35681D6070BD2078604503D2A64647
:103D5000A468002CF8D1AC60CEF80850E5E700BFAD
:103D6000B0590020AC59002038B50546FFF7A8FF30
:103D70000446FFF719FA05B12C606068BDE83840C9
:103D8000FFF74EBA4FF0FF30704700BF08B500F0A4
:103D900021F8034B986000F023F880F3888808BD71
:103DA00000ED02E008B5FFF7FBF878B9FFF702F97C
:103DB00060B9FFF70BF948B962B6FDF7AFF8FFF746
:103DC0001BF918B9FFF738F900B908BD43F6DA3026
:103DD00008BD00BF014B1868704700BFC843010011
:103DE000014B1B6818687047C8430100014B1B68F2
:103DF00058687047C84301002DE9F04F89469BB0D1
:103E0000039305461446FFF715FB7F4BC9F30728BC
:103E10001B685E684FEA192304935FEA2943059300
:103E200070D45FFA89FA08EB0A03042B6AD8002DD4
:103E300068D00746FFF714FB6B00069062D5734B02
:103E400005F01F0253F82290B9F1000F5AD0D9F8AB
:103E500000303A4649465868FFF776FA002840F0A5
:103E6000C0804846C5F30721FFF75CFA002849D116
:103E7000EFF3108572B6FFF7F1F9079085F310881C
:103E8000002800F0B180FFF7D5F907464FEAC805D2
:103E900002232A46214656F8140C1C3E0897FEF7CA
:103EA000FFFE78BB039F4FEACA0B06235A463946EA
:103EB000B068FEF7F5FE099020BB202200210AA879
:103EC00000F046FC2022002112A800F041FC2A4606
:103ED00021460AA800F000FC5A46394612A800F014
:103EE000FBFBB8F1000F12D00AAC671901E0BC422D
:103EF0000DD0D4E900120223B068FEF7D1FE0834D9
:103F00000028F4D06FF080001BB0BDE8F08F049B58
:103F100013F0FE0F1BD001270AABB8451D440CACB3
:103F200010D9234654F8080CD3E900120A449042F1
:103F300003F1080304D254F8042C02449142E1D363
:103F4000AB42F1D10137B84504F10804E9D8BAF120
:103F5000000F4CD012AC0BEB040501E0AC4209D0D1
:103F6000D4E900120623B0680834FEF799FE002851
:103F7000F4D0C7E7069B49460093089A059B07982B
:103F8000FFF730FAB8F1000F13D007990AAB01F12F
:103F9000140201F1380009995C6842F8044F53F8A3
:103FA000084B40F8314001318845F5D8BAF1000F8F
:103FB0000FD00024079912AA0B468B442431506875
:103FC00041F8040F52F8080BC3E9160408335B45A7
:103FD000F5D1079B039A194648469A67FFF7DAFC22
:103FE00092E76FF081008FE76FF082008CE7069B0D
:103FF00049460093089A059B0798FFF7F3F9B8F133
:10400000000FC2D1E5E700BFB459002010590020CD
:1040100040F20110704700BF70B50546FFF70AFA7D
:1040200006462846FFF762F948B104460146324683
:104030002846FFF789F910B92368D86870BD0020B9
:1040400070BD00BF2DE9F047214C0D462468904615
:10405000D4F804901F46FFF79DF9044690B3E36837
:10406000002B2CDB032D27D804EB850ADAF8186027
:1040700016B93046BDE8F08706233A46414659F85E
:10408000140CFEF70DFE00BBDAF818303E469F42D6
:1040900028BF1E4604EBC50440463246A16B00F023
:1040A0001BFBA36B30463344A363DAF818309B1B29
:1040B000CAF81830BDE8F087FEF7AEFBD4E7FEF78C
:1040C000ABFBCFE7FEF7A8FBC9E7FEF7A5FBDBE7F5
:1040D000B459002070B50E461546FFF75BF904464B
:1040E000D8B1E368002B15DB032E10D804EB860350
:1040F000986958B185422A4628BF0246851A10465B
:1041000004EBC604A16B1144A1639D6170BDFEF771
:1041100083FBEBE7FEF780FBE6E7FEF77DFBE0E7DE
:104120002DE9F8431E4C0F462468914664681D46ED
:10413000FFF730F9A4F11C08044668B3E368002BCC
:1041400027DB032F1CD804EBC70604EB8704A36A04
:10415000F26D9B1AAB4219D302232A464946D8F87E
:104160000800FEF79DFD70B9D6E9160349461844CC
:104170002A4600F0B1FAF36D2B44F365BDE8F883ED
:10418000FEF74AFBDFE7FEF747FBEDE7FEF744FBF0
:10419000E2E7FEF741FBD4E7FEF73EFBCEE700BFC8
:1041A000B4590020000000010101000001000000DE
:1041B000464154414C204552524F523A2000000093
:1041C0005365637572654661756C740D0A00000075
:1041D000486172644661756C740D0A004D656D4DE1
:1041E000616E616765206661756C740D0A00000080
:1041F0004275734661756C740D0A000055736167F2
:10420000654661756C740D0A0000000052657365A7
:104210007276656420457863657074696F6E2000FE
:10422000506C6174666F726D2065787465726E6132
:104230006C20696E746572727570743A20000000AB
:10424000490F0100650F010089120100B50F01003F
:10425000910F01003D12010089110100690F010059
:104260009D0F0100A90F0100CD0F0100710F01008A
:104270007D0F0100850F01000C0000000B00010004
:104280000A0002000900030003020202000000000D
:104290000338FDD870470000506C6174666F726D12
:1042A00020457863657074696F6E3A2053505520CD
:1042B0004661756C740D0A000000010000020000E8
:1042C0000002FF002C0000005004FF00100000005E
:1042D0003001FF0008000000200CFF000400000077
:1042E000303132333435363738394142434445462C
:1042F0001B5B313B33346D5B5365632054687265DF
:1043000061645D2053656375726520696D616765E1
:1043100020696E697469616C697A696E67211B5BDB
:10432000306D0D0A0000000054462D4D20466C6F84
:104330006174204142493A20486172640D0A0000CC
:104340004C617A7920737461636B696E6720656E66
:1043500061626C65640D0A001B5B313B33346D4256
:104360006F6F74696E672054462D4D2076312E385C
:104370002E301B5B306D0D0A00000000556E6B6E19
:104380006F776E20535643206E756D626572207292
:104390006571756573746564210D0A000004050973
:1043A0000B0C0A0E0F101114151718191A1B1C1DCF
:1043B0001E1F202122232426282A2B2D3033343679
:1043C000373942428100000000C0010000C00100F6
:1043D000FFFF0E00007C01000080010000000F00C4
:1043E000FFFF0F00DC4F0020C44F00205C040100E1
:10440000009A214B9A4208D110B500F0D1F900F082
:10441000C1F806BC96460C4674470FDFFEE700BFA6
:10442000009A194B9A4208D110B500F0C9F900F072
:10443000B1F806BC96460C4674470FDFFEE700BF96
:104440000CB4029A104B9A4209D10CBC10B500F082
:10445000BFF900F09FF806BC96460C4674470FDF84
:10446000FEE700BF009A084B9A4202D1074908684C
:1044700074470FDFFEE700BF009A034B9A4200D15A
:1044800074470FDFFEE70000A5EDF5FEA04D00200C
:104490000348044B834202D0034B03B118477047D3
:1044A000C84E0020C84E0020000000000548064B02
:1044B0001B1AD90F01EBA301491002D0034B03B122
:1044C00018477047C84E0020C84E0020000000006A
:1044D00010B5064C237843B9FFF7DAFF044B13B14C
:1044E0000448AFF300800123237010BDDC4F00208F
:1044F00000000000247B010008B5044B1BB10449F7
:104500000448AFF30080BDE80840CFE7000000009A
:10451000E04F0020247B0100A3F5803A704700BFE4
:10452000174B002B08BF134B9D46FFF7F5FF0021EB
:104530008B460F461348144A121A00F009F90E4B25
:10454000002B00D098470D4B002B00D0984700203F
:10455000002104000D000D48002802D00C48AFF3E4
:10456000008003F02BF920002900FEF785F903F005
:1045700011F900BF0000080000000000000000006A
:10458000F82B0020E04E00202C6A002000000000E4
:1045900000000000002383F300887047FEF73CB959
:1045A000EFF30880EFF309812DE9F00F6B467246B7
:1045B000FCF702FC08B0FFF7F1FFFEE7FEF72CB9AD
:1045C000EFF30880EFF309812DE9F00F6B46724697
:1045D000FCF7F2FB08B0FFF7F1FFFEE7FEF71CB9AE
:1045E000EFF30880EFF309812DE9F00F6B46724677
:1045F000FCF7E2FB08B0FFF7F1FFFEE7FEF70CB9AE
:10460000EFF30880EFF309812DE9F00F6B46724656
:10461000FCF7D2FB08B0FFF7F1FFFEE7FEF7FCB8AE
:10462000EFF30880EFF309812DE9F00F6B46724636
:10463000FCF7C2FB08B0FFF7F1FFFEE7814201D3B0
:1046400000F04AB81346024401EB030C30B50446AF
:104650000D461046E646ABB14CEA0201890715D07B
:1046600005E01EF0030F0FD01A1905EB030C1CF820
:1046700001EC013A0CF1FF3C013B82F800E04CEA0E
:10468000020EEED1204630BDE6461046032B15D96A
:104690007246191FAEF1040C21F00301ACEB010CC2
:1046A000851AA918964652F8040D944541F8040C51
:1046B000F7D113F00303E5D09646081F7146AEEB21
:1046C0000302451A11F8010C4B1901398A4203F80B
:1046D000010CF7D1204630BDCAB310B540EA010441
:1046E000A40703460CD004E043EA010C1CF0030FBE
:1046F00006D011F801CB013A03F801CBF4D110BD7B
:10470000032A17D98C46A2F1040E2EF0030E0431B1
:104710008E44A3EB0C03DCF8004043F80C4003EBA1
:104720000C040CF1040CE645F5D112F00302E6D0BE
:104730006146231D8C461144A3EB0C039CF800201A
:1047400003F80C200CF1010C6145F7D110BD704746
:10475000C9B230B501EB012404EB044462B1830714
:1047600084460AD002E013F0030F07D06346013AF3
:1047700003F8011B9C46F6D130BD0346032A11D92C
:10478000A2F1040E2EF0030E03F1040CE6441D46C4
:104790001C6063469E450CF1040CF8D112F0030234
:1047A000EAD02B1D1A4403F8011B9342FBD130BD04
:1047B000024B1B685B689B68184700BF003C0020E9
:1047C000024B1B685B685B68184700BF003C002019
:1047D00010B4044C246864682468A4465DF8044B53
:1047E000604700BF003C0020024B1B685B68DB6831
:1047F000184700BF003C0020024B1B685B681B6928
:10480000184700BF003C002010B4044C24686468C2
:104810006469A4465DF8044B604700BF003C00207B
:1048200010B4044C24686468E469A4465DF8044B41
:10483000604700BF003C0020024B1B685B681B6A9E
:10484000184700BF003C0020024B1B685B685B6A96
:10485000184700BF003C00200F4B02689A4206D167
:10486000C269A3F11023A3F1EF139A4201D00120F2
:1048700070478368012BFAD8C36813B10269934269
:10488000F5D043692BB18069C01AB0FA80F04009B5
:1048900070471846704700BF55AA00FFF8B5164B81
:1048A000996829B10846FFF7D7FF08B9CB680BB163
:1048B0000120F8BD0B69002BFBD0104DDFF840C084
:1048C0001A68AA42F4D1DA696245F1D19A68012ADC
:1048D000EED8DC68002CEBD01A699442E8D05F690E
:1048E00017B19E69B742E3D08C42E1D11946002A44
:1048F000DFD01346E4E700BFB859002055AA00FFF7
:10490000669911EE002865D070B5374D2B68002BE5
:1049100054D0AA68002A51D08342014661D86A68FF
:10492000134498425DD2A0F120063046FFF794FF71
:10493000002856D151F8183C012B52D151F8144C93
:1049400041F8180C51F8100C002C38D0A368002B3B
:1049500035D151F81C2C6368203213442061636008
:1049600000B1C460202200213046FFF7F1FE20692B
:10497000F0B18368E3B9264642687368134402695C
:10498000203373603261D6E9051331B38B6103B113
:104990005961416983697161B361E1B18E61B36944
:1049A00003B15E6102B1D66020220021FFF7D0FE84
:1049B0002B699B0702D5FFF771FF90B970BD10B14D
:1049C0008368002BD8D0EB6841F8083C03B15E61E6
:1049D000EE60EDE77047EE60E2E7002BD9D0EB60C8
:1049E000D6E7012002F0D6FEB85900202DE9F84F95
:1049F0003E4D2B68EC68002B40D0AB68002B3DD0BF
:104A000000283BD0002939D001FB00F6B6FBF0F0BE
:104A1000884233D1301D31D8B10733D026F003019D
:104A2000043114B92BE0A4694CB363688B42FAD308
:104A3000D4F808C0BCF1000F55D1A0695B1A232B34
:104A40008146676920D80123A360002F47D0B86151
:104A5000A06900B1476100232A696361D207A3619D
:104A600003D5FFF71BFF00283DD12034324600213B
:104A70002046FFF76DFE2046BDE8F88F0024204653
:104A8000BDE8F88F3146CCE7D4F8108001F1200E54
:104A9000DFF85CB0DFF85CA004EB0E02203BC2E95B
:104AA000013CC2E9034844F80EB0C2F81CA0B8F1BA
:104AB000000F01D0C8F80C20C2F81890576187B1D8
:104AC000BA61906900B14261002361602969226185
:104AD0000122C4E90533CB07A260C6D5C1E7E8606F
:104AE000B7E7EA60EEE7012002F054FEB859002073
:104AF00055AA00FF669911EE38B50D461422002123
:104B000004461148FFF724FE1049114800F030F820
:104B1000232D18D914F0030304D0043DC3F104027B
:104B20001D4414442A4600212046FFF711FE064B7F
:104B3000084A0948A5F12001C3E901541C60E0615D
:104B4000C4E90021DC6038BDB859002005490100E6
:104B5000ED49010055AA00FF669911EE002070474B
:104B6000704700BF014B1B68184700BFE84D00208D
:104B700010B40446034A044B0020146019605DF829
:104B8000044B7047EC4D0020E84D002038B504463A
:104B9000406A18B1A16A00F05DF9606AFFF7E2FFB0
:104BA0000021236A2C22012B14BF6FF096050D46BD
:104BB0002046C4E90911FFF7CBFD284638BD00BFE8
:104BC000064B0A4693F800C01CF0010F03D00146C3
:104BD000181D00F059B86FF088007047CC590020BC
:104BE00038B5134D2B78DB0702D50024204638BD9D
:104BF000281D00F047F8044618B900F01DF80446D7
:104C000060B100F025F80B4800F050F80821084882
:104C100000F020F900F034F8204638BD00F02EF8FE
:104C200004460028EDD12B7843F001032B70DCE71C
:104C3000CC590020D0590020044A002092F8803539
:104C400043F0010382F88035704700BFD45900203B
:104C5000F8B5094F01263C4607F5B06526622046A7
:104C60002C34FFF793FFAC42F8D197F880356FF3FF
:104C7000000387F88035F8BDD45900200020704724
:104C8000704700BF0020704710B582B0002001AB14
:104C9000144600F0B3F830B9019BA34218BF6FF07F
:104CA000930002B010BD6FF09200FAE70020704749
:104CB0002DE9F04F4FF0010A264B8FB0D3F800904A
:104CC000D9F80820D9F800300AFA02FA0AF1FF32BE
:104CD000019213B19847002838D1012709F10C0B34
:104CE0004FF000410198FFF77FFD06460028F7D0FE
:104CF000DA460024D9F80820A24207FA04F508D9B8
:104D0000354209D10134A2420AF1040A07FA04F536
:104D1000F6D8FFF799FDE3E7DAF80020013492B105
:104D200003A92846FFF768FD5AF8042B03A8DDF80D
:104D30001080904701464046FFF77EFDAE43CFD03E
:104D4000D9F80820D8E7FFF77FFDE9E7FFF77CFDFA
:104D5000C3E700BF003C002010B50C4C236813B122
:104D60000B4B1B682BB900F07DFD30B90122084BBD
:104D70001A6001232360002010BD0138072801D9E3
:104D8000044810BD044B53F8200010BD685F00209C
:104D9000645F0020FE8FFFFF94790100144B2DE922
:104DA000F043002814BF04461C46124F236883B00A
:104DB000BB4219D016460D4620464FF4E07104F16F
:104DC000040900F047F804F58E78484600F02AFC04
:104DD000404600F04DFA2B464A46404606490096AA
:104DE00000F05CFA08B92760002003B0BDE8F0834A
:104DF0006C5F0020A5BCC95AA956010070B50D4CC6
:104E00001D46002814BF064626460B4B306882B06C
:104E100098420DD106F58E70002633460096144652
:104E200000F08CFA002818BF34462C6002B070BD28
:104E30000248FBE76C5F0020A5BCC95AE88FFFFF62
:104E400038B131B1002201440346013081421A7069
:104E5000FAD1704738B131B1002201440346013024
:104E600088421A70FAD170472DE9F04FB2F5C07F31
:104E7000BDB000F2DA800C46DFF8B491154600218F
:104E80004FF4D07282460DF17C084846FFF760FC73
:104E9000404601F0F9F930232146002409F11806B3
:104EA0002A4689F8173030466BBAA9F81230A9F8AB
:104EB0001040FFF711FC8022234672550DF12B01A3
:104EC00001F8013F0133202BFAD14FF480724046A4
:104ED0000BA901F0EFF98346002840F0A38005F10B
:104EE000190313AD2F4607AE0293CDF80CA001961F
:104EF0000495102200210198FFF72AFCDFF834A165
:104F0000DDF808B005970A9B5AF8044C089F099AE7
:104F100007995AF8100C5AF80C6C5AF8085C5C4067
:104F2000019B7E40554081EA00071A460121404618
:104F3000CDE90776CDE9095401F0DEF9BBF1100F98
:104F400094BFABEB0B0BABF1100B0AF1100A00286E
:104F500047D1BBF1000FD6D1059F102238460199E9
:104F6000FFF7BAFB99F8033010370133474589F84A
:104F70000330BED1049D4FF4807229464046DDF8CF
:104F80000CA0019E01F096F9834678BB54460AF1C5
:104F900030071BAB1A460121404601F0ADF98346AC
:104FA00020BB102220461BA91444FFF795FBA74203
:104FB000EFD1404601F078F94FF4D0711C48FFF76B
:104FC00049FF28463021FFF745FF0BA82021FFF7B6
:104FD00041FF30461021FFF73DFF58463DB0BDE888
:104FE000F08F8346DDF80CA0019E049D404601F041
:104FF0005BF94FF4D0710E48FFF72CFF28463021A3
:10500000FFF728FF20210BA8FFF724FF10213046CF
:10501000FFF720FF30215046FFF71CFF58463DB0F8
:10502000BDE8F08F13AD07AEE0E76FF0370BF5E7A3
:105030002C6100203C6100202DE9F0418CB0044639
:105040000D463022002168466F46FFF781FB04F1D0
:105050002006E27B0132D2B2E273002A4DD1A27B5C
:105060000132D2B2A273002A47D1637B0133DBB293
:105070006373002B41D1237B0133DBB22373002BFD
:105080003BD1E37A0133DBB2E372002B35D1A37A53
:105090000133DBB2A372002B2FD1637A0133DBB271
:1050A000637253BB237A0133DBB223722BBBE379E8
:1050B0000133DBB2E37103BBA3790133DBB2A3712C
:1050C000DBB963790133DBB26371B3B9237901339F
:1050D000DBB223718BB9E3780133DBB2E37063B9E0
:1050E000A3780133DBB2A3703BB963780133DBB241
:1050F000637013B92378013323703B4622460121A4
:10510000304601F0F9F88046002841D110370CAB49
:105110009F429ED1029AAB68039953400293304656
:10512000EE68D5F820804E40039604992E69D5F894
:1051300028C04E4004966E6905990B9F4E40059617
:105140000699AE69009B4E400696EE6907994FF4AA
:1051500080724E400796089ED5F824E088EA06083B
:10516000099E8EEA060E0A9E8CEA0601EE6A7E40D1
:105170002F687B4000936B68019D6B400193CDE9E4
:10518000088ECDE90A16694601F094F8804638B1D8
:1051900068463021FFF75EFE40460CB0BDE8F08166
:1051A0001022204608A9FFF797FAF1E72DE9F84306
:1051B0001D468369B3F5C07F52D81646C3F5C07249
:1051C000AA424DD3C5F5C072D31AB34248D30446A0
:1051D000DFF898904FF4C0720F4648460021FFF761
:1051E000B7FA4946D4F89430A269D4F898009847A1
:1051F000002838D1D4F818803DB1D4E925302A46AA
:1052000009EB0801984770BBA84407B1C6B9174914
:1052100042460846FFF728FE054638B14FF4C071F4
:105220001248FFF717FE2846BDE8F88320460F49CD
:10523000FFF702FF05460028F0D101232361EDE7C7
:105240003946324609EB0800FFF746FA0749B044F1
:1052500042460846FFF708FE05460028DED1E5E78E
:105260006FF03705DFE76FF03305DCE7CC62002035
:1052700010B5A42200210446FFF76AFA4FF0FF316F
:105280004FF6F072044B2161E26104F19C001B684F
:10529000BDE81040184700BF104E00202DE9F04730
:1052A000054688B00F4616460021202268469846DB
:1052B000FFF74EFA1F4B05F19C0948461B689847BB
:1052C000044618B1204608B0BDE8F08705F1200A71
:1052D000504600F0D9FFAA69C5E92576F2B9202326
:1052E0002E69AB61002E22DB694650464FF4807276
:1052F00000F0E0FF044630B9334641462846109A94
:10530000FFF754FF04460C4B48461B68984700289B
:1053100018BF0446204608B0BDE8F0872E69002E6D
:10532000E2DA2F2A96BF013226465608DCE710261D
:10533000DAE700BF0C4E0020084E00202DE9F04FA8
:10534000B2F5806F91B01A9F00F2E380B7F5807FCD
:1053500000F2DC80044615460E463022002104A8E7
:105360009846FFF7F5F96C4B04F19C0948461B6819
:1053700098478346002840F092802269E3699A4268
:1053800000F391806369002B40F08D80002F40F086
:10539000A980DFF888A16F46002D00F098806F4645
:1053A00004F120080EE0102DAB4628BF4FF0100B83
:1053B000304639465A46FFF78FF9B5EB0B055E4488
:1053C00000F08580E37B0133DBB2E373002B4DD12A
:1053D000A37B0133DBB2A373002B47D1637B013383
:1053E000DBB26373002B41D1237B0133DBB2237328
:1053F000002B3BD1E37A0133DBB2E372002B35D1D2
:10540000A37A0133DBB2A372002B2FD1637A01336D
:10541000DBB2637253BB237A0133DBB223722BBB43
:10542000E3790133DBB2E37103BBA3790133DBB270
:10543000A371DBB963790133DBB26371B3B923794B
:105440000133DBB223718BB9E3780133DBB2E37054
:1054500063B9A3780133DBB2A3703BB9637801333E
:10546000DBB2637013B92378013323703B462246C5
:105470000121404600F040FF8346002893D0DAF82F
:105480000030484698470346302104A8002B18BF37
:105490009B46FFF7DFFC10213846FFF7DBFC584640
:1054A00011B0BDE8F08F3A46414600232046FFF791
:1054B0007DFEDFF868A000283FF46DAF4846DAF8BB
:1054C00000309847834600283FF465AFE7E7204661
:1054D00004A9FFF7B1FD83460028D0D12369013329
:1054E0002361CCE73A46414604A8FFF7BDFC83465A
:1054F00018B16F46DFF824A0C1E7204604A9FFF7E2
:105500009BFD834600283FF444AFF2E76FF0370B72
:10551000C5E76FF0350BC2E70C4E0020084E0020A7
:105520002DE9F043202B1D460646884691468BB058
:1055300026D8DBB202AF8DF80480B04658F8041BC1
:105540008DF8053021B9404600F018FF044640B9F7
:10555000012302224046336001A900F023FF0446E4
:1055600038B138462021FFF775FC20460BB0BDE866
:10557000F0832A464946404600F014FF0446F0E70F
:1055800002AF1946104600233A4601F091F804464E
:105590000028E6D12023B9461D46CCE72DE9F0418D
:1055A000D0F8F830A6B0002BD8BF02AE31DD0546EA
:1055B0000027D0F80C4102AEA4F101089022D5F8E2
:1055C000FC403146D0F8000101AB0197B8FA88F8E9
:1055D000A0474FEA5818044620B9019B53B9B8F1C7
:1055E000000F16D030469021FFF734FC204626B03D
:1055F000BDE8F081014632462846FFF791FF58B9D1
:10560000D5F80431019A1344C5F80431B8F1000FFC
:10561000E8D16FF03C04E5E70446204626B0BDE83B
:10562000F08100BF70B500250446142204F5887689
:105630002946C0F8F850FC30FFF78AF808222946BE
:105640003046FFF785F8144B30461B6898472046D4
:1056500040F8045B00F078FE104B30461B6898471A
:10566000C8B9D4F8F830AB420FDC03EB830204EB8B
:1056700082022021C2F800010120C2E9421008493B
:105680000133C2F8FC10C4F8F830064B3046BDE8D0
:1056900070401B68184770BD104E00200C4E002053
:1056A00085610100084E00202DE9F047202A88B0CE
:1056B0007AD83F4B00F5887904461B684846174660
:1056C000884698470546F8B940F20116D4F8F830F4
:1056D000002B65D02046FFF761FF054638B9D4F8A6
:1056E000F830002B14DC013EF2D16FF03B056E4622
:1056F00020213046FFF7AEFB2E4B48461B689847EB
:10570000002818BF6FF01D05284608B0BDE8F087D7
:10571000D4E94132934203D3D4F80C21012A02D0B8
:10572000013ED7D1E1E71F2BFAD96E460146202270
:10573000304604F1040AFFF70BF83146504600F0FA
:105740005BFE05460028D3D1504600F011FE5046BE
:1057500000F0FAFD2946504600F010FE05460028EC
:10576000C6D150462022314600F01CFE05460028D6
:10577000BED1034632462021304600F099FF05464F
:105780000028B5D1D4F8F8303A46002BC8BF002322
:1057900040463146C8BFC4F80431FEF79DFFA7E775
:1057A0006FF03F056E46A3E76FF03B05ACE700BF27
:1057B0000C4E0020084E0020002130B58DB028226C
:1057C00002A80191FEF7C4FF02A800F099FF044669
:1057D00010B120460DB030BD1B4D4FF0FF31286891
:1057E00000F036F960BB194BD3F8340E10F001000D
:1057F00017D100F05DF9F8B9154A02A901A800F027
:10580000B3FC0446012000F053F988B9286800F081
:1058100027F90028DDD00F4800F0B0F920460DB080
:1058200030BD2868052400F01BF90028D1D0F2E72C
:10583000094800F0A3F9E9E7084800F09FF9DBE721
:10584000074800F09BF9CEE7F44D0020006084503B
:105850004C6400200C7A0100EC790100CC79010045
:10586000B479010030B583B000F036F878B900F0B3
:1058700055F890B9144BC3F80C0AFFF79DFF044686
:10588000F8B9124D2B6863B1204603B030BD032434
:1058900000F072F8204603B030BD0424204603B067
:1058A00030BD02460146FFF779FA50B9682208492F
:1058B00001ABFFF7A3FA20B92046064B2B6003B0DB
:1058C00030BD0524E0E700BF005084506C66002026
:1058D000706600205AEA5A5A00207047430504D5E2
:1058E0004FF0FF32034BC3F80821024BC3F8080AFC
:1058F000704700BF00508450014BC3F8040A704742
:105900000050845008B100F073B84FF47500704730
:1059100008B100F04FB84FF47500704710B511484A
:1059200000F082F800B110BD0F4800F07DF80028AB
:10593000F9D10E4C204600F077F80028F3D10C4B3B
:105940000C481C6000F070F801460028EBD100F014
:105950002DF8044608B1204610BD00F08BF8204613
:10596000FAE700BF044E0020004E0020FC4D00204E
:10597000F44D0020F84D002008B5084800F05EF80E
:10598000074800F05BF8074800F058F8064800F0B8
:1059900055F8BDE8084000F00BB800BF044E0020E9
:1059A000004E0020FC4D0020F84D002000207047E4
:1059B000704700BF10B402460C4C01E0134207D1FF
:1059C000D4F8003A13F48070F8D0012042F48072C9
:1059D00029B1064BD3F804410C60C3F80841034BCE
:1059E000C3F8082A5DF8044B704700BF005084508C
:1059F0000246084901E01A4207D1D1F8003A13F4EF
:105A00008070F8D0012042F48072024BC3F8082A5B
:105A1000704700BF00508450FEF710BEFEF798BEDE
:105A20000A460021FEF794BE08B5034B02681B68C6
:105A300010689847002008BD304E002008B5034B81
:105A400002685B6810689847002008BD304E00204F
:105A5000024B02689B681068184700BF304E002058
:105A600008B5034B0268DB6810689847002008BD42
:105A7000304E002070B5094C094D2069AB6898473D
:105A800018B1084B08485B6898470021074AEB6843
:105A900011602069BDE87040184700BF1C4E00200F
:105AA000304E0020144E0020247A0100D8660020D9
:105AB000F8B51A4D1A4E0446B26828699047E8B9FD
:105AC000184F3B684CB1A3B1012B19D0013B3B608F
:105AD0002869F36898470020F8BD43B90121124AAC
:105AE000C2F800151149D1F81029002AFBD1013361
:105AF0003B60F368286998470020F8BD0C48F8BD62
:105B00000A4AD2F81039002BFBD1074A6FF07E40C9
:105B1000C2F80035FFF7F0FE3B68D7E71C4E0020C7
:105B2000304E0020D8660020004084500050845041
:105B3000E98FFFFF014B1B68184700BF304E002064
:105B4000014B9B68184700BF304E0020014BDB68BB
:105B5000184700BF304E0020BFF34F8F0549064B5A
:105B6000CA6802F4E0621343CB60BFF34F8F00BFFB
:105B7000FDE700BF00ED00E00400FA0530B44FF08F
:105B8000FE3200250B4B0C4C0C494968C3F800242D
:105B9000C3F80424C3F80824C3F80C24C3F8102461
:105BA000C3F81424C3F81824C3F81C24C4F80055FF
:105BB00030BC08470050845000408450144E0020F0
:105BC00010B5044650B1636813F0685F05D0064A0B
:105BD000934202D000236260236010BD034B04484F
:105BE0005B689847EFE700BF2C5F5CA9144E00206C
:105BF000447A0100C8B143680D4A934213D013F0B0
:105C0000685F0ED0012350E8002F194640E8001CC1
:105C10009CF0000FF7D1012AF5D0BFF35F8F002071
:105C2000704704487047044870476FF4E04070477D
:105C30002C5F5CA9E98FFFFFEA8FFFFF034680B16D
:105C4000426809498A420AD012F0685F05D0BFF362
:105C50005F8F002210461A6070470448704704485E
:105C600070476FF4E04070472C5F5CA9E98FFFFF3D
:105C7000EA8FFFFF10B5044620B10023034A2360DA
:105C8000626010BD0248FFF779FFF6E73A00003A7C
:105C90006C7A01002DE9F041002873D00C460029F0
:105CA00070D01D46002B6DD007461AB1012200238B
:105CB0002A6003602B68002B5FD02946204600F045
:105CC000D9FD804600285AD12146286800F0B8FD49
:105CD0008046002853D12868082867D0042867D058
:105CE000A0F10200B0FA80F040090121314EC6F85F
