:020000040100F9
:10000000980D00210D180001C34F0001F9170001E0
:10001000F9170001F9170001F917000100000000AD
:10002000000000000000000000000000D5180001E2
:10003000F917000100000000F9170001F91700018D
:100040003D1A00013D1A00013D1A00013D1A000150
:100050003D1A00013D1A00013D1A00013D1A000140
:100060003D1A00013D1A00013D1A00013D1A000130
:100070003D1A00013D1A00013D1A00013D1A000120
:100080003D1A00013D1A00013D1A00013D1A000110
:100090003D1A00013D1A00013D1A00013D1A000100
:1000A0003D1A00013D1A00013D1A00013D1A0001F0
:1000B0003D1A00013D1A0001000000000000000090
:1000C0000000000000000000000000000000000030
:1000D0000000000000000000000000000000000020
:1000E0000000000000000000000000000000000010
:1000F0000000000000000000000000000000000000
:1001000000000000000000000000000000000000EF
:1001100000000000000000000000000000000000DF
:1001200000000000000000000000000000000000CF
:1001300000000000000000000000000000000000BF
:1001400000000000000000000000000000000000AF
:10015000000000000000000000000000000000009F
:10016000000000000000000000000000000000008F
:10017000000000000000000000000000000000007F
:10018000000000000000000000000000000000006F
:10019000000000000000000000000000000000005F
:1001A000000000000000000000000000000000004F
:1001B000000000000000000000000000000000003F
:1001C000000000000000000000000000000000002F
:1001D000000000000000000000000000000000001F
:1001E000000000000000000000000000000000000F
:1001F00000000000000000000000000000000000FF
:10020000DEE61E284CBBCE8F023500003C0000000D
:10021000A86B0000010000000000000100000001C8
:10022000FFFF02910000000000000000000000003D
:1002300000000000000000000000000053B94AB9AF
:10024000002908BF00281CBF4FF0FF314FF0FF30DE
:1002500000F00CB8ADF1080C6DE904CE00F0D0F957
:10026000DDF804E0DDE9022304B07047704700BF09
:1002700030B44FF0000310F8014B11F8015B013A64
:1002800084EA050443EA0403F5D1A3F101034FEA2C
:10029000D37030BC704700BF4FF0000310F8012B43
:1002A000013943EA0203F9D1A3F101034FEAD37004
:1002B000704700BF30B411F8014B12F8015B6C407D
:1002C00000F8014B013BF6D130BC70472DE9F04FEF
:1002D00090E8F00F00F140004FF0040E59E0F0B448
:1002E000826BC36B04680525242687593C444FEA7A
:1002F000724787EAF24787EA92273C4442684FEA0E
:10030000F21787EAB24787EAD2073C4440F8044B29
:10031000032D08BF6FF01B0687593A444FEA734715
:1003200087EAF34787EA93273A4443684FEAF3178B
:1003300087EAB34787EAD3073A4440F8042B875942
:100340003B444FEA744787EAF44787EA94273B44E3
:1003500044684FEAF41787EAB44787EAD4073B4476
:1003600040F8043B013DC0D1A0F13C00076A3C4489
:100370004FEA724787EAF24787EA92273C440268CD
:100380004FEAF21787EAB24787EAD2073C44C463D0
:10039000F0BC4FF0020288EA781C8CEAF84C0BEBB8
:1003A000BC1C8AEA090303EA080383EA0A039C44A3
:1003B00050F8043B9C4451F8043B9C44674444EA95
:1003C000050B0BEA060B04EA05034BEA030BE344B7
:1003D00084EAF42383EA34530BEBB30B87EA771CEC
:1003E0008CEAF74C0AEBBC1C89EA080303EA070312
:1003F00083EA09039C4450F8043B9C4451F8043BB5
:100400009C4466444BEA040A0AEA050A0BEA040320
:100410004AEA030AE2448BEAFB2383EA3B530AEBF2
:10042000B30A86EA761C8CEAF64C09EBBC1C88EA17
:10043000070303EA060383EA08039C4450F8043BDD
:100440009C4451F8043B9C4465444AEA0B0909EA80
:1004500004090AEA0B0349EA0309E1448AEAFA2398
:1004600083EA3A5309EBB30985EA751C8CEAF54C2B
:1004700008EBBC1C87EA060303EA050383EA0703CB
:100480009C4450F8043B9C4451F8043B9C44644415
:1004900049EA0A0808EA0B0809EA0A0348EA0308D5
:1004A000E04489EAF92383EA395308EBB30884EA84
:1004B000741C8CEAF44C07EBBC1C86EA050303EAC7
:1004C000040383EA06039C4450F8043B9C4451F81F
:1004D000043B9C44E34448EA090707EA0A0708EAA0
:1004E000090347EA0307674488EAF82383EA385395
:1004F00007EBB3078BEA7B1C8CEAFB4C06EBBC1CBE
:1005000085EA040303EA0B0383EA05039C4450F8DD
:10051000043B9C4451F8043B9C44E24447EA0806EF
:1005200006EA090607EA080346EA0306664487EA7C
:10053000F72383EA375306EBB3068AEA7A1C8CEA80
:10054000FA4C05EBBC1C84EA0B0303EA0A0383EABA
:1005500004039C4450F8043B9C4451F8043B9C44E5
:10056000E14446EA070505EA080506EA070345EA05
:100570000305654486EAF62383EA365305EBB305A3
:1005800089EA791C8CEAF94C04EBBC1C8BEA0A035F
:1005900003EA090383EA0B039C4450F8043B9C44A0
:1005A00051F8043B9C44E04445EA060404EA07048D
:1005B00005EA060344EA0304644485EAF52383EA72
:1005C000355304EBB304013A7FF4E5AEA0F14000EB
:1005D000BEF1010E7FF483AEA0F1400C9CE80F0049
:1005E000001949199219DB19ACE80F009CE80F00BB
:1005F0004044494452445B44ACE80F00BDE8F08FEE
:100600002DE9F04786468C460846089E15467446F6
:100610001946002B40F0C1808542B2FA82F245D9DA
:100620004AB1C2F1200300FA02FC954094402EFA30
:1006300003F343EA0C0C4FEA154EA8B2230CBCFBA3
:10064000FEF80EFB18CC08FB00F943EA0C43994571
:1006500028D9EB1808F1FF3704D2994502D9A8F13F
:1006600002072B44A3EB0903A4B2B3FBFEFC0EFB71
:100670001C330CFB00F044EA0344A04214D92C19AB
:100680000CF1FF3304D2A04202D9ACF102032C4496
:10069000241A43EA07401EB1D4400023346073603B
:1006A000BDE8F0874746DDE76346F1E792BB431BB1
:1006B00001214FEA154EAFB2200CB3FBFEFC0EFB3E
:1006C0001C330CFB07F840EA0343984561D9EB184B
:1006D0000CF1FF3004D2984502D9ACF102002B4452
:1006E000A3EB0803A4B2B3FBFEFC0EFB1C330CFB14
:1006F00007F744EA0344A7424DD92C190CF1FF3304
:1007000004D2A74202D9ACF102032C44E41B43EA11
:100710000040C0E7C2F120039540944020FA03F165
:100720002EFA03F34FEA154E9040AFB20343B1FBEC
:10073000FEFC0EFB1C10190C0CFB07F841EA0041F3
:10074000884522D969180CF1FF3004D2884502D9B6
:10075000ACF102002944A1EB08019BB2B1FBFEFC05
:100760000EFB1C110CFB07F743EA01439F420ED915
:10077000EB180CF1FF3104D29F4202D9ACF1020117
:100780002B44DB1B41EA004193E76046E3E7614607
:10079000F7E76046A4E76346B8E7834206D916B98F
:1007A000002108467CE7C6E900E0F9E7B3FA83F7E1
:1007B0008FB9834201D3724508D8BEEB020460EBC7
:1007C000030301209C461EB9002169E73846FAE779
:1007D000C6E9004CF8E7C7F1200CBB400EFA07F55C
:1007E00022FA0CF42EFA0CF1BA401C4320FA0CF356
:1007F000B8404FEA144901431FFA84FEB3FBF9F8ED
:1008000009FB18300B0C08FB0EFA43EA00439A452B
:1008100040D9E31808F1FF3004D29A4502D9A8F173
:1008200002002344A3EB0A0389B2B3FBF9F809FBE6
:10083000183308FB0EFE41EA03418E452CD961189E
:1008400008F1FF3304D28E4502D9A8F102032144F6
:1008500043EA0040A1EB0E01A0FB02984145CE46C1
:10086000434602D306D14D4504D20138B9EB020EFE
:1008700068EB0403002EA7D0B5EB0E0261EB030179
:1008800001FA0CFC22FA07F3F9404CEA0303C6E92B
:10089000003199E74046C5E74346D9E72DE9F043E3
:1008A00085B0304804F01AFD30B92F4804F0D8F96B
:1008B000002005B0BDE8F0834FF408414FF0807090
:1008C00004F060FC28B1294804F0CAF901F08AFF5D
:1008D000EEE701F081FF054601F08CFFE8B904F076
:1008E000C9FC04460146284604F088FC10B921469C
:1008F0001F4805E01B4801F099FF014618B11D484B
:1009000004F0AEF9E2E72946284604F077FC10B17E
:1009100001F0C8FFFEE72946EAE74FF45E311648CA
:1009200004F030FC014608B11448E9E70446DFF85A
:100930005090DFF8508001AF59F8046B98E8070039
:100940002E4487E807000C223946304604F0DCFCD0
:1009500000B91EB90134052CEED10026304601F055
:100960007BFDA5E7FC550001845C00019C5C000157
:10097000CA5C0001F45C000100880001135D000105
:10098000185A000140570001014B1B68184700BF6F
:100990000000002130B585B004460D46102200212C
:1009A000684604F0F8FD02238DF80230044B2A4615
:1009B00021466846019302F0FFFF05B030BD00BF3D
:1009C00089090001B2F5802F2DE9F0410CD2042AEB
:1009D00020D83D494FF4F9723C4804F058FA4FF4DE
:1009E000F971394804F04CFA0823D21ACC1D11448D
:1009F00024F0070421F00701091B17294FEAD1064B
:100A00000AD8314940F2FB12304804F040FA40F273
:100A1000FB11E6E70423E8E700270460314630468F
:100A2000A660E76004F06AF90121421D8046304665
:100A300004F05BF99200D51DED082844B0423AD885
:100A4000B8F1FF3F3946A2F1100204F11000B8BF1F
:100A50003A4604F0A0FD2A463946204604F041F902
:100A60003B463A463946204604F012F9A6EB050803
:100A700020463946012204F01CF94246294604F07A
:100A800030F92B463A462946204604F001F9314612
:100A9000204604F026F943463A463146204604F003
:100AA000F7F831462046012204F003F92946BDE853
:100AB000F04104F02FB904494FF40372034804F0E5
:100AC000E6F94FF403718CE7465D0001675D0001B4
:100AD0002DE9F0471646028B0446100712D402296E
:100AE00002F007025BD1204604F056F988B10138C4
:100AF000042800F21081DFE810F052000E017400AB
:100B0000B300E00001290CBF42F0100242F02002C5
:100B1000228386F31188BFF36F8FBDE8F08703F05F
:100B20000701481F01281ED8002006292768C4E9AC
:100B3000000014D1394603E0608B013060830968FE
:100B40000029F9D123F0070343F002012046218355
:100B500004F022F990B341F0200121832EE023F02C
:100B6000070399B2F2E7042930D123F0070399B2C1
:100B70002046218304F010F910B141F020012183B7
:100B8000238B03F00709914540F0CE80228BD106DC
:100B900040F1F68022F01003238302F00702D4F81C
:100BA0001480238BB8F1000FB9DA0021276823F0F5
:100BB0000703C4E9001143F001032383238B03F0EF
:100BC0000709914500F0E580002536E07C4940F2B8
:100BD0001B127C4804F05BF940F21B11784804F0CA
:100BE0004FF942B176494FF4AB72764804F04FF9B1
:100BF0004FF4AB71F2E7236843B9714940F25712E1
:100C0000704804F044F940F25711E7E723691D6882
:100C100045B96B494FF4AD726A4804F038F94FF4A6
:100C2000AD71DBE7174690464FF00609238B23F0A2
:100C3000070343F006039BB22383A268002A76D100
:100C4000002F40F0AA80002DA0D043F0080323839A
:100C500086F31188BFF36F8F20465B49A84782E077
:100C6000022A08D0564940F25D12564804F00FF9A6
:100C700040F25D11B2E7678B47B151494FF4AF7253
:100C8000504804F004F94FF4AF71A7E723695D6899
:100C900045B94B4940F261124A4804F0F8F840F275
:100CA00061119BE7238BB84623F0070343F004034D
:100CB0009BB24FF004092383BFE7012A08D04049C3
:100CC0004FF4B2723F4804F0E2F84FF4B27185E796
:100CD000236843B93A4940F265123A4804F0D7F81C
:100CE00040F265117AE723699D6845B934494FF4AC
:100CF000B472344804F0CBF84FF4B4716EE70027B7
:100D0000238BB84623F0070343F005039BB24FF053
:100D10000509238391E72A4940F26B12294804F020
:100D2000B6F840F26B1159E700273D4685E743F0DE
:100D30000803238386F31188BFF36F8FA16800290E
:100D400032D00E6881B343464A462046D1F804A00B
:100D5000D0471EB1336831461E46F3E73346FAE703
:100D6000002D7FF479AF4FF02003EFF3118683F36A
:100D70001288BFF36F8F238B23F00803238305E7CB
:100D800093067FF5C6AE22F02003238302F007020C
:100D9000A9E6002F3FF4FAAE002543F008032383B1
:100DA00086F31188BFF36F8F002FD9D03E68394684
:100DB00043464A46204604F01BF83746F4E700BF96
:100DC0007F5D0001675D00011D4E000170B50546A5
:100DD0000E4603F0FDFF041E15DB4FF02003EFF37A
:100DE000118283F31288BFF36F8F4FF6FF716B8B05
:100DF0002C8B8B4204F0070407D182F31188BFF3D8
:100E00006F8F6FF00A04204670BD022C0CD10133A5
:100E10006B8382F31188BFF36F8F00232246314624
:100E2000284603F0E5FFEEE7062C11D8DFE804F0D2
:100E3000041E101004250400002333606B6893B96E
:100E4000C5E9006604BB02212846FFF741FEDAE748
:100E5000104911484FF4E47204F019F84FF4E471AA
:100E60000C4804F00DF81E606E60EBE782F3118809
:100E7000BFF36F8F6FF00404C5E782F31188BFF3EF
:100E80006F8F6FF08504BEE782F31188BFF36F8F19
:100E9000B9E700BF7F5D0001675D000108B54268EA
:100EA000034602F00302032A816002D02AB1002027
:100EB00000E0006800225A6008BD04490448452249
:100EC00003F0E5FF4521014803F0DAFFA15D0001D1
:100ED000675D0001064AD2F8AC3123F00043C2F846
:100EE000AC310022034BC3F84C21D3F84C3170478E
:100EF00000200141006001410122024B0020C3F8A3
:100F000040257047000008415023142213B51F4CA0
:100F10000DF10700C4F80C351D4BC3F820214FF428
:100F200000621C4BC3F8BC254FF48062C3F838251F
:100F300004F0B2F9184B984225D118499DF80700E2
:100F400001F004FE16499DF8070001F013FE154953
:100F50009DF8070001F0FAFD21469DF8070001F019
:100F600009FE01209DF80730984001F0E9FD4FF49B
:100F7000002200200C4BC3F84423C3F84C01D3F8E3
:100F80004C3102B010BD6FF00B00FAE700B0004129
:100F900000302041002001410000AD0B4C610141B7
:100FA000282001412C2101410060014173B5354BDE
:100FB000D3E84F3F00233449CDE90033334BD3F816
:100FC0000445BFF35F8FD1F80465BFF35F8FD3F89B
:100FD00004259442F3D16B46224601212B4803F0AD
:100FE00064FF324605460F21274801AB03F05DFF41
:100FF000E0B1019B0DB9009302E0009A9342FAD34D
:10100000009B22481C44013CD0F84C3524F07F441E
:101010009C421F4932D0FFF75DFFC0F84C451D4B85
:10102000009A9A4218D901230B7001E0002DE7D1F4
:10103000194AD2F8AC3143F00043C2F8AC31134B3B
:10104000D3F84C2132B90121144A5160D3F84C3104
:1010500003B1116001230DE0BFF35F8FD0F80435B9
:10106000E41A24F07F440E4B033C9C42DBD900235E
:101070000B7000230B4A137002B070BD0B78002B6D
:10108000F7D0D5E790010021001001410060014137
:101090008E010021FEFF7F000020014100B00041D1
:1010A000FBFF7F008F010021F8B51E490023C1E836
:1010B000423F52BB1C4B1D783DB305231B4E1C4FBA
:1010C00034780134B4FBF3F303EB8303E41A04F044
:1010D00055F8184A137823B157F82430C01A072856
:1010E00013D9154BD3F8141141B10021C3F81411D1
:1010F000D3F8143134700CB901231370347804F030
:101100003DF847F824002846F8BD0C4A0025D2F8DF
:10111000AC3123F00043C2F8AC310122084B5A60D5
:10112000F1E700BF900100218F0100218D01002116
:10113000C00000218C01002100500041002001412D
:1011400000B0004120B1034B800143F00103184778
:10115000704700BF8057000101F06ABC10B54368BA
:101160000A680C469A4207D90548452103F0CEFE8D
:1011700000231846636010BD4A6801201344F9E754
:10118000C85D00017FB50546C06801AA03F0C3FF32
:10119000044638B1024645210D4803F0B7FE20460B
:1011A00004B070BD01992B6A8B42F8D0E868029AAE
:1011B00083689B689847064630B10246452105483A
:1011C00003F0A4FE3446EAE7019B2B62E7E700BF89
:1011D000ED5D0001135E0001F8B581680546002948
:1011E0003CD0D0E9043601391E443144FFF7CAFF30
:1011F000041E07DA3346224645212A4803F086FEBC
:101200002046F8BDE86803F08EFEAC68B4FBF0F34E
:1012100000FB13445CB1041BE8688368DB689847F3
:101220002F68AB6801792246F81804F0B4F9AB686E
:10123000E8682A68234481684C683146A047044620
:1012400020B10246334645211748D7E7EB695BB921
:101250002B69AA6813442B610023AB600024CFE7FD
:10126000135DDB4313550134AB682A689C42F7D306
:10127000E86881680C683146A047044628B14521DA
:1012800002460A4803F042FEBAE73246EB69A96813
:101290002868984704460028DAD0024645210448C9
:1012A000F0E700BF345E0001675E0001905E000160
:1012B000AB5E00012DE9F7430D46DDE90A86914654
:1012C0001F46044680B179B172B1009300230846ED
:1012D000019303F028FEB7FBF0F303FB107040B15D
:1012E0004521194803F012FE6FF00D0003B0BDE870
:1012F000F0836A462846154903F011FF019B002B35
:10130000F2D008EB0602934202D245211048E9E7E9
:10131000284603F008FEB8FBF0F303FB108000281A
:10132000F3D1C4E90097E5602061A060C4F814809F
:1013300016B9019EA6EB08060C9B0020E3614FF056
:10134000FF33A6612362D1E7C45E00015D11000195
:10135000005F000137B505460C46C9B18B681048DF
:101360000093D1E90023452103F0D0FD63694521B5
:101370000093D4E903230B4803F0C8FD4521E2693B
:10138000094803F0C3FD4521A269084803F0BEFDEA
:101390002146284603B0BDE8304001F009BE00BF39
:1013A000265F00015A5F00018E5F0001A25F00010D
:1013B00030BFFFF7FDBF00BF704700BF10B5244C22
:1013C0004521244803F0A2FDA36A99013ED5224895
:1013D000452103F09BFD1E20A36ADA0104D51F48B6
:1013E000452103F093FD1F20194CA36ADB0204D5AD
:1013F0001B48452103F08AFD0220A36A1C0304D583
:101400001848452103F082FD2120114CA36A59039D
:1014100004D51548452103F079FD2220A36A9A03DB
:1014200004D51248452103F071FD2320084CA36A1E
:10143000DB0304D50E48452103F068FD2420A36A90
:101440006FEA03436FEA1343A36210BD1D20C3E795
:1014500000ED00E0D55F0001F25F00010A600001CD
:1014600029600001586000017B600001A560000157
:10147000C460000170B5244C06460D462348452142
:1014800003F044FDA36AD9043BD52148452103F06C
:101490003DFD1720A36A1A0504D51E48452103F017
:1014A00035FD1820184CA36A9B0511D545211A4813
:1014B00003F02CFDA26BA36A190408D54521174837
:1014C00003F024FD1EB1A36A23F40043A362192094
:1014D0000D4CA36A5A0504D51148452103F016FDA9
:1014E0001A20A36ADB0504D50E48452103F00EFD42
:1014F0001B20054A936A43F47F43936200232B70B9
:1015000070BD1620C6E700BF00ED00E0F4600001EA
:101510000F610001256100013D6100015B61000177
:10152000756100019561000170B52A4C06460D46B3
:101530002948452103F0EAFCA36AD80640D527488C
:10154000452103F0E3FC1120A36A190704D52448C0
:10155000452103F0DBFC12201E4CA36A9A0711D52B
:101560004521204803F0D2FC626BA36A1B0608D514
:1015700045211D4803F0CAFC1EB1A36A23F0800375
:10158000A3621320134CA36ADE0704D51748452134
:1015900003F0BCFC1420A36AD90602D4A36A9A07FC
:1015A00010D50C4B9B6ADB060CD51149114840F253
:1015B000631203F06CFC40F263110D4803F060FC11
:1015C0001020C1E7034A936A43F0FF0393620023AC
:1015D0002B7070BD00ED00E0B2610001CD61000133
:1015E0002561000105620001226200013D620001E7
:1015F00061620001675D0001F0B56C4B04465868FC
:1016000000258BB0C0F3080385F31188BFF36F8FFB
:1016100002F07F46B6F17F4F07D102F00C06082E8C
:101620000ED14521624803F071FC62494FF48B6290
:10163000614803F02CFC4FF48B615E4803F020FC02
:1016400016074CBF0C460125002CEED00026DA1EF2
:101650008DF80760092A00F29880DFE802F0058B18
:101660008F769696969696934521544803F04EFCB5
:101670008DF807604D4EF36A9A0705D5452150480D
:1016800003F044FC002329E0F36A002B02DA452131
:101690004C48F5E7F36A5B0063D545214A4803F0FF
:1016A00035FC7369A26943F480737361BFF34F8F94
:1016B000BFF36F8F736932F8022C23F48073736168
:1016C000BFF34F8FBFF36F8F4DF602739A4224D151
:1016D000452122683D4803F019FC23689DF8072046
:1016E000CAB902AE04F120073246206861680834A6
:1016F00003C2BC421646F7D1099A002D51D0C2F35D
:10170000080121B96FEA52226FEA42220992184673
:1017100002A9FFF71FFE0BB0F0BDB36ADBB233B115
:1017200001200DF10701FFF7FFFE0346D6E7B36A7C
:1017300013F47F4F05D001200DF10701FFF79AFE4A
:10174000F3E7B36AB3F5803F02D3FFF737FEECE768
:10175000184940F22A32184803F099FB40F22A3126
:101760006BE7144940F22E32134803F090FB40F22D
:101770002E3162E700200DF10701D4E700200DF1C2
:101780000701DBE7452112487AE7124910F4F87F98
:10179000114A124808BF0A46103B452103F0B6FB28
:1017A00070E722F4FF7222F00102AFE700ED00E0E3
:1017B000C162000161620001675D0001F162000128
:1017C0000D63000133630001466300016A63000199
:1017D0008B63000193620001A8620001B463000101
:1017E000044B5A6942F010025A615A6942F480620D
:1017F0005A61704700ED00E0EFF30880EFF30981D4
:1018000001B57246FFF7F8FE01BD00BF002080F36E
:101810001488BFF36F8F002080F30A8880F30B8851
:10182000FFF79AFC00200E490860BFF34F8F0D4868
:1018300080F3088800F02CF8202080F311880A48F3
:101840004FF40061401880F30988EFF314800221FF
:10185000084380F31488BFF36F8F00F08DF8000009
:1018600094ED00E0980D002198010021BFF34F8F07
:101870000549064BCA6802F4E0621343CB60BFF32C
:101880004F8F00BFFDE700BF00ED00E00400FA0548
:1018900072B6002383F313884FF0FF300C4A03F134
:1018A00020010133102B42F82100F8D100234FF022
:1018B000FF30074A03F160010133102B42F8210089
:1018C000F8D162B6BFF34F8FBFF36F8F704700BF81
:1018D00000E100E01EF0040F0CBFEFF30880EFF30F
:1018E0000980816911F8021C0229FFD001B503F0BB
:1018F00064FB01BD40B2002807DB01234109034A14
:1019000000F01F00834042F82130704700E100E002
:10191000054B420953F82220012300F01F0003FA6F
:1019200000F01040704700BF00E100E001310729DE
:1019300008B508D90D490E48582203F0A8FA5821D5
:101940000A4803F09DFA40B20028ACBF00F16040A5
:10195000084B4FEA4111C9B2ABBF00F5614000F03E
:101960000F0080F80013195408BD00BFCC630001BC
:10197000675D000114ED00E008B5084B084A23F04C
:101980007F039360BFF34F8FBFF36F8F01F09CFB1A
:1019900001F0DEFB00F046F801F0A2FB00000001C0
:1019A00000ED00E00446084611461A46002383F382
:1019B0000B880A4B2025A3F5806686F30B8883F3FA
:1019C000098863B64FF0000383F31188BFF36F8F6C
:1019D000A04785F31188BFF36F8FFEE7980D0021B4
:1019E000014910220A60704710ED00E001B5FFF7D1
:1019F000DDFABDE8014072B6494081F3118801B5B6
:101A0000FFF752FB002806D0BFF34F8F20BF00BF67
:101A100000BF00BF00BFBDE8014080F3118862B67F
:101A2000704700BF002320210348C21801331E2B3A
:101A300082F80013F9D1704700E100E001B5EFF33F
:101A40000580A0F110004FEAC0000449014409C913
:101A50009847BDE8014002490847000010560001C0
:101A6000B913000108B50649064821F00701C1F184
:101A7000045202F58032FEF7A5FF002008BD00BF2A
:101A80009F0D0021D4000021402373B50B4C00931F
:101A9000041B0B460D460A49A41061430646094A39
:101AA000094803F0ACFA011E05DA30462B4602B0B5
:101AB000BDE87040184702B070BD00BFF4000021BF
:101AC000B76DDBB66F500001E8550001C9B20129BE
:101AD00008B508D9084909487A2203F0D8F97A21CB
:101AE000054803F0CDF90C22036901FB0233186CA1
:101AF00000F0070008BD00BF03640001675D00013E
:101B000070B5C9B2012903690AD91849184840F2C9
:101B10005D1203F0BCF940F25D11144803F0B0F916
:101B20004FF02004EFF3118584F31288BFF36F8F19
:101B30000C2606FB0134246C14F0C00408D0A24229
:101B400006D085F31188BFF36F8F4FF0FF3070BD63
:101B5000012271430B441A6485F31188BFF36F8F20
:101B600043680B445B6898470020F0E7036400017A
:101B7000675D0001084B70B5C31A0D4607499B10FD
:101B80000446594340220648FFF7BAFF2B46014658
:101B90002046BDE870401847F4000021B76DDBB661
:101BA000E855000170B50022012104460520FFF729
:101BB000BDFE0F4801F060F80E4B984215D101F0C0
:101BC0006BF826690C49304603F036F900280BDB28
:101BD000012535642469084904F11C0003F02CF93F
:101BE000002801DB0020E56470BD6FF00400FBE716
:101BF000311C00010000AD0B2C5A000101460C23E2
:101C000000224B4370B50848C41840331844D4E947
:101C10000E56A26303F0E0F92DB132462B46BDE823
:101C200070400248184770BDF4000021E8550001DB
:101C3000012808B506D0042808D090B90E4B1B6CBB
:101C40005B0717D1BDE80840FFF7D8BF0B4940F24A
:101C50006E220B4803F01BF940F26E21074803F097
:101C60000FF9064940F27222054803F010F940F2DC
:101C70007221F3E708BD00BFF400002103640001F6
:101C8000675D000108B54FF02003EFF3118183F386
:101C90001288BFF36F8F114A136843F0020010607F
:101CA000DA0708D481F31188BFF36F8FBDE80840CD
:101CB000012001F019B80A4BD3F80C24D3F80C34E6
:101CC000DB07EFD5074803F087F981F31188BFF3ED
:101CD0006F8FBDE808400020FFF790BF440100214E
:101CE000005000413401002110B54FF02003EFF304
:101CF000118483F31288BFF36F8F074A136823F0B0
:101D00000201DB07116002D4012001F061F884F3C5
:101D10001188BFF36F8F10BD440100212DE9F843F6
:101D2000012206463E49D1E8EF3FC1E8E02F0028F6
:101D3000F9D19BB93B493C484B60CB608A60FFF7C7
:101D400045F800280ADA39494FF40C72384803F094
:101D50009EF84FF40C71354803F092F86EB3731E81
:101D6000012B53D8012E06D1324BD3F81C3403F08B
:101D70000303022B21D003F0C0FA0546F8B92E4B1D
:101D80001B78E3B1022207462A4BC3F808234FF021
:101D90000008284CDFF8A490D4F81824D4F818349C
:101DA000D20316D503F00303022B01D0012E10D16C
:101DB0003DB387F31188BFF36F8FBDE8F8834FF011
:101DC0002003EFF3118783F31288BFF36F8F012590
:101DD000DDE73846FFF70AFED4F81835DBB2012BF1
:101DE000DAD1D4F80421002AD6D0C4F80481D4F87A
:101DF00004210222C4F818252022C9F88021A360FA
:101E0000CAE702220B4BC3F80423D6E7074940F286
:101E10004222074803F03BF840F242219BE700BF13
:101E2000F0000021E0000021100100210364000106
:101E3000675D0001005000419101002100E100E0D8
:101E4000024B0B6001231360704700BF4801002163
:101E500000487047805A000110B503F039FA034C6E
:101E6000206003F032FA6060002010BD48010021BC
:101E700070B50C46154603F028FA2946064620465A
:101E800003F007F910B3B4FBF6F306FB134323B9D1
:101E9000B5FBF6F306FB135343B12B46224645210F
:101EA0000D4803F033F86FF0150002E0AE4201D99F
:101EB000002070BD03F009FA064604F18074204644
:101EC00000F0E4FFAD1B3444F9D1F1E72B46224684
:101ED00045210248E5E700BF696400018D64000107
:101EE000F8B50C461946204616461D4603F0D1F8B3
:101EF00050B104F180772C4314F003040DD02B462D
:101F00003A4645210E4803E02B46224645210D481E
:101F100002F0FCFF6FF01500F8BD4DB12B19032B3B
:101F2000A7EB040006D8084AD2F80034DB07FBD53B
:101F30000020F1E7331B196800F0D8FF043CEDE7FF
:101F4000AF6400018D6400010000084170B50D46CA
:101F50001946284616461C4603F09BF840B12CB1A2
:101F60002246304605F1807103F008FB002007E0AF
:101F7000044823462A46452102F0C8FF6FF01500A9
:101F800070BD00BF8D6400010D4B1868010A00068A
:101F9000BFF35F8F0B4BD3F80435181841F10001E4
:101FA000B3F5801F0AD2084BD3E90023904271EBAE
:101FB000030303D210F1807041F10001704700BFAC
:101FC0005801002100600141300000212DE9F74354
:101FD00002F09AFF2E4BD3F8042390070BD5D3F8C9
:101FE000042142B10022C3F804212A4AD3F8043163
:101FF000136801331360264AD2F80433D90327D576
:10200000254BD3E8EF1F21F00100C3E8E40F002CBB
:10201000F7D1CB0702D4D2F84031CBB100251C4C0C
:10202000C4F84051D4F84031FFF7AEFF4FF0200321
:10203000EFF3118283F31288BFF36F8F174BD3E94D
:102040000267B042B94106D282F31188BFF36F8FA5
:1020500003B0BDE8F0834FF0FF38D3E900104FF034
:10206000FF391D60C3E902894FF48033C4F8483357
:10207000C4F84051D4F8403182F31188BFF36F8F18
:102080000029E5D0009032463B4628468847DFE7E6
:102090000060014158010021500100211800002179
:1020A0002DE9F74F4FF0010808FA00F814460646EC
:1020B0001D466FEA0802DFF830A1DAE8EF3F03EAD5
:1020C0000201CAE8E01F0028F7D14FF48037DFF89B
:1020D0001C91B740C9F80873BFF35F8FBFF36F8FD0
:1020E00008EA03030093FFF74FFFA04271EB0503DB
:1020F0004BD23F4B201A65EB0101984271F1000170
:1021000056D23C4B03EB0613D3E902239D4208BF92
:10211000944243D04FF0000B24F07F4EF44603204E
:1021200006F150039B009BB203F1824303F5B033E9
:10213000C9F84873C3F800B01A6806F5A87201928E
:1021400001992CF07F4249F821206FF00202C9F872
:102150004473D9F80415521A6244DFF89CC022F087
:102160007F4262451AD91A685AB1D9F80415A1EB11
:102170000E0222F07F42B2F5000F0FD9C3F800B073
:102180001A6800EB010C0130DAE71C4BD3E8EF1FB3
:1021900041EA0801C3E8E21F002AF7D115491848AF
:1021A0003301C850002301EB0612C2E90245536017
:1021B000009BABB1DAE8EF3F43EA0803CAE8E23F2D
:1021C000002AF7D1094BC3F804730C4BD3E8AF3F97
:1021D000F340DB0742BF4FF480020A4BC3F80021F3
:1021E00003B0BDE8F08F00BF540100210060014141
:1021F0000100800018000021FDFF7F005001002138
:102200008922000100E100E070B54FF0FF300025A9
:102210004FF0FF31174C184B0226C4F80833C4F8AE
:102220004833164BC4F80855C3E902014FF4803314
:102230004FF48002C4F80433114B0121C4F8046345
:102240001620C3F880212A46FFF770FB1620FFF7FF
:1022500051FB01230B4AA3602846236013604FF40F
:1022600080720023FFF71CFF3046FFF757FD28461A
:1022700070BD00BF0060014103000F001800002185
:1022800000E100E054010021F8B5144922F07F4537
:10229000D1E90063921B140A22F0FF02921943F164
:1022A0000003C1E90023A5F50011B1F5400F0AD2E2
:1022B0000B4909684FEA112C09064E1909494CF1DE
:1022C0000007C1E9006712F5807243F10003FFF7D0
:1022D000E7FE2046BDE8F84000F09ABF2800002144
:1022E000580100213000002130B5024600240B497E
:1022F0000B4D0B6805EB0310D0F80808C0B218B9F5
:1023000004B10B60002007E00133072B4FF00104FC
:10231000F0D96FF01B000B60136030BD5C01002131
:1023200000000841F7B5434D0646D5F820320C466B
:10233000B3F5006F174608D03F494048212202F00C
:10234000A6FD21213C4802F09BFD01A8FFF7CCFF30
:10235000002867D1D5F82022B6FBF2F302FB136305
:10236000002B61D1D5F82022B4FBF2F302FB13431A
:10237000002B59D1D5F82022D5F824325343A3425B
:1023800052D3002C50D0019B072B07D92C49772220
:102390002A4802F07CFD77212948D4E7D5F820129D
:1023A000B6FBF1F201FB126232B1254978222348D3
:1023B00002F06DFD7821EFE7D5F82022D5F8241240
:1023C0004A43944206D91E4979221C4802F05FFD17
:1023D0007921E1E7D5F82012B4FBF1F201FB1242BA
:1023E00032B117497B22154802F051FD7B21D3E71A
:1023F0001B0103F1824101F50021C1F80068C1F819
:102400000448C1F80878D1F8002896420FD1D1F8D5
:10241000042894420BD1D1F80838DBB29F4218BF90
:102420006FF00D0003B0F0BD6FF01500FAE76FF02C
:102430000D00F7E70000FF01F6640001675D000191
:10244000226500010348452108B502F05FFD002028
:10245000FFF70CFA5465000138B504468169294834
:1024600002F0FEFB4FF0FF32274BC3F80823BFF307
:102470006F8F72B60023254903F120000133102B22
:1024800041F82020F8D100234FF0FF301F4A03F11C
:1024900060010133102B42F82100F8D14FF0E02306
:1024A00000221A61D3F8042D03F5506342F0007244
:1024B0005A605A6A22F4E0225A62EFF314829207B9
:1024C00007D5EFF3148222F0020282F31488BFF3DF
:1024D0006F8FBFF34F8FBFF36F8FA26901219A6097
:1024E0002046A56900F034FA58B1002383F30B8825
:1024F00083F30A882A6882F3088883F309886B6863
:10250000984738BD766500010050004100E100E0C9
:102510001FB50446074A01AB07CA83E807000C222F
:102520001946204602F0F0FE00280CBF204600208D
:1025300004B010BD4C57000170B505460024054E8F
:1025400056F8040B2844FFF7E3FF10B90134052CBB
:10255000F6D170BD885A00012DE9F04F814687B051
:1025600010460E4614461D46D768D2F81080FFF775
:10257000CFFF38B915B96E4802F072FB002007B0E2
:10258000BDE8F08FA069484503D0002DF6D1694819
:10259000F2E71DB9B0420BD06748EDE73046FFF7D0
:1025A000CBFF8442EAD1226A644B9A42E6D109E029
:1025B000FFF7C2FF844201D06148DDE7216A5F4B2B
:1025C000994232D1E3192CBF012700270DF10A00EF
:1025D00018EB060A2CBF4FF0010B4FF0000B0193D4
:1025E00002F0FAFD0146002836D015BB554802F02E
:1025F00037FB554802F034FBADF80A50002F41D1AB
:10260000BBF1000F3ED1B4423CD354453AD2019BBA
:102610005F1EBE4233D8BA4531D918EB0908E369C9
:1026200032D3002DAAD14948A6E7494802F018FB49
:10263000A4E70022ADF80A20002F9FD1BBF1000FC4
:102640009CD1B4429AD3544598D2019B5F1EBE429E
:1026500094D8BA45E1D891E76169BDF80A20914262
:1026600005D2002D8AD13B4802F0FAFA86E737B945
:10267000BBF1000F03D1B44201D35445C7D3002DA1
:102680007FF47CAF344877E74B45CAD34345C8D283
:10269000321DA2EB0902D358994504D9002D7FF4CD
:1026A0006DAF2E4868E79845F8D9D4F81090DFF858
:1026B000B0A009EB060707F1050B0DF10C089AE82D
:1026C000070088E807000C224146384602F01CFE4D
:1026D00000B9FFB90137BB45F1D1002D7FF44EAFF2
:1026E000204849E7002D7FF449AF1F4844E7494699
:1026F000304607F1100202F053FD014620B1002DD3
:102700007FF43CAF194891E715B9194802F0A8FACF
:10271000012034E7FA68A3699A42E3D102F039FD57
:1027200001460028E3D0002D7FF428AF11487DE753
:1027300088650001A8650001DB650001FFFF0291CB
:1027400008660001586600017F6600012F670001DE
:1027500031660001C2660001026700015B6700018B
:102760005857000188670001B96700010C68000133
:1027700038680001EC67000114222DE9F041144B88
:10278000144DD3F8B035074602FB0355284600F038
:10279000DBFB012803D000242046BDE8F0814FF088
:1027A00000082C1DAE1C304600F0CEFB4045F2D98F
:1027B000A01C00F0C9FB0546204600F0C5FBB8424E
:1027C000EAD0023504EB450408F10108EBE700BF4D
:1027D00000800001B4850001014BD3F8A8057047C3
:1027E000008000014FF00053014A1A60704700BF9B
:1027F00015FCBA254FF0005318680A4B98420DD0CB
:1028000003F11C53A3F58B13A3F6CC53984207D0C6
:10281000054B98420CBF01200220704700207047F2
:1028200003207047B6B3B4B55DCE03F130B54FF0B9
:102830000055184B2A6801469A42ADF50F7D26D106
:102840000023CDE90133EB680EAA009305A84FF4ED
:102850000073FEF72FFD044640B1452102460E48A5
:1028600002F054FB20460DF50F7D30BD0123D5E964
:10287000011205A802F05DFB044618B1024645218D
:102880000648EDE74921064802F040FBEAE76FF011
:102890000D04E7E7B6B3B4B55268000174680001EF
:1028A0009E6800014FF00053014A1A60704700BF54
:1028B0005DCE03F12DE9F043214885B002F0DEFC46
:1028C000002604461E4B1F4FD3F83880DFF878905F
:1028D000B04503D8002005B0BDE8F083636A97E8EF
:1028E00007001D6801AB83E807000C221946284643
:1028F00002F00AFD78B975B122692B699A420AD1B2
:10290000AB69A2699A4206D8E2699A4203D963691F
:102910006A6993430AD0256A65B10C4802F0A0F9B0
:10292000404080F311884FF0040002DFE368013675
:102930001C44CDE7484602F093F9636A1D60F5E751
:102940000002000164570001DE680001B568000163
:102950002DE9F04F87B00646009198B302F08EFC47
:1029600000270446B36BBB424ED94FF00008DFF896
:10297000ACA04FF000095AF8043BDFF8A4B05BF8B4
:10298000045B01931D44274B93E8070003AB83E8E6
:10299000070019460C22284602F0B6FC019B00B93C
:1029A000A5B909F10109B9F1050FE8D11E4B08F1EC
:1029B00001089845DDD3009B13B10022636A1A60B9
:1029C000236A3BB3002007B0BDE8F08F2B6A174A9B
:1029D0009342EBD1AE42E9D0696B05F13C038842EA
:1029E000E4D025691A6995420AD19A69A569954288
:1029F00006D8E569954203D962695D69AA4305D0A5
:102A0000DA6801301344EAE70120DCE7009A0AB1F2
:102A1000626A1360E36801371C44A3E78C6B000112
:102A20009C5A00017057000101000000FFFF029155
:102A30000022D30003F1FF7303F58033D3F80013B2
:102A4000013107D0D3F800130132D3F80433202A20
:102A50000B60EED1224BD3E94C32072B26D1023A40
:102A6000032A204B28D9D3F80024D10732D41C4B99
:102A7000D3F83021072A19D1D3F83431023B032B84
:102A800002D8194AD35C8BB17F23184A1849C2F87F
:102A900018310023C1F8043EC1F8083EC2F82431C1
:102AA000C2F82C3102F57F22C2F81031114B1A689E
:102AB000114BC3F84425704710498A5C002AD2D0D4
:102AC000D3F80024D207CED50022C3F81421C3F8CE
:102AD0001821C8E76FF00102C3F80024C7E700BF60
:102AE0000000FF0100500041116900010020004179
:102AF000000008410080FF010060004115690001ED
:102B000030B50468ACB1B4FA84F30122C3F11F03F9
:102B1000DBB29A4024EA0202D0E8EF5FA54204D17A
:102B2000C0E8EC2FBCF1000FF6D1EAD102480B70DF
:102B300030BD0248FCE700BF0000AD0B0200AD0B4A
:102B4000014BC3F80405704700F0004108B541B9D6
:102B500006490748442202F09AF94421034802F04A
:102B60008FF940F00040C1F8800008BD4C690001B9
:102B7000675D000108B541B9064907484A2202F0DD
:102B800086F94A21034802F07BF940F00040C1F881
:102B9000800008BD4C690001675D0001F7B5324B4C
:102BA000044650B1012825D030493148DC2202F0DA
:102BB0006EF9DC212D4802F063F90222C3F80823E4
:102BC00001220646DA60C3F80401D3F80431012378
:102BD00042F21075244F8DF807306CB3012C1AD0D7
:102BE0002449234840F2CD3202F051F940F2CD3170
:102BF0002048E0E70022C3F808035860C3F800212A
:102C0000D3F800310DF10706E1E70BB3012002F024
:102C100041FB013D1CD0D7F80C3403F48033002E67
:102C2000F3D0D7F80C2402F001020FE083B10120A9
:102C300002F030FB013D0BD0D7F8183403F4803399
:102C4000002EF3D0D7F8182402F0030232700BB92B
:102C500003B0F0BD9DF807000128F9D102F01AFB7E
:102C6000013DBAD1F4E700BF00500041896900017D
:102C7000675D0001C6690001044B1A7922B901227F
:102C800018601A71024870470248704760010021BD
:102C90000000AD0B0C00AD0B08B50F4B1A7952B903
:102CA0000E490F484FF4987202F0F1F84FF4987102
:102CB0000A4802F0E5F81B6833B10520FEF728FE4C
:102CC00010B90520FEF716FE0122064BC3F81825A1
:102CD000C3F8142508BD00BF600100218969000107
:102CE000675D00010050004138B5354C237953B978
:102CF00034494FF4BD72344802F0C9F84FF4BD7145
:102D0000304802F0BDF850B101284ED02D494FF4A3
:102D1000DF722D4802F0BBF84FF4DF71F0E72B4B68
:102D2000D3F81814D3F81824C90323D502F00303E9
:102D3000022B05D0012B02D00020FFF72FFF01232B
:102D4000224A0220C2F8183508224FF4827300216B
:102D500003F1824303F5A04319601D68012502F1C8
:102D6000824202F5A0421560226812B3174BC3F8E5
:102D700004030FE0D3F81424D207E0D5D3F81C24C1
:102D800002F00302013A012AD6D822681AB10222BF
:102D9000C3F8042338BDD3F80421002AFBD0002255
:102DA000C3F80421D3F80431F4E700224FF4807310
:102DB000CDE71A68002AFCD019601B68EAE700BF5B
:102DC0006001002189690001675D00010050004138
:102DD00008B5094B1B7953B9084909484FF4EC72FF
:102DE00002F055F84FF4EC71044802F049F8BDE8E0
:102DF0000840FFF7D3BE00BF6001002189690001D0
:102E0000675D000110B5164BD3F8002152B10020C8
:102E1000C3F80001D3F800210122C3F80823114BA5
:102E20001B6898470E4BD3F8042182B10022C3F8E7
:102E30000421D3F80421D3F81824D3F8182402214C
:102E400002F00302012A03D1C3F818159A6010BDDD
:102E5000C3F80813034B0120BDE810401B68184756
:102E6000005000416001002101460148FFF748BEC3
:102E700004000021044AD2F80034DB07FBD50160CE
:102E8000BFF35F8F704700BF0000084108B500F135
:102E90007F43B3F5802F04D2C0F30A0363B10E4819
:102EA00019E00E490E4840F2071201F0F0FF40F21F
:102EB00007110A4801F0E4FF02220A4BC3F8042577
:102EC0004FF0FF320260D3F80024D207FBD5002276
:102ED0000548C3F8042508BD0A00AD0BFA690001D6
:102EE000675D0001000008410000AD0BF8B50D461C
:102EF0000121044602F0D2F950B9104940F295126E
:102F00000F4801F0C4FF40F295110C4801F0B8FFE2
:102F100014F0030708D009494FF4CB72084801F0B8
:102F2000B6FF4FF4CB71F0E7064E2046C6F8041505
:102F30002946FFF79FFFC6F80475F8BDFA6900013E
:102F4000675D000100000841C10708B50AD50949BD
:102F500009484FF4F67201F09AFF4FF4F6710548F4
:102F600001F08EFF20F003031B6882070CBF98B2AC
:102F7000180C08BDFA690001675D000108B5084A30
:102F8000084B93420AD908490848172201F07FFFED
:102F90001721054801F074FF1433F2E7FCD308BD94
:102FA00010560001E8550001366A0001675D000116
:102FB00073B504460D464FF02003EFF3118683F3FB
:102FC0001288BFF36F8F194A042898BF184B127CE0
:102FD00094BF53F82030174B009245210246164803
:102FE00001F094FF3DB1EB69C3F308031BB1452128
:102FF000124801F08BFF00224521114B114801F0CE
:1030000085FF29462046FFF71DFA042C08D10E49FA
:103010000E488A2201F03BFF8A210B4801F030FF65
:1030200086F31188BFF36F8F02B070BD6801002175
:10303000B05A0001596A0001676A0001946A0001F0
:10304000BA6A0001C26A0001DF6A0001675D00011F
:10305000104B70B553F82040013053F82060A64261
:1030600000D870BDD4E9003595B153B128469847D2
:1030700038B10028B8BF4042FF28A8BFFF20EB6846
:103080001870EA68537843F0010353700834E6E798
:103090009847FBE7C45A0001012208B5084B0320FA
:1030A0001A70FFF7D5FF00F01BF90420FFF7D0FFDF
:1030B000FDF7F4FB034A137B23F00103137308BDF0
:1030C000910100213800002108B50348034A00217E
:1030D000121A02F00EF908BD180000219401002117
:1030E00008B50020FFF7B4FF164B03F5006282F32A
:1030F000088883F30A880025E023134C84F82230E3
:10310000E57725766576A57684F82050636A43F4E2
:10311000E023636284F82350FEF762FBFEF760FC55
:103120004FF0FF33A362E362FFF728FF0120FFF7B0
:103130008FFF0220FFF78CFF2B462A4629460348C3
:10314000FEF730FC9801002100ED00E0993000010D
:1031500008B50648064A0749121A02F0CCF8BDE83D
:103160000840054A0549064802F0C5B8000000219C
:1031700014000021906B000100000000906B000122
:1031800000000021034B1B680BB901F0F5BF0020C4
:10319000704700BF8801002110B50E4B1C689C428F
:1031A00004D1FFF7EFFF6FF0004010BDFFF7EAFF1B
:1031B000002CF8D0D4E904321B1A62EBE072B3F1B0
:1031C000004F72F10001EEDA002AACBF1846002071
:1031D000EBE700BF0800002130B570B10B4B5B6816
:1031E00098420AD0036843B1D3E90421D0E90445E9
:1031F000121941EB0501C3E90421D0E90032136043
:103200005A600023C0E9003330BD00BF0800002130
:103210002DE9F84F4FF02003EFF3118C83F3128860
:10322000BFF36F8FDFF8ACA0DFF8AC900024C9F8D3
:103230000000DAF800000025504508BF0020274FA5
:10324000E046D7E90021D9F8003080B3D0E9046C1A
:103250004FEAE37EB3427EEB0C0B05DAF61A6CEB19
:103260000E04C0E9046422E0B21841EBE671C0E943
:103270000445C7E90021FFF7AFFF88F31188BFF3CA
:103280006F8F836898474FF02003EFF3118883F323
:103290001288BFF36F8FD9F80030DAF800009B1B5B
:1032A0005045C446C9F80030CAD1D7E900210024EE
:1032B0009A1841EBE373C7E90023C9F80040FFF710
:1032C0006BFF214601F057FF88F31188BFF36F8F22
:1032D000BDE8F88F0800002188010021B800002116
:1032E000014801F0BDBC00BF4E6B00013F2A2DE933
:1032F000F041904652D905460C46A2F1400626F010
:103300003F064036274F0E44236840341BBA2B64D7
:1033100054F83C3C39461BBA6B6454F8383C284698
:103320001BBAAB6454F8343C1BBAEB6454F8303C21
:103330001BBA2B6554F82C3C1BBA6B6554F8283C1F
:103340001BBAAB6554F8243C1BBAEB6554F8203C1F
:103350001BBA2B6654F81C3C1BBA6B6654F8183C1D
:103360001BBAAB6654F8143C1BBAEB6654F8103C1D
:103370001BBA2B6754F80C3C1BBA6B6754F8083C1B
:103380001BBAAB6754F8043C1BBAEB67FCF79EFF13
:10339000B442B9D108F03F00BDE8F0811046BDE865
:1033A000F08100BFDC5A00010A4610B514681A49C2
:1033B00024BA0464546824BA4464946824BA8464C3
:1033C000D46824BAC464146924BA0465546924BA5C
:1033D0004465946924BA8465D46924BAC465146ABE
:1033E00024BA0466546A24BA4466946A24BA846689
:1033F000D46A24BAC466146B24BA0467546B24BA22
:103400004467946B24BA8467D26B12BAC267FCF724
:103410005DFF002010BD00BFDC5A00012DE9F04126
:103420000027B54CB54BB2B0CDE90043B44BB54E17
:103430000293B54B1446CDE90363B44B054605939F
:10344000B34B3097069303F17453A3F52303A3F60C
:10345000924331920793002A40F0848080224FF0FB
:103460003A0C01236E460DEB02078DF880200020F8
:103470004FEA9C0203F1800E012A06EB0E0146F88A
:103480000E0024D0022A486021D0032A88601ED072
:10349000042AC8601BD0052A086118D0062A486192
:1034A00015D0072A886112D0082AC8610FD0092ACE
:1034B00008620CD00A2A486209D00B2A886206D01A
:1034C0000C2AC86203D00E2A086308BF48631CF0A8
:1034D000030F16D02CF0030C6344002103F1C80243
:1034E0006A443A2B02F8481C0BD003F1C9026A4423
:1034F000392B02F8481C04D0CA330DEB030202F842
:10350000481C0023620F62F30703620D62F30F236E
:10351000620B62F317436209394662F31F63304658
:10352000E400CDF8BB308DF8BF40FFF73DFFDDE98B
:103530000001DDE9022306BA14BA18BA09BADDE9B6
:10354000042312BA69602A6119BADDE9062312BAA6
:103550001BBA2E60AC60E8606961AA61EB6132B0B1
:10356000BDE8F0816E4630468846FFF7BFFE241A5C
:1035700008EB0403002800F0F580421E022A53D90C
:1035800058F8042020928208012A00F0E680596849
:10359000022A219100F0BE809968032A229100F04E
:1035A000E780D968042A239100F0E7801969052A89
:1035B000249100F0E7805969062A259100F0E78000
:1035C0009969072A269100F0E780D969082A27918E
:1035D00000F0E780196A092A289100F0ED80596A05
:1035E0000A2A299100F0B180996A0B2A2A9100F0E9
:1035F000F480D96A0C2A2B9100F00381196B0D2AF3
:103600002C9100F00981596B0E2A2D9106D00F2ABA
:10361000996B18BFDA6B2E9118BF2F9220F0030719
:1036200082073B4400F0DE80197807F1C8026A4443
:1036300002F8481C7A1C90420FD9591C0978C832EC
:1036400002376A44B84202F8481C06D99B7807F151
:10365000C8020DEB020707F8483C8021431C00F12B
:10366000C8026A44382B309002F8481C6AD93F2BB4
:103670002CD80022C8336B443E2803F8482C25D0B0
:1036800000F1CA030DEB03013D2801F8482C1DD0C1
:1036900000F1CB036B443C2803F8482C16D000F112
:1036A000CC036B443B2803F8482C0FD000F1CD032A
:1036B0006B443A2803F8482C08D000F1CE036B4441
:1036C000382803F8482C01D18DF8BF2020AF3946A7
:1036D0003046FFF769FE3A2803463CD8319CC3F1D7
:1036E0003A02022A7FF6F9AE5A1C3B2AC3F13B0C80
:1036F00088BF4FF0010CBAE667E6096A85AE67BB82
:1037000072F36E3C3AF54FA57F520E518C68059BC3
:10371000ABD9831F082854D008273B4419467A1C8C
:1037200011F801CB07F1C8046C44904204F848CC6E
:1037300084D8802100F1C8030DEB03023090431CB4
:1037400002F8481C319C20AFC9E7282800F0888087
:1037500028273B44E2E7319CD3E6042826D00427FF
:103760003B44DBE78022012330908DF88020E9E79D
:103770000C282CD00C273B44D0E710283BD0102736
:103780003B44CBE7142841D014273B44C6E7182814
:1037900047D018273B44C1E71C2849D01C273B448D
:1037A000BCE7202850D020273B44B7E780220523E0
:1037B00030908DF88420C5E724283FD024273B444F
:1037C000ACE78022092330908DF88820BAE7802268
:1037D0000D2330908DF88C20B4E72C283AD02C277C
:1037E0003B449BE7802100F1C8026A443090431CAF
:1037F00002F8481C3BE78022112330908DF890207E
:10380000A0E7302832D030273B4487E780221523B9
:1038100030908DF8942095E734282DD034273B4400
:103820007CE718218022192330918DF8982089E7B0
:1038300080221D2330908DF89C2083E78022252351
:1038400030908DF8A4207DE78022212330908DF8E0
:10385000A02077E780222D2330908DF8AC2071E7EF
:103860008022292330908DF8A8206BE78022312315
:1038700030908DF8B02065E78022352330908DF8A8
:10388000B4205FE72DE9F04101260746B24201DC92
:10389000BDE8F0813B461F4613F8014B002CF7D0E2
:1038A000252CF8D11C780237252CF3D00023DFF823
:1038B00004819C461D461F2D18D8A4F1200EBEF190
:1038C000100F09D9A4F1300EBEF1090F1ED80A2439
:1038D000202504FB03E304E028FA0EFE1EF0010F8E
:1038E00006D017F8014B002CE5D128E07F2D1CD81D
:1038F000A4F1300EBEF1090FE9D9242C10D1BCF18E
:10390000000F46D0B34246D00023EAE724F0040E6D
:10391000BEF12A0FF8D06C2C09D145F08005E0E704
:1039200024F0040EBEF12A0FEED06C2C22D06C2CA9
:103930001BD8682C23D06A2C28D04C2C26D0BCF164
:10394000000FA5D0B445A1D144F020070B68A7F122
:10395000650CBCF1020F01D9612F1ED1073323F092
:103960000703083301360B608FE7742CB9D07A2C2B
:10397000B7D0E4E72C0648BF45F40075CDE7EC0569
:1039800048BF45F4007545F48075AAE745F42075F5
:10399000A7E79C46B8E76324D6E7692C02D007D88E
:1039A000632C03D02F0601D5AC05D7D40433D9E757
:1039B000732CF6E7892801002DE9F04F436895B094
:1039C0008046039383789B07CDE90A1210D50B46F6
:1039D00000260D921F786FB1252F0FD00133099368
:1039E00041463846039B01369847002880F22785D8
:1039F0004FF0FF36304615B0BDE8F08F5F789A1C67
:103A0000252F0992ECD000242546A246A346BBF1FF
:103A10001F0F32D8A7F12003102B0AD8DFE803F0DC
:103A20002409092A0909091B090909220927090981
:103A30001900A7F13003092B2DD92A2F39D154B9F8
:103A40000D9B1BF0400F53F8042B0D9329D0154606
:103A500001E04BF0010B099B13F8017B0993002F48
:103A6000D5D156E04BF0020B4BF0040BF3E74BF0D3
:103A7000080BF0E74BF0100BEDE7BBF17F0F3FD8E1
:103A8000A7F13003092BD8D81BF0400F03D00A222E
:103A900002FB0535DFE70A2202FB0A3A4BF0200B56
:103AA000D9E7B2F1000AF9DACAF1000A4BF0280BA3
:103AB000D1E72E2F05D11BF0400F9BD14BF0400BCF
:103AC000C9E7242F1CD1002C00F089800B9B1BF030
:103AD000400F0D930AD152460DA90A98FFF7D2FE66
:103AE0000D9B1A1DD3F800A00D92B4E72A460DA92C
:103AF0000A98FFF7C7FE0D9B1A1D1D680D92AAE7D5
:103B00006C2F59D051D8682F5ED06A2F64D04C2FBB
:103B100062D034B10B9B22460DA90A980D93FFF792
:103B2000B1FE002D47F02003B8BF2BF0400B0793E8
:103B3000A3F16503BCBF00251FFA8BFB022B53D9F1
:103B400047F02003612B40F05B83FF4307F0200325
:103B500008930D9B073323F0070303F108020D922E
:103B60004BF4C05204921A6805925A68DDF814C0EA
:103B7000C2F30A57C2F31300D20F47EA0C030146FF
:103B800053EA00040BF0400459D13027D2B28DF82B
:103B90003D70A7B28DF83C20002C00F0BE810C2DAA
:103BA0004FF000075DDD0D25B3E0742F3FF453AFF8
:103BB0007A2F3FF450AFACE71BF0800F18BF4BF4E7
:103BC000007B4BF0800B46E71BF4807F18BF4BF463
:103BD000007B4BF4807B3EE74BF4207B3BE72546A4
:103BE0005446AB46AA4636E7FF431BF0400F07F0AA
:103BF000200308BF062508930D9B073323F0070316
:103C000003F10802D3E90001079B0D92652B40F0F8
:103C100098816B1C00224BF4805BDBB21446112BA5
:103C2000CDE9002428BF11230EAA00F0A7FC0E9FA7
:103C3000C3B2CDF810B005930223069381E0002FA4
:103C400000F03A813123D2B28DF83D30A7F2FF3730
:103C5000A3B28DF83C20002C00F056810C2D00F30F
:103C60005581C5F10D010123890001F1FF39A1F151
:103C70002104C1F1210E03FA04F423FA0EFE03FA23
:103C800009F344EA0E0413EB030E44EB0409DEF1DE
:103C9000000BCDF818B069EB490B1EF1FF3ECDF8D3
:103CA0001CB0DDF814B049F1FF390EEA0B0E09EA39
:103CB0000009734574EB090913DBC1F12009B1F167
:103CC000200E2BFA01F100FA09F958BF40FA0EFE56
:103CD00041EA090158BF41EA0E0111F0010F00F05D
:103CE000EE800599CB1840EB04009C46B0F5801F90
:103CF000C0F2E5809DF83D10B7F5806F01F101013C
:103D00008DF83D1000F0E780069A07991A400140AF
:103D10001346089A0D20C2F1570403F00F021B0945
:103D200043EA01730911002A40F0FC80854280F2C9
:103D3000FB800138F1D10E230120CDE9053070233D
:103D4000079307F109023B46122A00F2CF809DF843
:103D50003CB00BF00C091BF0010B40F02881049BD8
:103D60009A0700F11E8113F0040400F0FE80B9F1FF
:103D7000000F40F022814FF02009049B13F4405FB4
:103D800024D1059B002D03F1500308BF01256B448E
:103D9000133B059A22B113F8012D302A00F040811F
:103DA000049B13F0100F059B18BF2B46381DC0F263
:103DB0003C81BD4240F33981049ABB4242F4005237
:103DC00092B2049240F333817D1C5D1B049B13F47B
:103DD000005B00F02E8127EAE7740134B9F1000F8F
:103DE00000D00134002D00F02D816B1C1C44A24535
:103DF000049BCCBFAAEB0404002413F0090F04D1E8
:103E00003444A64240F023810024B9F1000F07D0CA
:103E100041464846039B013698470028FFF6E8AD27
:103E2000049B1A0512D541463020039B9847002871
:103E3000FFF6DEAD089B41460236C3F17800039BD6
:103E400000F0F80098470028FFF6D2AD049B1B074E
:103E500005D43444B44240F0038126460024BBF12B
:103E6000000F00F02D8127EAE77A6D42A7EB0A0BDD
:103E7000059B0AF1FF3A06F101095B4589BF0EABCC
:103E800030205B445879554500F3F3804146039B4D
:103E9000984700280BF1010BFFF6AAADBAF1FF3FDE
:103EA00008D141462E20039B98470028FFF6A0AD7D
:103EB00006F102094E46DBE730230127C3E6069BE5
:103EC00003EA0C0C079B03401846B7F5806F26D118
:103ED0005CEA00001CD042F008024FF480678DF8C5
:103EE0003C200E230593702307933B4603F16302A6
:103EF000C62A38D903F2E73340F2CE7293428CBF20
:103F000004230323069322E71D46DEE70D25DCE7A5
:103F100042F004028DF83C20E3E73D46F9E66346B3
:103F20000146F6E6092A09D830320DF1380C8542EF
:103F30008444B8BF05468CF80520FAE62244D2B284
:103F4000F3E7079B662B05D14BF4005B2C4601225F
:103F5000112364E6EBB200226527012B1446079774
:103F600038BF01235BE60223CCE7B9F1000F3FF431
:103F700004AFBAF1030F32DD049BAAF103041F075B
:103F80002DD4344441462020039B01369847002815
:103F9000FFF62EADA642F5D1BBF1000F35D00024BF
:103FA00015E0B9F1000F2AD14FF02B09E5E6B9F180
:103FB000000F27D14FF02D09DFE64FF0200BBAF1AB
:103FC000040FECDD049BAAF104041D07D9D541467A
:103FD0005846039B013698470028FFF609AD9DF827
:103FE0003C309F4D13F0080F9E4B08BF1D462F46D7
:103FF000B94617F8010B50B9751BA9445BE04FF0A7
:104000002B0BDCE74FF02D0BD9E75C46E7E7089B6D
:104010004146C01A039BC0B298470028E8DAE7E49B
:10402000059A013AD2B20592B3E65D1ECEE60025AE
:10403000CCE6049B13F4006F069B0CBF03240524FD
:104040001C44CBE6049BD90648BF0134CFE6414669
:104050002020039B013698470028BFF6D2AEC7E464
:1040600041463020039B013698470028BFF6F2AE48
:10407000BEE4BA450AD19DF83D30352B1ED805D196
:104080009DF83C3013F0100F08BF31204146039BD0
:1040900098470028FFF6ACAC049BD8060BD5BAF1C4
:1040A000FF3F08D106F1020941462E20039B9847A5
:1040B0000028FFF69DAC4E464C4446E23120E5E731
:1040C0009DF83D00414631281EBF9DF83C3023F04D
:1040D00010038DF83C30039B98470028FFF688AC0E
:1040E000002D6DDD41462E20039B06F10209984705
:1040F0000028FFF67DAC01263346059A414609F1BA
:104100000109964237BF503330206B4413F8130C2B
:10411000039B98470028FFF66BAC0136F6B2AE421F
:104120003346EADDDDE907324146981A039BC0B207
:1041300098470028FFF65CAC002F04DB4FD19DF8B8
:104140003C30DB064BD57F422D204146039B9847F0
:104150000028FFF64DAC069B042B42D14FF47A7633
:104160004146039B09F1030997FBF6F505F1300081
:10417000C0B298470028FFF63BAC06FB15776426D3
:104180004146039B09F1010997FBF6F505F1300063
:10419000C0B298470028FFF62BAC06FB15770A261D
:1041A0004146039B09F1010997FBF6F505F1300043
:1041B000C0B298470028FFF61BAC06FB157718E045
:1041C000049BDA0602D406F10109ABE741462E2032
:1041D000039B06F1020998470028A3DA08E42B2084
:1041E000B3E7069B09F10209032BC8D0069B012BFC
:1041F000D5D107F1300009F101094146C0B255E7B8
:10420000A7F16303122B00F20181DFE813F0130022
:104210005900FF00FF00FF00FF005900FF00FF00F2
:10422000FF00FF00FF001B01FA00FF00FF002D0050
:10423000FF00BB000D9B01240EAF1A1D1B680D92E1
:104240008DF838301BF0080F2FD007EB04093D46DE
:10425000A9452CD1F71BB944AAEB04042BE700BFF6
:10426000806B00017C6B00010D9B1A1D0D921F6875
:10427000AC4B002F08BF1F461BF0400F384614BF41
:1042800029464FF0FF3101F04FF80446DAE7414686
:104290002020039B98470028FFF6AAAB013DA542CA
:1042A000F5D85644AA46761BCFE75546F7E7414670
:1042B00015F8010B039B98470028C9DAFFF798BB54
:1042C0001BF0800F0D9B3CD01BF4007F34D00733D4
:1042D00023F0070303F10802D3E900010D922BF04C
:1042E000100900291FFA89F93DDA404249F4806932
:1042F00061EB41010DF1380B0A235A4601F020F819
:1043000019F0400FA0EB0B0B65D029F001025D45C1
:1043100092B240F3B380002F00F0AB8019F010038D
:104320002C46914640F0AD8040F2064319EA030363
:104330001CBF0134002355E01A1D18680D92C117E7
:10434000CDE71A1D1BF4807F19680D9201D1084634
:10435000F5E71BF4007F19BF48B241F3C01108B262
:1043600041F3C031BBE750EA0103C3D11BF0400F5A
:10437000C0D0002DBED12BF0110B1FFA8BF9AB462C
:104380002C46D1E72BF0100B0A231FFA8BFB1BF0F6
:1043900080040D9A59D01BF4007115BF0732101D0F
:1043A00022F007020D900FBF106802F108010D9175
:1043B000D2E9000150EA010254D12BF016091BF09A
:1043C000400F1FFA89F951D0002D4FD12BF0170B58
:1043D0001FFA8BF9AB4619F0100354D0002F4FD1C0
:1043E0000BF1010419F0080F60D119F0010F06D08C
:1043F000A2456FDDAAEB040404EB0B0554462246EC
:104400004FE04BF0100B10237827C0E747F0200354
:10441000782B05D1582F14BF10234FF40473B6E73F
:1044200041462520039B98470028FFF6E1AA414614
:104430003846039B98470028FFF6DAAA0236099B04
:10444000FFF7C8BA08230027A1E7111D10680D91D6
:104450001BF48071AED01BF400711ABFC0B22146AC
:1044600080B2A7E72BF0060B1FFA8BF90DF1380B82
:1044700043E729F011091FFA89F981E79146AAE774
:104480005C460234AEE75C464EE7CDE90423414684
:104490002020039B98470028FFF6AAAA049A059BB0
:1044A00001329245F1DC341BA6181446A3B14146F3
:1044B0003020039B98470028FFF69AAA87B302365C
:1044C00041463846039B98470028FFF691AAB1461B
:1044D00035441CE05D4692E740F2064319EA030FBB
:1044E000F5D019F0020F06F10106414614BF2B204A
:1044F000202019F4806F18BF2D20E3E741463020BB
:10450000039B09F1010998470028FFF671AAA5EB62
:1045100009035B45F2DC5D460EAE2DB9D9449BE63E
:104520000136D4E7846B0001013D4146039B705D79
:1045300098470028F1DAFFF75BBA41462020039B39
:10454000013698470028FFF653AAA31B002BF4DC82
:1045500075E700BF1FB502AB074A00934FF0CC339D
:1045600000F0D2FFDDE90201C00840EA4170C9084D
:1045700005B05DF804FB00BFCDCCCCCC2DE9F04FED
:104580009BB0044605920A460A93C2F30A559DF869
:104590009030D20F0B93C1F313030992090D85B923
:1045A00050EA03021DD1059A302301265371099B5D
:1045B000957143F002031560137130461BB0BDE8DE
:1045C000F08F40F2FF7295424BD10343099B059A4D
:1045D0004FF0000614BF43F0080343F004031371C7
:1045E000EBE700F001024FEA830887009A46089241
:1045F000012248EA9078AA4D1646C5F1000B0692B2
:10460000584600F01DFBB5F1FF3FACBF8146A0F15D
:104610000109ABEB090B09EB05035846049300F0C5
:1046200015FB16A9A0F17D05584600F015FA12AB4E
:10463000069AA9EB0505019310AB20460292009360
:1046400016AA2B46514600F0A5FEB9F1010F04460B
:104650000D4600F2D280089B002B40F0C580012758
:104660006BE043F4801A00F001020343A5F23545E4
:104670004FEA8A0808924FEA800748EA907849D1C1
:1046800040F2FE7319420CBF01260026002D32466F
:10469000B3DB284600F0CEFA032DC8BF01380490E2
:1046A00000F0D4FA049B7C3016A95D1B0544184623
:1046B00000F044FA12AB204616AA019310AB514603
:1046C000029600932B4600F065FE049B04460D46BF
:1046D000152B00F2868014AB724A3846414600938F
:1046E0004FF0CC3300F010FF149B159A9B0843EA5F
:1046F000827303EB8303BB42DDE9109A0CD1384689
:10470000414600F091F9049B83428CBF00270127AA
:10471000002612E00126B9E7089B002B51D1013F8A
:1047200048F1FF31B81B61F1000100F07DF9049BF5
:10473000089F83428CBF002601260B9B002B40F074
:104740009080DDF828B04FF000084FF00A0ACDE95C
:104750000688DDE91001FFF7FDFE129BCDE90C0193
:10476000184613990E93FFF7F5FE0C9B81460D9AA0
:1047700098420B460F91934180F08D802046294648
:10478000FFF7E8FE0AFB09F30E9AB8F1000F14BF19
:10479000002707F001070AFB10480D46934214BF9B
:1047A000002606F001060C9B5FFA88F80446109379
:1047B0000D9BCDE911390F9B1393079B0133079391
:1047C000C7E7B81C48F1000100F02EF9049B8342B2
:1047D0008CBF00200120B9EB00006AF10002CDE996
:1047E000100200273E46A8E7109B0127119A013BC3
:1047F00042F1FF32CDE910328AE7B9F13E0FF0D82D
:104800004FF0FF33A9F12000C9F1200103FA09F2AA
:1048100003FA00F023FA01F103FA09F3024327EA4D
:1048200003070A4328EA020857EA08070CBF0127D2
:1048300000276DE700FB02FC0133A1FB001262447C
:104840008C4275EB020CF5D2049ADDF828B01344C3
:10485000259A1344012BB8BF01239B45A8BF9B4653
:1048600071E70A21002201230846E9E70AFB03F069
:104870000131A2FB0A230344944275EB0300F5D2F5
:10488000594511DDBBF1000F02D154EA05030BD0ED
:104890000123069372E70A2200230121ECE700BFFF
:1048A000CCFBFFFFCDCCCCCC002E2FD04FF00A0A92
:1048B000129B139918460D93FFF74CFE0D9B0AFBB4
:1048C00000F281460C919A4220D1B8F1000F14BF3A
:1048D000002707F00107DDE91001FFF73BFE0E900E
:1048E0000D9120462946FFF735FE0D9B0AFB104827
:1048F0000E9A04460D465FFA88F81092CDE91139F8
:104900000C9B1393079B01330793D1E7DDF81090BD
:10491000079B9944002F60D0B8F1050F5DD114F0CA
:10492000010350D1069A32B9DDE912239D4208BF36
:10493000944265D0069B18194FF00A044FF000020C
:104940004FF0010645F100012546A04271EB020738
:1049500059D2EBB1B3451BDA0B9B63B106EB0903EC
:10496000259ADDF828B0134423EAE3739B45A8BFDA
:104970009B465E450CDD053009F1010906F1FF3665
:104980004FF00A024FF0000341F10001FBF756FC23
:104990005E450FFA89F9059BA8BF5E4636B2B14461
:1049A00006F1050809F1FF3798444FF00009B145B9
:1049B00030DB059B002233445A71059B1A461F6069
:1049C000099B1371F9E5069B2BB9DDE912239D4282
:1049D00008BF944209D00123ADE7069B53B9DDE936
:1049E00012239D4208BF944204D1089B002BF2D1B0
:1049F000002EF0D0B8F1040F94BF002301239AE7F2
:104A00004FF00408F1E705FB02F70136A4FB05426D
:104A10003A449AE70A220023FBF710FC303209F1EE
:104A2000010908F8012DC2E770B50346094A0020C4
:104A30004FF0CC364FF0333506FB03F402FB014454
:104A4000A3FB023121449D4275EB010401D30130E7
:104A5000F2E770BDCDCCCCCC1A232DE9F04FB0FBE2
:104A6000F3FA334E03FB1A0389B004460D4606EBF6
:104A70000A1653B9D6E90023C1E90023D6E9020199
:104A8000C5E9020109B0BDE8F08F2A4A02EBC30371
:104A9000D3E9008904AB404649460093D6E9022396
:104AA00000F032FD06AB83460F4640464946009370
:104AB000D6E9002300F028FD00238146DDE90662E7
:104AC00016EB0B0652EB070828BF012333B1049BFA
:104AD000059A013342F10002CDE9043220460391E8
:104AE00000F0B4F807461A2000FB0AF000F0AEF818
:104AF0003F1A3246434648460399009700F01FFD8F
:104B00000D4A4FEA141C640004F01E0352F82C40B6
:104B1000DC4004F003042418304641F10001DDE9D3
:104B20000423C5E900414146009700F008FDA7E7CE
:104B30005858000188570001DC5B00012DE9F04F57
:104B40001A2700F11905DFF8E0A089B004460E46E7
:104B5000B5FBF7F56F434FEA051B0AEB05153A1A4B
:104B60000AD1D5E90023C1E90023D5E90201C6E94C
:104B7000020109B0BDE8F08F2C4B03EBC203D3E96F
:104B8000008904AB404649460093D5E9022300F072
:104B9000BBFC5AF80B206B68013ACDE9020106A96B
:104BA00063F1000340460091494600F0ADFC8A469F
:104BB000029900238146DDE906526D18039952EBF4
:104BC000010828BF012333B1049B059A013342F148
:104BD0000002CDE90432384600F038F80746204696
:104BE00000F034F83F1A2A4643464846514600979B
:104BF00000F0A5FC0E4A4FEA141C640004F01E03EA
:104C000052F82C40DC4004F00304013424182846F8
:104C100041F10001DDE90423C6E900414146009766
:104C200000F08DFCA3E700BF285900018857000160
:104C3000305C0001014B5843800C70474134010047
:104C4000014B5843000D7047FB2E0B00024B58439D
:104C5000C00C0130704700BF4F9312000020704716
:104C60000FB407B504A951F8040B0191FBF792FEAC
:104C700003B05DF804EB04B07047836800EBC1013A
:104C8000B3F5004F2CBF51F8220031F812007047E5
:104C900000EBC1018068B0F5004F2CBF41F8223015
:104CA00021F812307047012208B5FFF7E6FFD04027
:104CB00008BD836800EBC101B3F5004F08D34B6812
:104CC0001AB143F001034B60704723F00103FAE788
:104CD0004B881AB143F001034B80704723F0010366
:104CE000FAE753000122FFF7D3BFB0F5004F34BFFE
:104CF000042308230731C818C00870470A4608B5BE
:104D00000121FFF7F2FF0132121AB2FA82F0C0F16C
:104D10001F0008BD2DE9F0410D4686680446FFF7E7
:104D2000C2FFB6F5004F014601D3012832D030460C
:104D3000FFF7E4FF04EB80010E6996B90122E368F6
:104D400082401343E36002220D612B462946204630
:104D5000FFF79EFF032229462046BDE8F041FFF7FA
:104D600097BF022231462046FFF787FF07460346DA
:104D700029462046FFF78CFF03223346294620466A
:104D8000FFF786FF39462B462046FFF781FF0222B8
:104D90003146E1E7BDE8F081038B13F0070305D14D
:104DA0000368002B0CBF002003207047022B05D1A5
:104DB000408BB0FA80F0400980007047012B05D18C
:104DC0000368002B0CBF00200520704700207047AF
:104DD00010B50C4600B111B96FF0150010BD081DDB
:104DE00000F03DF80028F9D1A368032BF6D9F3E7CA
:104DF0002DE9F0410D4607461946281D90461E46EE
:104E0000FCF74CF8044638B133464246294638464A
:104E1000A446BDE8F0416047BDE8F08110B44FF012
:104E20002004EFF3118284F31288BFF36F8F416186
:104E300010BC0121FBF74CBE38B50C46054658B1F5
:104E400051B10B6843B14B6833B11C22002100F013
:104E5000A2FB00202C6138BD6FF01500FBE7034674
:104E600058B1426802F00302012A03D0032A04D198
:104E7000026812B10020986070476FF0150070470B
:104E8000404080F311884FF0040002DF70470FB4F8
:104E900007B504A951F8040B0191FBF77BFD03B0A2
:104EA0005DF804EB04B070477047F0B5D0F80473B8
:104EB000064617F002001CBFC2F1807018604FF068
:104EC000000518BF01204FF0010C4FF4803E0CFA92
:104ED00005F40C4214D00EFA05F43C4210D005F54E
:104EE000A87456F82440A41A34F07F4408BF4FF049
:104EF000807408B91C6002E01868A042FAD801204A
:104F00000135042DE3D1F0BDFBF7E4BF0FB407B5C5
:104F100004A951F8040B0191FBF73CFD03B05DF8C7
:104F200004EB04B0704708B58368DB6898470068F5
:104F300008BD2DE9F047894616469846044698B3C1
:104F400082680369134482693344934230D8002550
:104F5000D4E90170A6EB050A3F1ABA4515D2B5424D
:104F600009D223685246184409EB050100F006FBFC
:104F7000A3685344A360B8F1000F1CD0A068A8B187
:104F80002046BDE8F047FCF727B923683A461844A5
:104F900009EB050100F0F2FA63682046A360FCF714
:104FA0001BF918B93D44D3E76FF00D00BDE8F08759
:104FB0006FF00B00FAE74046F8E701460068FCF79F
:104FC000C9B908B5FCF7F4F9BDE80840FCF7F4B935
:104FD00000210120FCF7BEB94FF02003EFF311824E
:104FE00083F31288BFF36F8F036803F0C00343F0AD
:104FF0000203036082F31188BFF36F8F7047F8B527
:10500000069F0469C9B24FF02005EFF3118685F3BE
:105010001288BFF36F8F0C2569430C44256C05F093
:10502000070CBCF1010F0BD1276486F31188BFF385
:105030006F8FC4E90E2343685B5898470020F8BD82
:1050400005F0C005AF4286F31188BFF36F8F0CBF28
:105050006FF077004FF0FF30F1E713B58024009434
:10506000FFF7CDFF02B010BD6FF08500704710B4A0
:105070001C240069CBB203FB0400002110BC1047C4
:105080000020FDF731BE0020FDF7A2BE8022FCF714
:1050900037BD38B505460C4600F014F9002D07DB86
:1050A000A84205D9401B84428CBF0020012038BD96
:1050B0000020FCE7F7B51C460023164682682360F3
:1050C000A3600D461369694601AA9847019B5A1EC1
:1050D00001921BB96FF0150003B0F0BD0098A268F3
:1050E00047682168676085B9B31AD0F800C0634586
:1050F00028BF634603FB07111A442160A2600268BF
:105100009A4206D808300090E0E76B1AB3FBF7F339
:10511000EBE70020E0E713460022FFF7CBBF2DE9C5
:10512000F0470024836886B0884691461B6902AA2E
:1051300001A99847A2462546029BAB4202D806B079
:10514000BDE8F0870026019F07EBC5077B68049345
:105150003A680AEB0603B24202D89A460135EBE7F9
:1051600049460394059303A8C0470028E7D0049B51
:1051700001361C44ECE770470020704708B5FCF787
:1051800003FF08BD0222FDF7CDB8002070470020C4
:10519000704708B5FFF7F9FF08B9FFF7F8FF08BD3A
:1051A00030B589B0154601230A460146684600F02D
:1051B0000EF8044640B9202269462846FBF758F805
:1051C000002808BF6FF06404204609B030BD08B560
:1051D000FEF724F9002008BD13B5044658B101209C
:1051E0000DF1060100F043F818B9BDF806305B0870
:1051F000238002B010BD6FF01500FAE770B50546C8
:1052000008460C46FDF798F9214602460123284638
:10521000BDE87040FDF7A0B92DE9F8430D461646EC
:10522000FDF7AAFA0446F8B1F5B10230FDF78CFE9D
:1052300000278146B8460434B94507D8002406B192
:1052400034600020A5F80080BDE8F8832046FDF713
:105250007BFEC3439BB2A21C002BF0D0984538BF05
:10526000984614460137E7E76FF01500ECE7002297
:10527000FFF7D2BF4FF000535868704703465A6B90
:1052800000233C309A4200D17047C1680133084482
:10529000F8E7004700F01EB8FDF7E6BD034603F14E
:1052A0007F42B2F5802F08460AD351B103F17E4008
:1052B00000F50040B0F5607F2CBF00200120704752
:1052C000012070474FF4802070474FF40060704712
:1052D0008020704708B1FBF735BF704740B1C36805
:1052E000587810F001001EBF1878B0FA80F040091D
:1052F000704700F050B900F041B9EFF30580003875
:1053000018BF0120704770470139024410B5904220
:1053100001D1002005E0037811F8014FA34201D02C
:10532000181B10BD0130F2E70246014410B58A4255
:10533000134603D01C780132002CF8D1181A10BD86
:105340002DE9F0471D46074688461646AB0546BF81
:1053500025F400754FF0070A4FF0270A4FEAE57968
:10536000384641462A464B46FAF768FF4346D4B2D0
:105370003A4688460746092C84BF5444E4B2AA4200
:1053800004F1300473EB090306F8014BE8D2304610
:10539000BDE8F0872DE9F04F061887B0994615460D
:1053A00041EB010402AB3046DDF844B021460093E6
:1053B000A9F1410AD2E9002300F0A6F804AB0746A0
:1053C0008846304621460093D5E9022300F09CF838
:1053D0000022DDE90263841951EB0306049B28BF18
:1053E0000122D5E90001D218059B43F100033818CA
:1053F00048EB0101B84271EB0801D5E902C134BFA5
:105400000120002014EB0C0CCDF800A046EB0101AC
:1054100010EB0C0041F10001A04271EB060C34BF0F
:105420004FF0010C4FF0000CCDE904231CEB0202FD
:1054300043F1000300F083F8109BC3E90001129BC5
:10544000012BDDE9042329D1D5E90201D5E900C505
:10545000201ACDF800A066EB0101674578EB050541
:1054600034BF01250025401B61F10001844276EB29
:10547000010534BF01250025521B63F1000300F034
:105480005EF8DDE90423CBE9000120463146CDF882
:1054900000A000F054F807B0BDE8F08F17EB070E3E
:1054A00048EB080C201946EB0601BE457CEB0808CA
:1054B00034BF01270027C71941F10008D5E90001D1
:1054C00086457CEB010C34BF01200020D5E9021594
:1054D000381A68F1000C401A6CEB050192185B4118
:1054E000A74278EB060534BF01250025521943F188
:1054F0000003874278EB010834BF01250025521BC9
:10550000A9F140050095B8E7F0B50F460446A0FBA9
:105510000201059EA7FB02524919A3FB0445A7FB04
:10552000037342F10002611845F10004D21943F1FE
:105530000003121943F10003C6E90023F0BDF0B5E2
:10554000059CC4F14007C4F12006A4F12005E04009
:1055500002FA06F6BB4022FA05F5BA403343C4F11D
:1055600020062B4301FA06F6A4F12005304321FA68
:1055700005F5E140284319431043F0BD0A44431E9A
:10558000914200D1704710B511F8014B914203F8D8
:10559000014FF9D110BD02440346934200D1704738
:1055A00003F8011BF9E7000058B0FF7F010000007D
:1055B000F90E000100000000A51B0001E8550001E4
:1055C0000922000100000000090F00010000000096
:1055D000651A000100000000591E0001FC55000181
:1055E000B52800010000000040640001385A0001A5
:1055F000505A000110000021F4000021D264000183
:10560000000000006C5A00011200002100000000A0
:1056100000000000D14F000100000000D14F000148
:1056200000000000D14F000100000000D14F000138
:1056300000000000D14F0001052E0001935200012F
:1056400000000000D14F000100000000D14F000118
:1056500000000000D14F000100000000D14F000108
:1056600000000000D14F000100000000D14F0001F8
:1056700000000000D14F000100000000D14F0001E8
:1056800000000000D14F000100000000D14F0001D8
:1056900000000000D14F000100000000D14F0001C8
:1056A00000000000D14F000100000000D14F0001B8
:1056B00000000000D14F000100000000D14F0001A8
:1056C00000000000CD1F000100000000D14F0001CC
:1056D00000000000D14F000100000000D14F000188
:1056E00000000000D14F000100000000D14F000178
:1056F00000000000D14F000100000000D14F000168
:10570000195F000103000000355D00010300000087
:105710005B640001030000006A65000103000000F3
:10572000EC640001030000004B6B0001030000006B
:10573000B168000103000000C45D00010300000027
:10574000DEE61E284CBBCE8F02350000DEE61E28AA
:105750004CBBCE8F02350000DEE61E2883845186C6
:1057600002350100DEE61E28EAAC45B8023500002D
:10577000DEE61E284CBBCE8F023500000000000084
:105780000338FDD870470000010000000000000051
:1057900005000000000000001900000000000000EB
:1057A0007D00000000000000710200000000000009
:1057B000350C000000000000093D00000000000062
:1057C0002D31010000000000E1F50500000000009F
:1057D00065CD1D0000000000F902950000000000EA
:1057E000DD0EE90200000000514A8D0E00000000AD
:1057F0009573C24800000000E941CC6B0100000035
:105800008D49FD1A07000000C16FF28623000000D9
:10581000C52EBCA2B1000000D9E9AC2D7803000070
:105820003D9160E45811000031D6E275BC5600008D
:10583000F52E6E4DAEB10100C9EA268367780800E7
:10584000ED95C28F055A2A00A1EDCCCE1BC2D30024
:1058500025A4000A8BCA22040000000000000000FA
:105860000000000000000010000000000000000028
:10587000B9340332B7F4AD1410DB1AB30892540EE6
:105880000D307D951447BA1A66088F4D26ADC66D4A
:10589000F598BF85E2B74511CA96853D92BD1DEBCF
:1058A000FCA11860DCEF52163C92AE220BB8C1B4DA
:1058B000839D2D5B0562DA1C304C7E8F4E8BB25B74
:1058C00016F4529F8B56A512FBD4827643ED8AF0D4
:1058D0008FE7F9311565191850F19BD94A13EEB4C9
:1058E000284CF0A686C1251F035FC270CB9E4916C7
:1058F000E642889C44EB2014B0650836AD6EA58561
:1059000085F0CA14E2FD031A0B899979D5B13D09D6
:10591000D8DA973A35EBCF10AC363F5E73BB38CF51
:105920003E6752FA44AFBA150100000000000000C3
:105930000000000000000020345065C05FC9A6527E
:10594000BB13CBAEC440C21806C8DF7100D5A87C1B
:10595000F56F0FDA58FC27136E4756357D24206506
:1059600002C7E768E48CA41DE9E60268D7CD396177
:105970007977FCC2405BEF16798CDE43FFA751F9C3
:1059800091F3B278F5BDBE11E857E9D6E8BEE87BE1
:10599000B054AC8F848D751BEA23A499E9F9D38B9D
:1059A000B7A3714061DA3E15CEE33ECB73F94808E8
:1059B0008C97B427D51B7010A2BFEFB9EB853215B9
:1059C0004DB44DB49BBB6F1996B6076CF8E7EEADBE
:1059D00036D9B4F59135AE13222218AF4E6A684D10
:1059E00091DAAA3D4F40741E9FBD9EE006A1C0986B
:1059F00057C2A7FDA40E90170E7D497173E3208F47
:105A0000B220D87605143B12853D7434811343B01F
:105A1000AD297A5F27F4351C000000000002000069
:105A2000000400000008000000100000891A0001B6
:105A3000751B000100000000851C0001E91C00012D
:105A40004F6400018150000187500001556400013E
:105A5000695000018D5000015B5000010000000002
:105A6000CD1A000100000000000000004D1F0001E1
:105A7000E11E0001711E0001511E0001411E0001C6
:105A800004000000FF000000000000000002000011
:105A900000040000000800000010000000000000EA
:105AA00000020000000400000008000000100000D8
:105AB000016B00010F6B0001236B0001326B0001D1
:105AC0003E6B0001B0550001B0550001C05500010A
:105AD000C8550001E8550001E8550001982F8A4299
